:100000000C9482000C9494000C9494000C94940032
:100010000C9494000C9494000C9494000C94940010
:100020000C9494000C9494000C9494000C94940000
:100030000C9494000C9494000C9494000C949400F0
:100040000C9494000C9494000C9494000C949400E0
:100050000C9494000C9494000C9494000C949400D0
:100060000C9494000C9494005245465F523D00520B
:1000700045465F433D00203E3130306E460001046E
:100080001001020452303D00494345733D0049438D
:1000900045303D00B903870358032E030703E402EC
:1000A000C302A40288020000140029003E0053008D
:1000B000690080009700AE00C600DF00F800120162
:1000C0002D01490165018201A001BE01DE01FF0190
:1000D0002102440268028E02B502DE0209033503E2
:1000E00064039403C803FE0337047304B404F904DF
:1000F00043059305EA054906B3062907AE074808F4
:10010000FF08DE0911241FBECFEFD4E0DEBFCDBF54
:1001100021E0A0E0B1E001C01D92A33AB207E1F7EF
:100120000E946E1A0C946A200C94000080FD5C9A68
:1001300080FF5C98549A00005D9A559A5898599897
:100140005A985B9864FD589A509A65FD599A519A4D
:1001500066FD5A9A529A67FD5B9A539A00005D9821
:1001600015D387FD10C05D9A589859985A985B9896
:1001700060FD589A61FD599A62FD5A9A63FD5B9A37
:1001800000005D9803D308958091370180930001AA
:1001900080919601809302010895909137019F5FAD
:1001A00090933701682F81E00E9496000E94BD0362
:1001B00008958F5C0E94CD00089580E20E94CD00DA
:1001C0000895A1E0B0E0E7EEF0E00C94F31F1816FC
:1001D00034F489830E94DD0089818150F8CF219613
:1001E000E2E00C940F208DE30E94CD000895682F6B
:1001F00080E00E9496000E94BD030895109296012F
:1002000080E80E94F70010923701089580EC0E9468
:10021000F70081E08093960110923701089580E9FC
:100220000E94F70082E080939601109237010895B2
:1002300080ED0E94F70083E08093960110923701D1
:10024000089560933701813011F480EC01C080E89B
:10025000860F0E94F70008956091000180910201CD
:100260000E942101089581E00E94F7000E94B103DD
:100270000E94FE000895CF93DF93EC0189918823BB
:1002800019F00E94CD00FACFDF91CF910895CF935E
:10029000DF93EC01FE018491982F9F7721F00E945B
:1002A000CD002196F7CFDF91CF910895CF93DF93C3
:1002B000EC01CE010E944F20982F9F7721F00E94E1
:1002C000CD002196F6CFDF91CF9108950F931F9324
:1002D000CF93DF93EC0128968C010F5F1F4F0E9494
:1002E0004F200E94CD00C8010C171D07A9F7DF9110
:1002F000CF911F910F9108950E94AC0383E30E9458
:10030000F70082E30E94F7000E94B10380E20E949E
:10031000F70080E20E94F7008AE20E94F70088E07E
:100320000E94F70086E00E94F70082E00E94F7003A
:100330000E9433010E94B2038CE00E94F70088E41F
:100340000E94F70080E290E00E94660180E50E9432
:10035000F70088E190E00E94660188E50E94F700BE
:1003600088E290E00E94660188E70E94F70080E141
:1003700090E00E94660180E70E94F70088E090E02C
:100380000E94660108959091370180E1891B0E94C7
:10039000E1000895A1E0B0E0E0EDF1E00C94F31F7E
:1003A00089830E94C301909196019F5F909396016B
:1003B0008981923030F091E09093960190933A01C8
:1003C00002C010923A01682F809196010E9421018B
:1003D0002196E2E00C940F200E94CA010E945F0463
:1003E00008950E94FE000E94C3010E94FE0008952D
:1003F0000E9406010E94C3010E940601089508950B
:100400000F938CEB90E00E94560140917A014D3F92
:100410006CF4609168017091690180916A0190911A
:100420006B0103E026E40E94D20203C08FE30E9426
:10043000CD000F91089597FF09C08F939F938DE290
:10044000ACDE9F918F91909581959F4F6DE171E00A
:100450004AE050E00E941A200EDF0895ECDF01C050
:10046000EADFABDE0895EF92FF920F931F93182FF0
:10047000062FF42E8BEA90E019DFEE24E09138018C
:10048000F09139018685E81611F4812F09C0848521
:10049000E81611F4802F04C08585E81611F48F2D1D
:1004A0007CDEE3948E2D833049F71F910F91FF90EE
:1004B000EF900895682F80E092E0662309F491E0C0
:1004C000623009F481E008950F93082FE7E9F1E025
:1004D000880F880FE80FF11D6081718182819381FF
:1004E000643671058105910578F42091010127FD9D
:1004F0000BC0802F0E945A02692F0E94DD176EEFF9
:1005000023E044EF08D104C04FEF04E024EF4AD0C9
:1005100054DE0F910895863058F4EAE8F1E0E80FD0
:10052000F11DE80FF11D8081918163E000D145DE6E
:1005300008951F93182F80916501882319F03DDEDF
:1005400082E52BDE63DE82EA90E0B0DE812F8295C9
:100550008F70E1DF812F8F70DEDF1F910895CF93C1
:10056000DF9380910D0182958F70CEE7D1E0C80FA7
:10057000D11D88811EDE8EE690E098DE8E8119DE28
:100580008EE690E093DECEE7D1E080910D0183709E
:10059000C80FD11D8E810DDE80910D01CADFDF9164
:1005A000CF910895AEE0B0E0E8EDF2E00C94E31FE7
:1005B000142F322E202E6B017C010F7080E3898373
:1005C0008A838B838C838D838E83F7FE0CC08DE2B0
:1005D0000E94CD00F094E094D094C094C11CD11C32
:1005E000E11CF11C05C025FE03C08BE20E94CD007A
:1005F000033029F0043031F084E690E005C088EE45
:1006000093E002C080E197E22C01612C712C9AE00A
:10061000892E912CA12CB12CC414D504E604F70426
:1006200070F0C701B6016B5F7F4F8F4F9F4FA501E1
:1006300094010E94811F69017A011F5FEDCF86E05E
:10064000811B63E00E94611F792E4E0187E0880EB6
:10065000911C4AE0B401C6010E942520F4010190DA
:100660000020E9F731977F01E818F9081F5E4BEA8F
:10067000149F412D11244695842F90E08050904086
:100680000E944F20D82E24FE04C0E01610F40E194C
:1006900001C000E0CE2CC718C00E1C142CF08EE256
:1006A0000E94CD00072D0E19711002C088EFC82ED0
:1006B000A12C10E048018E0C911CEC2C0C2C000C91
:1006C000FF082A2D30E028153905BCF4F9013696CB
:1006D000E01BF10B81E090E08C0F9D1FE80FF91FEC
:1006E00080810E94CD00A3948A2D90E08E159F05F5
:1006F00041F78EE20E94CD00E4CFDD2019F08D2D70
:100700000E94CD00332019F0832D0E94CD002E963B
:10071000E2E10C94FF1F0F93362FBC0180E090E0C4
:10072000022F242F432F0E94D2020F9108950F937E
:10073000062FBC0180E090E026E54DEF0E94D2023A
:100740000F910895089503D002D001D000D000D0B9
:1007500003D002D001D000D000D003D002D001D00D
:1007600000D000D0A89503D002D001D000D000D096
:1007700003D002D001D000D000D003D002D001D0ED
:1007800000D000D003D002D001D000D000000895E6
:100790000E94B1030E94B2030E94B2031F93182F5C
:1007A000106410937C00E12FE07880912801E81715
:1007B00051F0E0932801E0DF86ED80937A0080918C
:1007C0007A0086FDFCCF20E030E0A901E0E01EC009
:1007D00086ED80937A0080917A0086FDFCCF60914F
:1007E000780070917900260F371F411D511DE430AC
:1007F00061F480912A01803041F084E02030380794
:1008000020F417FD02C01068CCCFEF5F8091270164
:10081000E817F0F260912B0170912C0117FF04C0D2
:100820006091290170912A0180E090E00E94511F9F
:100830002FEF33E040E050E00E94811FB901CA0170
:100840002091270130E040E050E00E94811FC90163
:100850001F910895EF92FF920F931F93CF93DF9311
:100860007C01C5E64F9903C07DDFC150D9F7E70190
:1008700005E510E0D7FD1BC074DF000F4F9B0F5F35
:100880000F730F3341F4111102C0E70114E01F5F31
:10089000163928F00CC0011102C0111108C0A8952A
:1008A000209741F32A9731F7CFEFDFEFE3CF812F86
:1008B000DF91CF911F910F91FF90EF900895CF930B
:1008C00063DCC82F80913A018823D1F0813051F444
:1008D000C13041F46FE081E0B4DC8BE25EDC6FE0BC
:1008E00081E0AFDC80E49FE1B5DFC13041F480916D
:1008F0003A01813021F481E060E0A3DC44DDACDC2E
:10090000CF91089587ED91E00E944F20382F88ED18
:1009100091E00E944F2020912F01230F3091300150
:10092000381F209312013093130183E0283E3807CB
:1009300020F0C901885E934002C080E090E062E34D
:1009400070E00E946D1F683008F067E0E4E9F0E0B5
:10095000E60FF11DE60FF11D459155912591359159
:1009600062E3681B421B530B649FC001659F900D9F
:100970001124499662E370E00E946D1F620F731F9D
:10098000709367016093660189ED91E00E944F20AA
:10099000992787FD909560912F0170913001860F06
:1009A000971F90932A01809329019093640180936B
:1009B00063010895CF93DF9324E130E0B9010E94F1
:1009C0006D1FDC01E6EAF0E0E60FF71FE60FF71F08
:1009D000C591D591459155914C1B4A9FC001112459
:1009E000B9010E946D1F6C0F7D1FCB01DF91CF916C
:1009F0000895109216011092140110926201109243
:100A00004A01109215011092360110926501EDE431
:100A1000F1E0108211821282E8E6F1E0108A82E0B1
:100A2000818B109201011786168614821582168218
:100A3000178281EF838B0895A1E0B0E0E2E2F5E058
:100A40000C94F11F17B818B8E82FF0E0E258FF4FE8
:100A5000949195B9262F281BE20FF11D27FDFA95D9
:100A6000E491E92BE4B969830E94CE038C0169818A
:100A7000862F0E94CE03AC0120912B0130912C01D6
:100A800036952795B90164507109C8014E966817CB
:100A9000790770F4265E3F4F0217130748F4CA0126
:100AA0004E966817790720F481E04217530708F043
:100AB00080E014B82196E4E00C940D20CF9361E01F
:100AC00080E00E941C05C82F62E080E00E941C05A7
:100AD000C80F62E081E00E941C058C0FCF91089541
:100AE000AEE0B0E0E6E7F5E00C94E91F10921601E5
:100AF000807F39F00E9433018DE490E00E9456011E
:100B000055C20E945E05833009F050C20E94330135
:100B100080E091E00E9456010E9406018FE30E944E
:100B2000CD0080ED97E00E942A048B3018F30E94DC
:100B3000060184E890E00E94470160E08EEC91E0BD
:100B40000E94572060E08FEC91E00E94572060E007
:100B50008DEC91E00E94572060E082E00E94DD175A
:100B60006C019A83898361E082E00E94DD177C0139
:100B70009C838B8360E081E00E94DD178C019E8363
:100B80008D8323E040E26EEFC6010E948B0323E0D9
:100B900040E26EEFC7010E948B0323E044EF6EEF4B
:100BA000C8010E948B032AE5C216D10424F084E117
:100BB00090E09A83898369818EEC91E00E945720AE
:100BC0008AE5E816F10424F084E190E09C838B83AD
:100BD0006B818FEC91E00E9457200A35110524F0BB
:100BE00084E190E09E838D836D818DEC91E00E9485
:100BF000572082E080933A010E945F0418E70E9428
:100C00005E05811178C00E94330186E490E00E9465
:100C1000560123E044EF6FEF80912D0190912E015A
:100C20000E948B030E9406018FE390E00E94560110
:100C300023E044EF6FEF80913401909135010E94E1
:100C40008B0382E080933A010E945F0410921601A8
:100C50000E9433018BE390E00E94560160E082E045
:100C60000E9438118090700190907101A0907201E3
:100C7000B09073019C868B8661E082E00E943811FF
:100C8000C0907001D0907101E0907201F0907301FA
:100C9000DE86CD8660E081E00E943811009170010F
:100CA000109171011E830D8362E080E00E94381173
:100CB00080917001909171019C838B8362E081E04F
:100CC0000E94381180917001909171019A878987F3
:100CD00061E080E00E943811209170013091710133
:100CE0003A83298380913301823089F42E5F3F4F0C
:100CF00038872F8313C00E94F80180EF90E00E9494
:100D000056010E94A803115009F079CF7CCF388793
:100D10002F83109233018CE00E94F700C4010E94DF
:100D20003002C6010E943002B801110F880B990BE6
:100D300003E026E444EF0E94D2028E010F5F1F4FB2
:100D40006E01EFE0CE0ED11CF801819191910A97CE
:100D5000853B9105D8F4EC15FD05B9F740EDE42E7F
:100D600041E0F42EF80160810E5F1F4F615FC70103
:100D70000E945720FFEFEF1AFF0A0C151D0591F78F
:100D80000E9406018EED90E00E94560182E0809361
:100D90003A010E945F0420E4F22E10E03AE0832E34
:100DA000912CA12CB12C0E94F9040E94330180E007
:100DB0000E94D90084E990E00E94560182E00E94DE
:100DC000D90086E790E00E9447011092160160E08A
:100DD00082E00E94381100917A016091680170915F
:100DE000690180916A0190916B01073F44F40F5FA4
:100DF000A50194010E94811FCA01B901F6CF009399
:100E00007A01609368017093690180936A019093FD
:100E10006B01073F09F09EC0DC01CB0180569109B0
:100E2000A109B10980399545A105B10508F092C025
:100E300060917C0170917D01CB018B569F4F8B326D
:100E4000914008F087C01F5F153008F484C087ED1B
:100E500091E00E9465200E9433018FE690E00E949D
:100E6000470180917C0190917D010E941B020E94AC
:100E7000820418B881E087B980E284B982E00E94D8
:100E8000CE03853D9340D4F714B810922A011092F6
:100E9000290182E00E94CE038C0180916301909130
:100EA000640190932A018093290182E00E94CE037D
:100EB0007C01EE0CFF1C10922A011092290182E0A5
:100EC0000E94CE03C0906301D0906401D0922A01A9
:100ED000C0922901800F911F8C010E191F090E94D9
:100EE000060188E690E00E94470189ED91E00E94AA
:100EF0004F2093E0B92EB80E9601D8010E94D11F61
:100F000097010F2C000C440B550B0E94A31F1B2DA7
:100F1000120F612F89ED91E00E945720812F012E41
:100F2000000C990B0E941B020E94820482E08093B5
:100F30003A010E945F04109233018CE00E94F70096
:100F400080ED91E00E944F20682F83ED91E00E9498
:100F5000572016C010E00E94060160916801709150
:100F6000690180916A0190916B0104E026E440914F
:100F70007A010E94D2020E94AB03FA94F11013CFBF
:100F800089E1809327010E9433018DE490E00E9463
:100F900056010E94060187EE90E00E9456011092D1
:100FA000160182E080933A010E945F042E96ECE0E5
:100FB0000C9405208091330181110DC080ED91E0EA
:100FC0000E944F2061E0680F83ED91E00E9457205E
:100FD00081E0809333010895A1E0B0E0E2EFF7E013
:100FE0000C94EE1FE82FF0E0EF57FF4FE491E8B9C3
:100FF000E7B915B8E62FF0E0E258FF4FE491E4B905
:1010000088E8E82E83E1F82EDE2EDD0C862F69833A
:101010000E94C8038C01D4B869818E159F0510F415
:101020007801F4CF892BD9F082E790E00E94560135
:10103000D80120EA36E841E050E00E94D81F28E9B4
:1010400037EB40E050E00E94811FDA01C90122E045
:1010500041E467EF0E948B0317B818B814B82196C3
:10106000E7E00C940A200F931F93CF93DF9385E062
:101070000E94CE0385E00E94CC038C01EC01CC0FD2
:10108000DD1FCC0FDD1FCA56DF4F10923101C4386F
:1010900083E0D80750F482ED90E00E9456010E9450
:1010A000C30181E08093310126C081EE90E00E946F
:1010B000560162E0CE010E9497030E94DD000A3FC4
:1010C00086E0180790F40333164060F48BE591E056
:1010D0000E9456010E94C3010E94A3035E980E94D1
:1010E000A60309C082E691E002C08EED90E00E9466
:1010F00056010E94C301DF91CF911F910F91089576
:10110000A8E1B0E0E6E8F8E00C94E31F888F162F22
:10111000442EA895E62FF0E0E258FF4FE490339676
:10112000C490C982E42FF0E0E258FF4F5490E82FBA
:10113000F0E0E258FF4F04913396D490DF8A55B81F
:10114000B52CBE28B4B8D7B8D8B8862F0E94CC0327
:101150009C878B87E4B8812F0E94CC033C0114B894
:101160000E94B20315B8B4B8812F0E94CC03CB847F
:10117000DC848C159D0528F5805E9E4FC816D90627
:1011800008F4CDC4D980D7B818B805B9802F8529FF
:1011900084B9C0902B01D0902C01888D0E94CC0383
:1011A0009601281B390B3C872B8704B9C0902B0173
:1011B000D0902C01888D0E94CC033601681A790AE0
:1011C00008C02B853C85205E3E4F8217930708F4AC
:1011D000A6C420914A018091620190E0820F911D86
:1011E00002974CF0213009F09AC490914701809108
:1011F0005F01981394C4F52CFF0C4B855C85443734
:10120000510508F4ABC0CA01880F991F44966816AF
:10121000790608F0A3C0CF88C7B8C8B88F2D8E292B
:1012200084B9812F0E94CA035C01842D0E94CE03E1
:101230006C01F5B8812F0E94CA039501295A3D4FD0
:10124000F02A18B828173907D0F5E980E7B8F4B8BC
:10125000F5B8842D0E94CA0388349F4028F085E0A9
:101260008093160182E204C085E08093160184E237
:1012700080931501B0924001A0923F01CA14DB0493
:1012800040F4C5018C199D09909346018093450156
:1012900004C010924601109245019501A0E1B7E209
:1012A0000E94C21F209110013091110140E050E0D6
:1012B0000E94811F309342012093410128C4C980BC
:1012C000C7B8F4B8F5B8888D0E94CA035C01842DB4
:1012D0000E94CE036C0105B9888D0E94CA03895A09
:1012E0009D4F8A159B0508F01AC4EF88E8B8E7B847
:1012F000842D0E94CA03813D934028F485E08093A9
:10130000160182E304C085E08093160184E3809394
:101310001501AC14BD0438F4CA18DB08D0925E0184
:10132000C0925D0104C010925E0110925D01209197
:101330002B0130912C012A193B09A0E1B7E20E9450
:10134000C21F209117013091180140E050E00E9427
:10135000811F30935A0120935901AAC118B8C9803E
:10136000C7B805B9D02ED528DB82D4B8888D0E94A5
:10137000CC039E838D83C0902B01D0902C01842DB3
:101380000E94CE031C010A9748F514B80E94B203CC
:101390008F2D802B84B9888D0E94CC039E838D83F2
:1013A000C0902B01D0902C01A601481B590B5887E7
:1013B0004F83842D0E94CE031C0120911701309190
:1013C000180140E050E060E871EA83E09CE10E948F
:1013D000811FAF81B8850E94D81F0EC0C601AD81A4
:1013E000BE818A1B9B0B98878F839C01221933092E
:1013F000A4E6B0E00E94C21F910140E050E00E94CC
:10140000811F2D873E874F87588B14B815B8CF881A
:10141000C8B8C7B80E94B20329EB621627E072066B
:1014200008F07DC3B4B8812F0E94CC038F359D4056
:1014300008F444C114B80E94B203B4B80E94B203C5
:10144000AF2CAE28A4B8812F0E94CC036C01842D50
:101450000E94CE039A8B898B888D0E94CE039A8737
:10146000898749895A89413D574008F4ADC084E0D5
:10147000809316018DE08093150176016C147D0434
:1014800010F4E618F7088090100190901101A12C3B
:10149000B12C60E871EA83E09CE1A50194010E940F
:1014A000811FD7010E94D81FE988FA88970140E080
:1014B00050E00E94811F80916201882369F0809131
:1014C000530190915401A0915501B091560182179A
:1014D0009307A407B50708F52093530130935401EF
:1014E00040935501509356019601A0E1B7E20E9446
:1014F000C21FA50194010E94811F30935A012093BD
:10150000590129853A85C988DA882C193D09309313
:1015100058012093570181E001C080E040915301C0
:10152000509154016091550170915601CD84DE8433
:10153000EF84F8884C155D056E057F0528F5C0928F
:101540005301D0925401E0925501F09256018D81E1
:101550009E818219930990935801809357012F819E
:101560003885A0E1B7E20E94C21F20911701309197
:10157000180140E050E00E94811F205F384D3093F9
:101580005A012093590103C0882309F489C39301A8
:10159000A0E1B7E20E94C21FA50194010E94811F31
:1015A00030935C0120935B012B853C85A0E1B7E281
:1015B0000E94C21FA50194010E94811F30935E0109
:1015C00020935D0181E06CC321E66216710408F08E
:1015D00075C031EDC31637E0D30608F46FC085E05F
:1015E0008093160182E180931501C60186509F4FBA
:1015F00049855A858417950720F483E18093150166
:101600001CC089859A85C816D90698F4A091100146
:10161000B09111019C012C193D090E94C21F960135
:1016200040E050E00E94811F309358012093570101
:1016300004C0109258011092570109810770842D3F
:10164000806480937C00BBE0FB2ECC24C394D12C1F
:1016500088248A9493E0992EA89561E0852D0E94B4
:101660005D10A4B886B18023E9F3E4B880917A00D4
:10167000806480937A0080917A0086FDFCCF80910F
:10168000780090917900D401A81BB90BCA0EDB1E1B
:10169000FA94F110E1CFC601880F991F880F991FA6
:1016A00069E070E00E946D1F70935E0160935D01C0
:1016B000809162018F5F8093620184CFB4B855B886
:1016C000812F0E94CC039E838D83842D0E94CE03A4
:1016D00098878F8340912B0150912C01481B590B07
:1016E0004A30510550F514B80E94B2038F2D8E294F
:1016F00084B9F5B8812F0E94CC039E838D83842DFD
:101700000E94CE0398878F832091100130911101A0
:1017100040E050E060E871EA83E09CE10E94811FB4
:10172000AD81BE810E94D81F20912B0130912C01E8
:10173000CF80D8842C193D0909C02D813E81241BFE
:10174000350BA4E6B0E00E94C21F9A0140E050E0D1
:101750000E94811F49015A01D980D7B818B8CB809F
:10176000C4B8C5B8888D0E94CC031C01842D0E948A
:10177000CE039A878987812F0E94CE039C0140E384
:10178000241641E1340608F0C8C105B9888D2D8BB7
:101790003E8B0E94CC03AC0104B9888D4B8B5C8BD3
:1017A0000E94CC036C0115B80E94B20305B9888D64
:1017B0000E94CC032D893E894B895C8960E4C61662
:1017C00066E0D60608F056C08133914108F452C055
:1017D000C1018A569F4F4817590708F04BC086E051
:1017E0008093160180914A018F5F80934A01898519
:1017F0009A85821B930B9093400180933F01221A9C
:10180000330A309246012092450114B815B8C980B8
:10181000C8B80E94B20304B9888D0E94CC03853FEA
:10182000910508F04CC2DB80D4B8842D0E94CC0313
:10183000813D934008F443C2888D0E94CE038D3DC4
:10184000924008F43CC204B9888D0E94CC038D3DBF
:10185000924008F434C205B90E94B20315B8888DCD
:101860000E94CC03853F910508F029C287E0809350
:10187000160125C2CB80C4B8C5B80E94B203F02AB5
:10188000F4B8F5B8888D0E94CC036C0120912B012F
:1018900030912C011901281A390A842D0E94CE0397
:1018A0009A87898720912B0130912C01A901481B2F
:1018B000590B5E874D87812F0E94CE039C838B83BB
:1018C0008D859E858E3F994008F4B3C084E0809357
:1018D00016018CE0809315016214730430F46101E9
:1018E000C618D708DA82C98202C03A82298280915A
:1018F0001701909118016C01E12CF12C60E871EA5C
:1019000083E09CE1A70196010E94811FA981BA8111
:101910000E94D81FAD85BE859D0140E050E00E9429
:10192000811F80914A01882369F080913B01909149
:101930003C01A0913D01B0913E0182179307A4079D
:10194000B50708F520933B0130933C0140933D01DE
:1019500050933E0189859A85EB81FC818E1B9F0BFC
:101960009093400180933F019101A0E1B7E20E9472
:10197000C21FA70196010E94811F3093420120934C
:10198000410181E001C080E040913B0150913C0168
:1019900060913D0170913E01481559056A057B052E
:1019A00028F580923B0190923C01A0923D01B092BB
:1019B0003E018F8198852D813E81821B930B9093F0
:1019C000400180933F01A0E1B7E20E94C21F209135
:1019D00010013091110140E050E00E94811F205F12
:1019E000384D309342012093410103C0882309F40C
:1019F00067C19301A0E1B7E20E94C21F20911001CC
:101A00003091110140E050E00E94811F3093440169
:101A1000209343012B853C85A0E1B7E20E94C21FC1
:101A2000A70196010E94811F309346012093450132
:101A300046C131E66316710408F06FC049E424160C
:101A40004DE0340608F469C085E08093160182E019
:101A5000809315018B819C8186509F4F8C159D052D
:101A600020F483E0809315011CC08B819C818C1530
:101A70009D0598F4A0911701B09118019601281BBB
:101A8000390B0E94C21F910140E050E00E94811F6B
:101A90003093400120933F0104C010924001109206
:101AA0003F019F899770E92E842D806480937C008C
:101AB000EBE0BE2ECC24C394D12CA89560E0852DFC
:101AC0000E945D10F4B8F5B886B18E21E9F704B92B
:101AD00080917A00806480937A0080917A0086FDFC
:101AE000FCCF8091780090917900C80ED91EBA94ED
:101AF000B110E3CFC601880F991F880F991F69E0C5
:101B000070E00E946D1F70934601609345018091C3
:101B10004A018F5F80934A01D2C017B818B814B831
:101B200015B817B8A7EC6A16A1E07A0608F4ACC09D
:101B300018B868ECF62ED980CF88DC28D7B80E9478
:101B4000B203C980C7B8888D0E94CE03429718F0AF
:101B5000FA94F110F3CF4E2C440C302E330C34B8E1
:101B600035B861E0852D0E945D10888D0E94CC0300
:101B70006C0144B815B8FF88F7B8F8B860E0852D57
:101B80000E945D1080902B0190902C01812F0E946B
:101B9000CC035C01E4B8888D0E94CC037C01812FCA
:101BA0000E94CE03E81AF90A18B8298127B904B9A6
:101BB00005B961E0852D0E945D10888D0E94CC03DF
:101BC0003C01812F0E94CE03681A790AE614F704BB
:101BD00038F434B835B8888D0E94CC03730117C02F
:101BE0006401CA18DB0844B815B83F8937B938B959
:101BF00060E0852D0E945D10A0902B01B0902C011B
:101C0000812F0E94CC03A501481B590BCA019701E3
:101C10002759310929383141B8F58E159F05A0F5AE
:101C2000C60153E0969587955A95E1F7893C910551
:101C300010F088EC90E08C0D9D1D8E159F0520F511
:101C4000C70144E0969587954A95E1F78C159D0567
:101C5000D8F480911601833018F483E08093160144
:101C600020911401822F90E0FC01E258FE4FC88CB5
:101C7000C0821683880F991FFC01E657FE4FF18240
:101C8000E0822F5F20931401612F888D0E946F0ED8
:101C900017B818B814B815B86896E2E10C94FF1F8D
:101CA000909162019F5F90936201882389F3409233
:101CB0005F0110936001D88CD0926101E9CF81E07F
:101CC00090914A019F5F90934A01882309F34092C3
:101CD0004701E88CE092480110934901D9CFA0E078
:101CE000B0E0E5E7FEE00C94E51FA895E62FF0E0F4
:101CF000E258FF4FB49033969491E82FF0E0E25809
:101D0000FF4FC4913396F4904091620120914A01B3
:101D100030E0240F311D232B09F0CAC1862E982EE6
:101D2000A89520911A0130911B01220F331F220F19
:101D3000331F30932C0120932B01209163013091AC
:101D40006401220F331F220F331F30932A01209387
:101D500029018EEB8093270118B897B9C4B9C5B98A
:101D6000D8E1C12CD12C882D0E94CC03782E692E6D
:101D7000892D0E94CE038C018C199D0997FF03C009
:101D800091958195910903972CF0A895D150680100
:101D900051F72CC0CC0F15B8C4B9892D0E94CC03C3
:101DA0008135910518F5C5B9892D0E94CC03EC0148
:101DB000F7B8F8B815B8B4B8A8E1AA2E412C512C40
:101DC000892D0E94CC036C01882D0E94CE037C01DA
:101DD0008419950997FF03C09195819591090397FF
:101DE000CCF0A895AA942701A110EACF80911A01FE
:101DF00090911B0190932C0180932B0180916301A2
:101E00009091640190932A018093290189E1809344
:101E100027014EC1BB0CB4B8882D0E94CC035C01D5
:101E2000003C84E4180728F4C53821E0D207F0F616
:101E300004C0C03B8DE4D807C8F694EAE91692E0E6
:101E4000F90608F065C028E9A216B10478F20091FD
:101E50002B0110912C019E01A8E9B7EB0E94C21F33
:101E600098012C1B3D0B40E050E00E94811F69014E
:101E70007A0198012A193B09A8E9B7EB0E94C21F11
:101E8000850120E030E0A90198010E94811FC83738
:101E9000DF4050F4F2E0CC0CDD1CEE1CFF1CFA9588
:101EA000D1F7CA01B90110C098E7A9169FE0B90699
:101EB000B0F4DA01C901E2E0880F991FAA1FBB1F25
:101EC000EA95D1F7BC01CD016C0D7D1D8E1D9F1DC6
:101ED00025E030E040E050E00E94811F0CC0DA01B4
:101EE000C9018C0D9D1DAE1DBF1D9C01AD015695F8
:101EF000479537952795A4E6B0E00E94D81F6B015F
:101F00007C012CEAC20E2DE0D21EE11CF11C78C02F
:101F1000272D362D0217130708F49801E701EC145A
:101F2000FD0408F4E60159012017310708F45801AF
:101F3000A0911701B0911801C501821B930B9C0160
:101F40000E94C21F20912B0130912C012A193B09BC
:101F500040E050E00E94811F29013A018E01EC16F9
:101F6000FD0608F48701A0911001B09111019E01B6
:101F7000201B310B0E94C21F6801E12CF12CA7012C
:101F800096010E94811F98E7A9169FE0B90680F488
:101F9000D301C20162E0880F991FAA1FBB1F6A9577
:101FA000D1F7BC01CD01620F731F841F951F13C0B1
:101FB00008378FE01807C0F4DA01C90132E0880F52
:101FC000991FAA1FBB1F3A95D1F7BC01CD01640D23
:101FD000751D861D971D25E030E040E050E00E9411
:101FE000811F69017A010CC0DA01C901840D951DB8
:101FF000A61DB71D6C017D01F694E794D794C79494
:1020000010911601143008F0F1CE9A94890C282D05
:1020100030E0E901C35BDE4F8881220F331F220FBE
:10202000331FF901E956FE4F8823D9F140805180D2
:1020300062807380A7019601241935094609570962
:1020400057FF07C050954095309521953F4F4F4F12
:102050005F4FAAE0B0E00E94D81F24E6420E511C58
:10206000611C711CA30192012C0D3D1D4E1D5F1DB5
:102070000E94811F232B242B252B09F0B7CE133070
:1020800019F081E08093160182E0888380916501D8
:10209000E82FF0E0E05BFE4F80828F5F8093650168
:1020A000A5CEC082D182E282F38281E088839ECE77
:1020B000CDB7DEB7E0E10C940120CF93C82FC095D7
:1020C00095B160FF02C0982B01C09C2395B994B1D3
:1020D000892B84B90E94B10384B18C2384B985B162
:1020E0008C2385B9CF910895A0E0B0E0EAE7F0E154
:1020F0000C94EC1F1AE00FE389E0B82E17B818B85B
:1021000015B804B980E00E94CC037C0181E00E94F4
:10211000CE03EC0182E00E94CE039C018091160167
:10212000893059F084E0E816F10450F4C430D10548
:1021300078F42430310508F054C017B814B853C0EF
:1021400091E088EEE81683E0F80618F090E001C010
:1021500091E0C83ED34008F49260283E334008F432
:10216000946097B9C0E0D0E0A89580E00E94C803D1
:102170006C0181E00E94CE037C0182E00E94CE03CC
:1021800024E1C21625E0D20608F4389A24E1E216CA
:1021900025E0F20608F4399A843125E0920708F424
:1021A0003A9A26E0C216D10430F426E0E216F10491
:1021B00010F4069738F02196C43F81E0D807A1F6C5
:1021C000B0921601E12CF12CEC16FD0631F00E94C4
:1021D000B7032FEFE21AF20AF7CF115009F08ECFB2
:1021E00002C091E0B9CFCDB7DEB7E9E00C9408208A
:1021F000CF92DF92EF92FF92CF93209168013091BE
:10220000690140916A0150916B01C0917A018AE0A5
:10221000C82ED12CE12CF12C8C2FCF5F213A96E8DF
:10222000390791E04907510538F0CA01B901A70102
:1022300096010E94811FF0CF80937A01A0912B011B
:10224000B0912C010E94D81F28E833E140E050E013
:102250000E94811F209368013093690140936A01B5
:1022600050936B01CF91FF90EF90DF90CF90089546
:102270008F929F92AF92BF92CF92DF92FF920F9375
:102280001F93CF93DF932FEF260F982F990F980F5F
:10229000920F90934C01E82FF0E0E258FF4F049129
:1022A000262F30E0F901E258FF4FD490F901EF57A3
:1022B000FF4FA49090911601913009F454C290916F
:1022C000140144E851E0EEE7F1E0DA012A2F241B83
:1022D000291790F42D9126130DC09D012750310927
:1022E000E9012881281306C0248535852C3D354019
:1022F00008F439C23296EACFF62E182F10927501E3
:102300001092740181EF80937A011092680110920B
:10231000690110926A0110926B010E94741018B842
:10232000A7B8D4B8D5B8812F0E94CE036C018F2DE9
:102330000E94CE03C81AD90A14B8C0E0D0E005B98B
:1023400004B90E94B10314B815B80E94B803A89547
:10235000812F0E94CE034C018C189D08CE37D105E9
:1023600028F02BE4821691040CF472C07DE28716EB
:1023700071E0970634F42196C43F81E0D807F9F65E
:1023800067C0209709F069C025E1821625E0920612
:102390000CF463C00E94741015B887E087B918B8B0
:1023A000B02EBB0CB4B880E480937B0084E580BF82
:1023B000812F806480937C0086E180937A000E9464
:1023C000BB0310928000109285001092840087E277
:1023D00086BBB5B880911601853009F0B4C081E0A4
:1023E0008093810081E090E0012E01C0880F0A9463
:1023F000EAF78095877087B991E086B385FFA8C01A
:102400001092810090E296BBC0908600D090870029
:102410002091840030918500C216D30608F4A3C031
:1024200086E980937A0014B815B8812F0E94CE03F4
:1024300020912F0130913001821B930B0C969093C9
:102440007D0180937C01C03273E0D70708F491C00E
:1024500017B818B814B815B886C1A12CB12C0E94B1
:10246000B203812F0E94CE03A8957FEFA71AB70A67
:10247000CA15DB05A0F78C199D095401A81AB90AE1
:102480001A141B0494F489ECA816B1040CF728EE76
:1024900033E0D5010E94D11F9401092C000C440B9C
:1024A000550B0E94811F690102C0C12CD12C2196BD
:1024B000CE01A0E0B0E08093700190937101A093F1
:1024C0007201B0937301C4018A0D9B1D0E94BF135A
:1024D000209170013091710140917201509173010E
:1024E000DC010E94D81F609370017093710180938A
:1024F00072019093730160936801709369018093F6
:102500006A0190936B0187EF80937A010E94F81023
:10251000209168013091690140916A0150916B01ED
:10252000A8EEB3E00E94D81F24E630E040E050E07F
:102530000E94811F209368013093690140936A01D2
:1025400050936B01CBC081E080938100A7B854CF3A
:1025500080FF53CF96BBA8952196C03426E0D207C2
:1025600009F04BCF4DCF80FF5BCF81E086BB21963A
:1025700057CFD0937301C0937201D0927101C09272
:10258000700184EF80937A01C234D105C8F0609164
:10259000700170917101809172019091730124E634
:1025A00030E040E050E00E94811F209370013093A2
:1025B0007101409372015093730186EF80937A0109
:1025C000A0916601B0916701209170013091710175
:1025D00040917201509173010E94D81F20E233E0B4
:1025E00040E050E00E94811F209370013093710100
:1025F00040937201509373012093680130936901F5
:1026000040936A0150936B010E94F81080917A0107
:10261000843F09F053C08090680190906901A090B8
:102620006A01B0906B0180EA88168FE09806A104D9
:10263000B104C0F4A501940124523F4F4F4F5F4FA6
:1026400060EA7FE080E090E00E94811F820E931E8E
:10265000A41EB51E8092680190926901A0926A0141
:10266000B0926B0180914C0190E080539E4F0E948C
:102670004F20409168015091690160916A01709109
:102680006B0190E0A0E0B0E084179507A607B707BC
:1026900068F4481B590B6A0B7B0B409368015093FD
:1026A000690160936A0170936B0108C01092680120
:1026B0001092690110926A0110926B0104B9809125
:1026C000680190916901A0916A01B0916B014997ED
:1026D000A105B10508F4BCCEC12CD12C8091140108
:1026E000882329F080911601853009F0B1CE88E069
:1026F0008093160180917A0190917B019817C4F024
:102700008913A6CE8090680190906901A0906A011B
:10271000B0906B0140916C0150916D0160916E0120
:1027200070916F01481559056A057B0508F090CE38
:10273000409168015091690160916A0170916B014B
:1027400040936C0150936D0160936E0170936F0123
:1027500080937B01D0927701C0927601F09278014C
:102760001093790175CEDF91CF911F910F91FF905A
:10277000DF90CF90BF90AF909F908F9008950F9271
:1027800021E08C32920710F48CE291E08C5291405F
:1027900069E170E00E946D1F99E16B3210F0982F93
:1027A0006BE2981BE2E7F1E0E60FF11DE60FF11D89
:1027B0009F93CF010E944F20482F3196CF010E9456
:1027C0004F20582F3196CF010E944F20282F31964D
:1027D000CF010E944F20382F6F91421B530B649FF3
:1027E000C001659F900D11240C9669E170E00E9474
:1027F0006D1F620F731FCB010F900895A0E0B0E032
:10280000E4E0F4E10C94E91F88E893E190931B0164
:1028100080931A0190932C0180932B018EEB80936F
:10282000270118B880E187B90E94C00317B884E077
:102830000E94CC03AC018B5C9840833F9140A0F494
:1028400081E08093360120912B0130912C01AFEB78
:10285000B9E00E94C21F9A0140E050E00E94811F2F
:1028600030931B0120931A0180911A0190911B0152
:1028700090932C0180932B018EE00E94CE038EE07A
:102880000E94CC039093300180932F010E94820418
:102890000E94741018B8C1E0C7B985E185B9C4B900
:1028A00080E00E94CC038C0182E0F82EF7B8D4E0DF
:1028B000D4B981E00E94CC03080F191FD7B990E169
:1028C000992E94B882E00E94CC03080F191F15B806
:1028D000C8B9C7B9C4B9C0902B01D0902C0180E011
:1028E0000E94CC035C01F8B8F7B8D4B980912B01F1
:1028F00090912C017601E80EF91E81E00E94CC0334
:102900006C01D8B9D7B994B820912B0130912C0122
:10291000E701C20FD31FCA19DB0982E00E94CC0372
:10292000CC19DD09C81BD90B17B818B814B84091D9
:102930002B0150912C016A01CC0CDD1CC40ED51E5C
:10294000C01AD10ACC1ADD0AE12CF12C9801A0E9B9
:10295000BAE10E94C21FA70196010E94811F49018E
:102960005A0130933501209334019E01A0E9BAE168
:102970000E94C21FA70196010E94811F30932E0161
:1029800020932D012057354E3093180120931701C5
:1029900080E7881A85EE980A9092110180921001C2
:1029A00089E180932701CDB7DEB7ECE00C940520D8
:1029B0000F93CF93C62F0E94D90080E690E00E942B
:1029C00056010E94A5158091010187FF04C08CE586
:1029D00090E00E9456018C2F0E94D9000E94C301F2
:1029E00080E00E94EC01809150010E94640280917D
:1029F00001018E3F94F488E790E00E9456016091B7
:102A0000090170910A0180910B0190910C0103E082
:102A100028E4409101010E94D202CF910F910895C4
:102A20000F93CF93DF930E94FE00809178010E9464
:102A3000D90084E990E00E9456010E9493196091A8
:102A40007801809179010E94DD1790937501809340
:102A50007401D1E08A3F9F4F08F0D0E0C1E080913F
:102A6000760190917701892B09F4C0E0DD2331F0E4
:102A7000C11104C081E690E00E9456018091790165
:102A80000E94D9008091760190917701892B69F09D
:102A90008BE790E00E94560122E045E26FEF8091C3
:102AA0007601909177010E948B030E94C3010E94DE
:102AB000060160916C0170916D0180916E019091A1
:102AC0006F0104E026E440917B010E94D202DD23E5
:102AD00069F083E890E00E94560122E044EF6EEF37
:102AE00080917401909175010E948B030E94C30133
:102AF000CC2391F080E00E94EC018CE790E00E94F2
:102B0000560122E045E26FEF8091760190917701C6
:102B10000E948B030E94C301DF91CF910F91089512
:102B20008F7041F40E94A7030E9406010E9433089F
:102B30000E94A60308958F3021F4909131019130C5
:102B400011F08F5F089580E00895A8E1B0E0EBEA0E
:102B5000F5E10C94E31F82E080930101809116015E
:102B6000813009F026C280916501813009F021C2CF
:102B700020915001298B34E0239FF0011124E95664
:102B8000FE4F408051806280738049E0441642E5E8
:102B900054066104710408F00CC25B8A4A8A10E092
:102BA0008989123028F40E945A02B82EA92E03C037
:102BB0000E945A025C01EA2DF0E0EF57FF4F24918A
:102BC0008B2D90E0FC01E258FF4FE49115B818B846
:102BD00050EF4516510461047104B0F410FD14C0A7
:102BE000209010013090110130E9231A3AE1330AA4
:102BF00041E050E00B2C02C0440F551F0A94E2F74D
:102C0000CA01822B87B906C0E4B927B92090100108
:102C10003090110104E18B2D288F0E94CA034C01D2
:102C20008A2D0E94CE03288D54E08516910410F45D
:102C3000049710F0015079F780E480937B0094E5CD
:102C400090BF8B2D806480937C0036E130937A00B6
:102C5000E12CF12C109280001092850010928400DB
:102C600087E286BB288F0E94BB03012F0170288D4D
:102C700010FD05C081E88093810028B908C028B9FB
:102C80000E94C40380E286BB81E88093810086B302
:102C900085FD0CC080FFFBCF41E046BBA8959701A6
:102CA0002F5F3F4F79012035310589F718B8109211
:102CB000810090E296BB20918600309187006901E7
:102CC00040918400509185002417350738F480FF27
:102CD00005C051E056BB8FEFE81AF80A86E98093E9
:102CE0007A0024E18B2D288F0E94CA034C018A2D83
:102CF0000E94CE03288D34E08316910410F40497CB
:102D000010F0215079F780903401909035014A8974
:102D10005B89840E951E820C931C209112013091C8
:102D2000130150E925165AE13506B0F481EEC816B4
:102D3000D104E104F10438F4C60165E070E00E94BA
:102D40006D1F645101C069E128523109261B310908
:102D500067FD339586E009C0C40160EB76E30E940D
:102D60006D1F87E0860F285D3F4F90E0A0E0B0E048
:102D70008C159D05AE05BF0528F4C81AD90AEA0AC4
:102D8000FB0A03C0C12CD12C7601002329F092E26A
:102D9000C90ED11CE11CF11C40E5E416F10418F049
:102DA000C12CD12C76015BE0C516D104E104F104FD
:102DB00028F081E0C81AD108E108F10840912B0100
:102DC00050912C01A12CB12CA8EEB3E00E94C21F9F
:102DD0006C8B7D8B8E8B9F8B9101DA010E94C21FC1
:102DE000A50194010E94811F442755276C897D8984
:102DF0008E899F890E94811FC9010E94DA04FC010B
:102E0000A5019401C701B6010E94511F4B015C014D
:102E1000CF01A0E0B0E073E0880F991FAA1FBB1F8D
:102E20007A95D1F7BC01CD016B5F7F4F8F4F9F4FDC
:102E30002AE030E040E050E00E94811FC501B4016B
:102E40000E94811FE12FF0E0A1E0B0E0AC0FBD1FB8
:102E500094E0199FA00DB11D11242D933D934D9326
:102E60005C931397011116C08CE0C816D104E104DD
:102E7000F10480F03196EE0FFF1FEE0FFF1F81E08F
:102E800090E08C0F9D1FE80FF91F20833183428350
:102E900053831F5FA8951F5F143008F481CE18B8C4
:102EA0000E94B00391E00D811E812F8138854981F8
:102EB0005A816B817C81401751076207730708F0C4
:102EC00090E00D851E852F85388949855A856B854B
:102ED0007C85401751076207730710F483E001C037
:102EE00082E0E92FF0E0EE0FFF1FEE0FFF1F21E061
:102EF00030E02C0F3D1FE20FF31FD90134E0839F18
:102F0000A00DB11D11240D911D912D913C91408179
:102F1000518162817381041715072607370708F06E
:102F2000892FE1E0F0E0EC0FFD1F44E0849FE00D0D
:102F3000F11D112440815181628173814093090107
:102F400050930A0160930B0170930C0180FD0AC03D
:102F500080EF481651046104710420F48BEF8093D4
:102F6000010117C08CEF80930101CB01BA016B5FA7
:102F70007F4F8F4F9F4F2AE030E040E050E00E94AB
:102F8000811F2093090130930A0140930B01509354
:102F90000C018091090190910A01A0910B01B0915F
:102FA0000C01892B8A2B8B2B11F41092010117B87D
:102FB00014B86896E2E10C94FF1FAEE1B0E0E3EED6
:102FC000F7E10C94E31F662EB82E860F89832091BB
:102FD0001601283059F520916C0130916D01409116
:102FE0006E0150916F0157FD15C010917B0109C012
:102FF000CA01B9012AE0312D412D512D0E94811FB6
:103000001F5F173FACF391F42A3560E036074105A6
:10301000510518F48FEF9FEF82C1173F39F480E01C
:1030200028178DE738074105410510F020E03DE7FE
:103030002C8B3D8B26EDA22E02C094EDA92EE1E84B
:10304000F0E0E60DF11D859180608E87E1E8F0E00B
:10305000EB0DF11D859180608F87EEE7F0E0E60DC6
:10306000F11D7590EEE7F0E0EB0DF11DC59090ECD1
:10307000692AB92A81E0E82EF12C012D112D8E83C9
:103080001F82188619861A861B861C861D86188E36
:10309000198E1B8E1A8E0E94741080E088B960927F
:1030A0007C000E94BC033F8537B975B874B80E9494
:1030B000C30314B815B8DD24B4ED9B2EA6ED8A2EFB
:1030C0003E8537B975B874B860927C00A895A09217
:1030D0007A0080917A0086FDFCCFA0927A008091E0
:1030E0007A0086FDFCCF2090780030907900B09275
:1030F0007C00A0927A0080917A0086FDFCCF8092BD
:103100007A000E94C1030E94C303C5B8C4B80E94DC
:10311000C2030E94C403A895A895A895A89514B8C1
:1031200015B880917A0086FDFCCF2091780030910F
:103130007900288B398B3F8537B9C5B8C4B8A895B5
:10314000B0927C00A0927A0080917A0086FDFCCF3C
:10315000A0927A0080917A0086FDFCCF6091780081
:103160007091790060927C00A0927A0080917A0040
:1031700086FDFCCF80927A000E94C1030E94C303A7
:1031800075B874B80E94C2030E94C403A895A8959C
:10319000A895A89514B815B880917A0086FDFCCF43
:1031A000409178005091790014B8CB01820D931DA5
:1031B000E80EF91E011D111DEA82FB820C831D839E
:1031C00088899989840F951F2E813F81688579852B
:1031D000280F391F611D711D2E833F8368877987F2
:1031E00022E32417150650F075B874B80E94C60380
:1031F00014B815B8888D8395888F07C0483E73E052
:10320000570718F08A8D83958A8F8889998928179E
:10321000190660F03E8537B9C5B8C4B80E94C60328
:1032200014B815B8898D8395898F07C0883E73E0DF
:10323000970718F08B8D83958B8FD3945D2D5F3F0F
:1032400009F03ECF4090340150903501440C551C9C
:103250009201E4E0240D351DEA95E1F729015701BB
:1032600068016E807F8088849984209116012830BF
:10327000C1F46C897D89812D912D6C537040804003
:1032800090409B01AC010E94511F9B01AC016FEF6C
:1032900071EC8EE390E00E94811F621A730A840A27
:1032A000950AA614B704C804D90428F46A187B0840
:1032B0008C089D0803C0662477244301B20180E096
:1032C00090E09301A4010E94511F9501A6010E9464
:1032D000811F8CEC91E07981870F911D0E944F2016
:1032E00090E0682EC90160E170E00E946D1F260F1A
:1032F000371FC9016816190618F4861991090FC0FD
:103300008C5E9F4F8615910540F48C899D89843988
:1033100081E1980710F00E94DA07812D912D6E96B9
:10332000E2E10C94FF1F8F929F92AF92BF92EF92B7
:10333000FF920F931F93CF93DF9300D000D0CDB7B0
:10334000DEB78091760190917701892B09F0B6C0A4
:10335000E0917801F0E0EF57FF4F1491E09179018F
:10336000F0E0E258FF4FF4900E94741018B815B8BE
:1033700017B9F4B8809179010E94CE038C01209195
:103380007B018CE0820F843008F098C080916C0142
:1033900090916D01A0916E01B0916F013FE0E32E1D
:1033A000E20E4AE0842E912CA12CB12CBC01CD015F
:1033B0006B5F7F4F8F4F9F4FA50194010E94811F2C
:1033C000DA01C901E39467E0E612F0CF293863E13E
:1033D00036074105510508F071C02530310508F464
:1033E0006DC0F5B8F4B8E12CF12CE216F30670F4D8
:1033F00029833A834B835C830E94C20382E0E80EF8
:10340000F11C5C814B813A812981EFCF14B815B84A
:10341000A89585E0809327018091790129833A83DB
:103420004B835C830E94CE0329813A814B815C816E
:103430000817190720F47C01E01AF10A02C0E12CF8
:10344000F12CA12CB12CA216B30670F429833A8377
:103450004B835C830E94C2036FEFA61AB60A5C819D
:103460004B813A812981EFCF809179010E94CE036F
:1034700029E120932701A8950817190718F4801B44
:10348000910B02C080E090E08E159F0588F49701B3
:10349000281B390B69F0A4EFB1E00E94C21F97010D
:1034A00040E050E00E94811F309377012093760125
:1034B0000E94741017B818B814B815B80F900F9070
:1034C0000F900F90DF91CF911F910F91FF90EF9090
:1034D000BF90AF909F908F9008950895A0E0B0E0C6
:1034E000E4E7FAE10C94E31F80E48AB98BB986E83B
:1034F00080937A000E94A803C4B784B7877F84BFF3
:103500000FB6F894A8958091600088618093600060
:10351000109260000FBE78940E947C01C3FDB1C47C
:1035200080E185BFC0E04F9905C00E94B103CF5F25
:10353000CC33C9F78FE59DE690930F0180930E0180
:10354000CF3130F080E69DE690930F0180930E011D
:10355000109228010E94FE139FE088E10FB6F894B4
:10356000A895809360000FBE909360005EE7C52E23
:1035700051E0D52E6BE3A62E61E0B62E73E5E72E63
:1035800071E0F72E9DE0992E10E123E3822E31E2C7
:10359000732E42E1642E0E94330117B80E94F90491
:1035A0000E94FE130E94FE000E94330880913601A3
:1035B000882379F00E94060189E890E00E94560174
:1035C00063E080912B0190912C010E9497030E944F
:1035D000A7030E9406010E94741080911601893091
:1035E00061F40E9433018EE890E00E9456010E942F
:1035F000A60381E10E94700533C48CE00E94F700AD
:1036000083ED91E00E944F20C82F80ED91E00E9451
:103610004F20C81BC0933301CC2319F08EE00E94C9
:10362000F70081E00E9470050E94060187E691E0A4
:103630000E94560142E061E080E00E94800842E082
:1036400060E081E00E94800841E062E080E00E944A
:10365000800841E060E082E00E94800840E062E093
:1036600081E00E94800840E061E082E00E948008E2
:1036700080911601811111C083E40E94CD000E9447
:10368000741060E082E00E94381161E082E00E94E4
:10369000381160E081E00E9438110E943301B0923D
:1036A0003901A092380180911601863041F48EE3F1
:1036B00091E00E94560141E467E483E409C0873049
:1036C000B9F487E491E00E94560142E367E481E3A4
:1036D0000E9433020E94060182EA90E00E94560195
:1036E00062E080913F01909140010E949703B8C32E
:1036F000883019F40E941015B3C3833009F0E1C07B
:1037000080911401813009F041C090917E01809137
:103710008401981750F4892F0E94D9008EE690E01A
:103720000E9456018091840108C00E94D9008AE657
:1037300090E00E94560180917E010E94D900609124
:103740007E01809184010E94EC0780E70E9499022B
:1037500060917E01809184010E94381180917A01EC
:103760008D3F0CF0DDC289EB90E00E945601609124
:1037700068017091690180916A0190916B0102E08A
:1037800026E440917A010E94D202CAC2823009F036
:1037900047C082E30E94CD0085E690E00E9456017A
:1037A00080917E0120917F01821313C0809184015A
:1037B0000E94D9008AE690E00E94560180917E0125
:1037C0000E94D9008EE690E00E945601809185010A
:1037D00016C03091840190918501391316C00E9462
:1037E000D9008EE690E00E945601809184010E94EB
:1037F000D9008AE690E00E94560180917F010E94E4
:10380000D90081E00E9499028BC2321304C081E08A
:1038100080930D0135C098133EC010930D0130C048
:103820008330C9F580920D018091840190917F01D0
:10383000891303C021E020930D0140917E01309156
:103840008501431302C010930D0120918001821362
:1038500003C082E080930D0180918601481303C06C
:1038600040E240930D0132130EC060920D01981793
:1038700061F083E30E94CD0085E690E00E9456014E
:103880000E94AF024DC2981302C070920D01809148
:103890000D01823270F38DE491E00E94560185E3C0
:1038A00091E00E9456010E94060189E191E00E9488
:1038B000560180911401805D0E94CD008EE690E05B
:1038C000CAC2843009F054C1809162018823A1F1F9
:1038D00080914A01882381F16091470180914901DB
:1038E0000E943811209068013090690140906A016F
:1038F00050906B01C0917A016091610180915F01EC
:103900000E94381180917A01C8130EC0809168011D
:1039100090916901A0916A01B0916B012816390656
:103920004A065B0618F005C0C8171CF490921501F2
:1039300003C08CE08093150180916201882361F0BF
:1039400080914A01882341F04F9906C0909115015A
:1039500081E0892780931501809115018C3051F405
:1039600085EB90E00E94560180916201882389F0E6
:1039700080E70DC0F0923901E092380181EB90E0D0
:103980000E94560180914A01882319F08EE60E9418
:10399000CD000E94DD0090911401A0913801B091FA
:1039A0003901EEE7F1E04E2E4C18491650F5219101
:1039B0001C968C911C972817B1F32581281799F331
:1039C0008091150131E020E08C3039F4909148016C
:1039D00080914901891740F006C090916001809163
:1039E0006101981708F030E0832F922FD32F892B95
:1039F00019F08EE690E002C08AE690E00E9456013F
:103A000003C084E1482ED0E043E462E485E40E94F0
:103A100033020E9406018FEB90E00E945601E09174
:103A20003801F0913901608171818281938103E0D5
:103A300020E04EEF0E94D2020E94DD0089E40E9445
:103A4000CD00E0913801F091390186819781803174
:103A5000974270F085E60E94CD00E0913801F09128
:103A6000390186819781805197429783868303C06D
:103A700083E60E94CD000E94F300E0913801F091AE
:103A8000390122E041E46AEF868197810E948B032D
:103A900080E00E94EC0186EA90E00E945601E091ED
:103AA0003801F091390163E0848195810E94970388
:103AB000E0913801F091390180859185892B91F051
:103AC00080E00E94EC018EE890E00E944701E091C6
:103AD0003801F091390123E041E46AEF8085918556
:103AE0000E948B03E0913801F09139018285938522
:103AF000892B91F080E00E94EC0188E890E00E9420
:103B00004701E0913801F091390123E041E46AEF87
:103B1000828593850E948B0334E0341508F4A0C19C
:103B200080E00E94EC01842D90E0DD2361F0EC0147
:103B3000C258DE4F88810E94D9008EE690E00E9434
:103B400056018E810BC0EC01C258DE4F8E810E945F
:103B5000D9008AE690E00E94560188810E94D9002F
:103B60000E94DD0082EA90E00E945601842DD5C0BB
:103B7000853009F0EDC08091150184FF08C080E513
:103B80000E94CD00F0923901E092380103C08EE42A
:103B90000E94CD008DE20E94CD0080911501C82FBA
:103BA000CF70C43019F488EC90E013C085FF02C0D8
:103BB00084E401C085E40E94CD00C33041F482EC6E
:103BC00090E00E94560143E467E485E407C08DEC71
:103BD00090E00E94560144E467E483E50E943302CA
:103BE0009091140180911501913081F4C1E084FF1E
:103BF00007C02091600190916101291740F006C033
:103C00002091480190914901921708F0C0E085FD8C
:103C10002CC00E940601E0913801F09139016685BF
:103C200084850E9438110E9400028DE990E00E9474
:103C30005601E0913801F091390162E08285938567
:103C40000E94970380E00E94EC0180E390E00E94D4
:103C50005601E0913801F091390122E044EF6FEF15
:103C6000848195810E948B0330C08F70843069F00D
:103C700080E00E94CA01E0913801F0913901668527
:103C800084850E9438110E94000280E00E94EC01AD
:103C900089E40E94CD000E94F300E0913801F09188
:103CA000390122E041E46AEF868197810E948B030B
:103CB00088E990E00E945601E0913801F0913901C5
:103CC00062E0828593850E94970380911401813080
:103CD00009F0C6C080E00E94EC01CC2359F080912D
:103CE0007E010E94D9008EE690E00E9456018091EC
:103CF00084010AC0809184010E94D9008AE690E084
:103D00000E94560180917E010E94D9000E94DD0030
:103D100082EA90E00E94560180E00E948B02A0C0DF
:103D200080916501882309F49BC017B980910E0129
:103D300090910F010E942A0417B80E9433018091CC
:103D40001401805D0E94CD0085E690E00E9456013E
:103D500020916501222309F472C080915001213025
:103D600039F40E945A0240E0692F0E94D81478C0AA
:103D70009091510144E0949FD0011124A956BE4F67
:103D800034E0839FF0011124E956FE4F2D903D90C1
:103D90004D905C9040815181628173814215530541
:103DA0006405750510F4C92F01C0C82F223021F415
:103DB000890FC3E0C81B1CC08091520144E0849F5E
:103DC000D0011124A956BE4F94E0C99FF0011124DF
:103DD000E956FE4F2D903D904D905C904081518171
:103DE00062817381421553056405750508F4C82F77
:103DF0004C2E4694D2E0DC1BC11102C001E001C090
:103E000002E0842D0E94D90080E690E00E945601D5
:103E10008D2F0E94D90080E690E00E945601802FED
:103E20000E94D90080E00E94CA0181E0C11180E0B7
:103E30000E94640282E084190E94640211C085E23B
:103E400091E00E9456010E94060182E591E00E94E5
:103E500056018DE491E00E94560180E49FE104C088
:103E600080910E0190910F0117B94F9BFECF0E94D8
:103E70002A04811190CB5E9880E090E00E942A0491
:103E800081CB0E94FE0080E191E00E9456010E94D9
:103E9000A5035E9880E090E0CDB7DEB7E2E10C9438
:103EA000FF1FDB018F939F930E94D81FBF91AF919B
:103EB000A29F800D911DA39F900DB29F900D112484
:103EC0000895991B79E004C0991F961708F0961B76
:103ED000881F7A95C9F780950895AA1BBB1B51E1ED
:103EE00007C0AA1FBB1FA617B70710F0A61BB70B6A
:103EF000881F991F5A95A9F780959095BC01CD010F
:103F00000895A1E21A2EAA1BBB1BFD010DC0AA1F1A
:103F1000BB1FEE1FFF1FA217B307E407F50720F032
:103F2000A21BB30BE40BF50B661F771F881F991FAD
:103F30001A9469F760957095809590959B01AC01F6
:103F4000BD01CF010895052E97FB1EF400940E9439
:103F5000BA1F57FD07D00E94811F07FC03D04EF403
:103F60000C94BA1F50954095309521953F4F4F4F77
:103F70005F4F089590958095709561957F4F8F4F15
:103F80009F4F0895A29FB001B39FC001A39F700DE2
:103F9000811D1124911DB29F700D811D1124911D51
:103FA00008950E94C21FB7FF0895821B930B0895C6
:103FB0000E94C21FA59F900DB49F900DA49F800DDD
:103FC000911D112408952F923F924F925F926F920C
:103FD0007F928F929F92AF92BF92CF92DF92EF9299
:103FE000FF920F931F93CF93DF93CDB7DEB7CA1B1A
:103FF000DB0B0FB6F894DEBF0FBECDBF09942A8845
:10400000398848885F846E847D848C849B84AA84EC
:10401000B984C884DF80EE80FD800C811B81AA8179
:10402000B981CE0FD11D0FB6F894DEBF0FBECDBF44
:10403000ED0108954532510520F4423010F00C9402
:104040002520FB011082CB010895BB27FB015527DA
:10405000AA27880F991FAA1FA41710F0A41B8395E5
:104060005051B9F7A05DAA3308F0A95DA19300975C
:1040700079F7B111B1931192CB010C943F20DC017F
:10408000FC01672F71917723E1F7329704C07C918F
:104090006D9370836291AE17BF07C8F30895F999C5
:1040A000FECF92BD81BDF89A992780B50895262F3D
:1040B000F999FECF1FBA92BD81BD20BD0FB6F8940D
:1040C000FA9AF99A0FBE019608950E945720272F59
:0840D0000C945820F894FFCF76
:00000001FF
