:100000000C942C080C943E080C943E080C943E086A
:100010000C943E080C946C270C943E080C94960E9D
:100020000C943E080C943E080C94C11D0C9450276F
:100030000C945E270C949B1D0C943E080C943E0877
:100040000C942A270C943E080C943E080C943E080D
:100050000C943E080C94970E0C943E080C943E08A9
:100060000C943E080C943E081B0A1D0A210A2B0A18
:10007000290A250A250A270A310A310AC200BB00CB
:10008000B4001008407E01013E01013E01013E0125
:10009000017E404018000720080808F800000020F2
:1000A00060A03FA06020020202FF020202101010B6
:1000B0001F000000050842818989760508C2A191C8
:1000C00089860508000402FF0010100508F878383A
:1000D0005888091003081C3E7F0D080710FF818116
:1000E00081F1E1C1FF4040404743410D080110FF4D
:1000F000FF11080310F1E1C14743410E0008202120
:1001000021122060E0E0E0FEFE0402010001037F16
:100110007F21C2C4C4C04094840007030102040EBE
:10012000080210FEFE7F7F00000000110005202065
:1001300060E0E0E00201000103C2C4C4C040070364
:10014000010204010410090A0C4865FF6F9F9A61BF
:100150009B9892706F93619D21109BA7FF97619E62
:1001600079639A61209A619B9892706F939A982014
:1001700097619A6F706F9F989F65FF9F7098209A04
:100180006F9D9F619A9F61FF98209D61969C989FAB
:1001900065FF9A9D6F9E9A79202254455354222ED2
:1001A00020886F139F93657013989F652050659604
:1001B000989CFF63619C6F9F65639F6120886F932C
:1001C0009F6F709D6FFF9D619661932054455354BE
:1001D000FF93FF9F65A0659D98982032632EFF5086
:1001E00061639A6F706F9F989F65209A6F9D9F6162
:1001F0009A9FA3FF9A6F941361206F9F6F92706113
:100200009661659F63A7202285976F9BA71598A786
:10021000212220886F139A9BA6A0989F65209A6F31
:100220009D13659D63619F6F70203130306E46FF76
:10023000989B98FF926F9B6565209AFF22545031DE
:1002400022FF98FF2254503322209A6F941361FFAB
:10025000636F6F9216659D986520223108030833FD
:10026000FF3E3130306E4622206F9F6F9270619654
:1002700061659F63A72E2088706F9470619C9C7944
:10028000FF9820136F9A799C659D9F611598A62011
:10029000639C2EFF9D6120687474703A2F2F206D2F
:1002A000696B726F636F6E74726F6C6C65722E2007
:1002B0006E65742F7472616E736973746F722074DB
:1002C00065737465722000B903870358032E030712
:1002D00003E402C302A40288020000140029003EC5
:1002E000005300690080009700AE00C600DF00F8F0
:1002F0000012012D01490165018201A001BE01DE4C
:1003000001FF012102440268028E02B502DE0209E9
:1003100003350364039403C803FE0337047304B472
:1003200004F90443059305EA054906B3062907AE17
:10033000074808FF08DE0900000000000000000078
:10034000000000000000001E2121211200807F001B
:1003500000007E4A4A4A34000000000000FC4020B1
:100360001008040201000000010101010101010166
:1003700001010101017F0488D0E0F0F800000000D5
:100380000000000000000000000000000000FC94DD
:10039000948400000102FC00000000000000000046
:1003A0000000001E21212112E0C0804020100F001B
:1003B0000000C020202040000000FC00009E9E04A1
:1003C000030303030200000020202324252523200B
:1003D00020203F00007B7B2142840480C00000007D
:1003E0000000000000000000000000FC9494840065
:1003F000040607070708F0000000000000000000E6
:1004000000000000803F2121120C00000000FF00CE
:100410000000F0084848C80000FE0000E781818124
:10042000C1E1F181818101002020202121212020B2
:10043000203F0000F340404041434740407FC00020
:10044000000000000000000000000000004894943C
:10045000946400000000FF000000000000000000A5
:10046000000000000000003F2121120C0000FF00EE
:100470000000F0084848D0000000000000FEFE0424
:10048000040404040404070008080809090908080A
:100490007F3E1C08087F7F20202020202020E000B5
:1004A0000000000000000000000000000000004804
:1004B000949494640000FF0000000000000000001D
:1004C0000000FF003C0A090A3C00223129292600CD
:1004D0000082868E9EBEFEFEBEDEEFF6FAFEFEFABD
:1004E000F2E2C28200000008080804027984A4A491
:1004F0006800FF0000000000000000000000000095
:1005000000000000000000000000FF0000F02824B0
:1005100028F0001008FC00000000000000000000AF
:1005200000003C0A090A3C00FF0000000000000037
:100530000000000000000000000000040C1C3C7CD7
:10054000FF7C3C1C0C040000000000009EA1A9A937
:100550009A804323130B0703FF03030303030300E2
:10056000000000000000000000007884848448003F
:10057000FF000000000000000000F00804E2110984
:1005800009090909090909091121C2040810E00033
:100590000000010204040700000000008040201059
:1005A000884423100804030000000000000000003D
:1005B0000000FE0100FC020100000000000000003D
:1005C00000000000000000000000794949790000A7
:1005D0000000000000000080E020202020E08000DB
:1005E0000302020202030080F8F0E0C080F88000FD
:1005F0000F070301000F0080F880C0E0F0F88000D2
:100600000F000103070F0080F8F80000F8F88000E1
:100610000F0F00000F0F00E01008080810E000198D
:10062000121E001E12190000F8000000E020004019
:100630003F0810081F1000101010101010F0800458
:100640000404040404070080F010101010101000BF
:10065000070404040404048080808080808080007B
:100660000000000000000080000000000000000703
:1006700008080708080708000000000000008008BC
:100680000708080708080700000000000000000035
:10069000000000000000000000000000000000005A
:1006A000000000000000000000000000000000004A
:1006B000000000000000000000000000000000003A
:1006C000000000000000000000000000000000002A
:1006D000000000000000000000F80402FE020070AC
:1006E000181710101F700002FE020002FE02001018
:1006F0001F1010105F300002FE02F002FE02001018
:100700001F101F105F30000000E01008F808007094
:10071000181710101F7000804028F828408000072C
:1007200008507F5008070008F8080008F808001073
:100730001F1010105F300008F808C008F8080010FB
:100740001F101F105F3000000000000000000000BC
:100750000000000000000000000000000000000099
:100760000000000000000000000000000000000089
:100770000000000000000000000000000000000079
:100780000000000000000000000000000000000069
:100790000000000000000000000000000000000059
:1007A0000000000000000000000000000000000049
:1007B0000000000000000000000000000000000039
:1007C0000000000000000000000000000000000029
:1007D0000000000000000000000000000000000019
:1007E00000000000000000000000FE00000000000B
:1007F0000000370000000000160E0000160E00007A
:10080000000000000000000020F82020F820000078
:10081000020F02020F0200102844FE840810000399
:1008200004081F0805020018242498402010000422
:1008300002010C12120C0018A4E2A2128C80000714
:1008400008101011120508000000160E000000002C
:10085000000000000000000000F00804020000009A
:10086000000304081000000000020408F00000006B
:100870000010080403000090A0C0F8C0A09000047D
:1008800002010F01020400808080F080808000005F
:100890000000070000000000000000000000000051
:1008A0000000583800000080808080808080000038
:1008B0000000000000000000000000000000000038
:1008C0000000181800000000000080402010000404
:1008D00002010000000000F80402020204F8000710
:1008E00008101010080700000804FE0200000000B5
:1008F00010101F1010000018040202824438001863
:1009000014121110101C000E024262528A060006D8
:100910000810101008070080403E0000FC00000393
:10092000020202121F12007E2212121222C60004BC
:1009300008101010080700F84422121224C0000703
:10094000081010100807000E0282C262321E00005A
:10095000001F000000000018A4424242A418000733
:1009600008101010080700F80402020284F80000C2
:1009700009121211080700000000303000000000CA
:1009800000000C0C000000000000303000000000EF
:1009900000002C1C00000000804020100804000013
:1009A00000010204081000004040404040400000A8
:1009B000020202020202000004081020408000002F
:1009C00010080402010000180402020284780000EA
:1009D00000003601000000F008A4A4C408F00007DD
:1009E000081312110A090000F0080402FE020010A8
:1009F0001F1202121F100002FE424242A4180010F1
:100A00001F101010080700F804020202041E00075D
:100A10000810101008060002FE02020204F800107E
:100A20001F10101008070002FE4242F2020E0010D2
:100A30001F101011101C0002FE4242F2020E0010A4
:100A40001F101001000000F804028282849E00073B
:100A500008101108041F0002FE424042FE0200106E
:100A60001F1000101F1000000202FE020200000012
:100A700010101F1010000000000202FE0202000C05
:100A80001010100F00000002FEC230080602001015
:100A90001F10030418100002FE02000000000010E6
:100AA0001F101010101E0002FE32C032FE02001095
:100AB0001F1001101F100002FE1AE002FE020010BB
:100AC0001F1000131F1000F80402020204F80007B0
:100AD0000810101008070002FE02020284780010BD
:100AE0001F110101000000F80402020204F80007CF
:100AF00008101012140B1002FE828282443800107B
:100B00001F1001021C10001824424242841E0006DD
:100B1000081010100807000E0202FE02020E00006C
:100B200010101F1010000002FE020002FE02000062
:100B30000F1010100F000002FE020002FE02000063
:100B4000030E180E03000002FE02F002FE02000077
:100B5000071C0F1C070000021EF240F21E020010CC
:100B60001F1100111F100002FE820082FE02000011
:100B700000111F110000000E02824222120E001E00
:100B800011101010101E0000FE02020202000000F0
:100B90003F2020202000000810204080000000009E
:100BA000000000000102000002020202FE0000003C
:100BB000202020203F00001008040204081000003C
:100BC0000000000000000000000000000000002005
:100BD000202020202020000000000E160000000031
:100BE00000000000000000009048484890E0000726
:100BF00008101008041F0002FE12080810E0001080
:100C00001F081010080700E0100808081038000737
:100C100008101010080600E010080812FE02000775
:100C2000081010081F1000E09088888890E00007E6
:100C30000810101008040040F84442020408001094
:100C40001F101000000000E010080810F808000352
:100C5000244848443F000002FE201008F000001025
:100C60001F1000101F100000080BFB000000000008
:100C700010101F10100000000008080BFB000000FF
:100C8000304040403F000002FE8040300818001015
:100C90001F11020408180000000202FE00000000FC
:100CA0000010101F10100008F808F008F0000010E5
:100CB0001F001F001F100008F8100808F0000010A7
:100CC0001F1000101F1000E01008080810E00007B7
:100CD0000810101008070008F810080810E000407D
:100CE0007F481010080700E010080810F8080007F7
:100CF000081010487F400008F82010080870001005
:100D00001F1000000000002050888888103800065E
:100D1000081010100906002020FE2020000000000E
:100D2000000F1010100C0008F8080008F808000068
:100D30000F1010081F100008F8080008F80800003D
:100D4000030E180E03000008F808C008F808000099
:100D50000F180F180F00000838E080E03808001066
:100D60001F0100011F100008F8080008F808000023
:100D7000274848443F000038080888482818001CC5
:100D800012111010101E00804038040202000000F2
:100D9000010E1020200000000000FE0000000000F6
:100DA00000003F0000000000020204384080000004
:100DB0002020100E0100000080F0E0C08000000044
:100DC000000703010000000080C0E0F08000000088
:100DD0000001030700000002FE4242428E000010A4
:100DE0001F10101008070002FE020202020E00107F
:100DF0001F1000000000000BFB88E80B3B000010F8
:100E00001F101310101C0002BEC0FEC0BE02001056
:100E10001F001F001F10001E04024242A4180006FB
:100E20000810101008070002FE00E018FE02001073
:100E30001F1300101F100004FC01C231FC0400103D
:100E40001F1601101F100000F0080402FE0200101F
:100E50001F0000101F100002FE020202FE0200101E
:100E60001F1000101F100002FE020002FE02000010
:100E7000091212110F0000F0080AFE0A08F0000122
:100E800002121F1202010002FE020002FE02000016
:100E9000010202111F100002FE02F002FE02001009
:100EA0001F101F101F10000E02FE120808F0001085
:100EB000101F101008070002FE1208F000FE0010BC
:100EC0001F10100F001F000E0402F24244F800062B
:100ED0000810111008070002FE40FC0202FC00107E
:100EE0001F000F10100F003844828282FE02001093
:100EF0001C0201101F1000F0482424224280000729
:100F00000810101008070008F88888885020001082
:100F10001F10101009060008F80808083800001013
:100F20001F100000000000E0938B888B93E0000707
:100F300008101010080400087880F8807808001065
:100F40001F011F011F10003810088888502000065C
:100F50000810101009060008F8088068F80800104A
:100F60001F1601101F100008F9028462F908001012
:100F70001F1601101F100008F880403008180010DC
:100F80001F0001021C100000E0100808F808001003
:100F90001F0000101F100008F8E880E8F808001093
:100FA0001F1003101F100008F8888088F808001030
:100FB0001F1000101F100008F8080808F80800109B
:100FC0001F1000101F1000380808F808083800002B
:100FD00000101F1000000008F8080008F8080000C2
:100FE000010202111F100008F808C008F8080010DC
:100FF0001F101F101F10003808F888404080001094
:10100000101F101008070008F888408000F8001032
:101010001F10100F001F0008F888404080000010CB
:101020001F101010080700381008C88890E000064C
:101030000810111008070008F880F00808F00010E8
:101040001F000F10100F00E010080808F80800003B
:10105000110A06121F10000011241FBECFEFD8E0A6
:10106000DEBFCDBF21E0A0E0B1E001C01D92A53CF4
:10107000B207E1F70E9484370C94A23F0C94000061
:101080005D98559A80FD599A80FF5998519A539AC4
:101090005A9867FD5B9A67FF5B985A9A5A9866FD63
:1010A0005B9A66FF5B985A9A5A9865FD5B9A65FF52
:1010B0005B985A9A5A9864FD5B9A64FF5B985A9AB7
:1010C0005A9863FD5B9A63FF5B985A9A5A9862FD3F
:1010D0005B9A62FF5B985A9A5A9861FD5B9A61FF2E
:1010E0005B985A9A5A9860FD5B9A60FF5B985A9A8F
:1010F0005D9A5A985B980895609342018093070126
:1011000086958093A801660F660F660F60931201A3
:10111000089580E265D460E082E0EECF089580E239
:101120005FD460E084E0E8CF089580E259D460E0C5
:1011300086E0E2CF0895809142018093040180917E
:10114000A801809306010895809106016091040131
:10115000880FD2CF0895682F80E092CF08958EEA4D
:10116000FADF85EAF8CF08958DE03AD48AE038C4F2
:101170000895FADF1092A80160E080E0BDCF0895E5
:10118000CF93DF93C0E080E1E6DF80E0E4DF8C2FE7
:10119000806BE1DFD4E860E081E072DFD150D9F705
:1011A000CF5FC83081F7E5DFDF91CF910895589880
:1011B0005A985B985D98509A529A539A559A41D48E
:1011C0005D9A559A5998519A84E143D4589A84E18A
:1011D00040D48EEAC0DF82EEBEDF82EABCDF80EA66
:1011E000BADF80ECB8DF85EDB6DF80E8B4DF8DE8EC
:1011F000B2DF84E1B0DF81E8AEDF80E393E00E94FC
:10120000643FA9DF80E4A7DF84EAA5DF86EAA3DFE5
:10121000B7DF8FEAA0DF60E080E06ECF0895089529
:10122000582F28E030E090E841E080E0642F65230B
:1012300009F0892B440F969521503109211531056C
:10124000A9F70895A0E0B0E0E8E2F9E00C94E13EEF
:10125000EC01C02ED12CC601860F911D813891055D
:101260000CF074C0F12CE40EF11C81E4E816F104DA
:101270000CF06CC0142F16951695169591E0E91A8E
:10128000F10853E0F594E7945A95E1F7822F8270C4
:10129000582E21FF0DC0C7019927811B91098C9DF4
:1012A000A0018D9D500D9C9D500D1124C40FD51F84
:1012B00097E09E1510F447E0E42E80E8801B861B23
:1012C000F82EF2949FE0F9229F2D9061F92E37E0DD
:1012D000232E211A8F70482E2170322E460181E074
:1012E000881A9108E11660F1822D806B34DF8F2D12
:1012F00032DF842D30DFA12CB12C3E01680C791C2B
:10130000A016A0F4311004C0F301EA19FB0903C0D0
:10131000FE01EA0DFB1D8491511001C081DF682F91
:1013200081E0AEDE9FEFA91AB90AEACF552019F085
:10133000CC19DD0902C0CC0DDD1D1F5F2A94D2CF70
:1013400087E090910701891B806B05DFCDB7DEB781
:10135000E2E10C94FD3EEF920F93282F8F7030E660
:10136000839FC0011124895C9C4F322F307324FF6E
:1013700002C028E001C028E420931301303218F0A5
:101380001092030108C020E2209303012091130171
:101390002D5E2093130160E2E62E08E120E04091EB
:1013A0000301609113014EDF0F91EF900895EF92CA
:1013B0000F93262FFC01649131964491319604914C
:1013C0003196E49050910301450F50911301650F40
:1013D000049638DF0F91EF90089560E0E8CF08950C
:1013E000EF920F93CF93C82F809142018F5F80932C
:1013F000420140910701440F440F440F20E1C29F76
:10140000C001112470E1E72E08E020E06091120194
:1014100089529A4F17DF80911201885F80931201E1
:101420004C2F50E0FA013197EA30F105E0F4EC5C22
:10143000FF4F0C94313E8EE305C08CE7D1D28CE394
:1014400013C08CE7CDD28CE70FC082E50DC08DE2D2
:101450000BC085E709C08FE4C3D288E6C1D28DE610
:1014600003C08CE401C08C2FBBD2CF910F91EF90C1
:1014700008958F5CB5CF089580E2B2CF0895A1E0C2
:10148000B0E0E5E4FAE00C94F13E18162CF4898300
:10149000F3DF89818150F9CF2196E2E00C940D3F72
:1014A0009091420180E1891BEACF0895A1E0B0E06C
:1014B000ECE5FAE00C94F13E8983F2DF80E290D211
:1014C0009091A8019F5F9093A8016981943038F0B2
:1014D00083E08093A80181E08093450102C01092CF
:1014E00045018091A801880F07DE2196E2E00C9467
:1014F0000D3FDCDF81C308953CDED2DF3ACE089594
:1015000008DECEDF06CE08958DE36ACF0895CF932F
:10151000DF93EC018991882311F062DFFBCFDF912B
:10152000CF910895CF93DF93EC01FE018491982F22
:101530009F7719F055DF2196F8CFDF91CF9108956D
:10154000CF93DF93EC01CE010E94643F982F9F77E9
:1015500019F046DF2196F7CFDF91CF910895EF92F2
:101560000F93FC0104913196E49002966BDE0F918B
:10157000EF9008950F9387E591E0E2DF40918C01B1
:101580004D3F64F460917A0170917B0180917C0100
:1015900090917D0103E026E4E6D002C08FE320DFD6
:1015A0000F91089597FF09C08F939F938DE218DFE5
:1015B0009F918F91909581959F4F68E271E04AE0ED
:1015C00050E00E94413FA3CFEDDF01C0EBDF54CFDD
:1015D000EF92FF920F931F93182F062FF42E89E39B
:1015E00091E0AEDFEE24E0914301F0914401868565
:1015F000E81611F4812F09C08485E81611F4802FB4
:1016000004C08585E81611F48F2DEADEE3948E2D53
:10161000833049F71F910F91FF90EF900895EF925B
:10162000FF920F931F93182F062FF42E80E061DF97
:101630008FE391E085DFEE248E2D1BDF65DFE091E7
:101640004301F09144018685E81611F4812F09C009
:101650008485E81611F4802F04C08585E81611F4FE
:101660008F2DBEDE09DFE3948E2D833029F71F9185
:101670000F91FF90EF900895682F80E092E066232D
:1016800009F491E0623009F481E008950F93082F86
:10169000E9EAF1E0880F880FE80FF11D60817181A0
:1016A00082819381643671058105910570F42091E2
:1016B000050127FD0AC0802FDFDF692F0E9422234A
:1016C0006EEF23E044E03ED104C04FEF04E024E09D
:1016D0004AD0D2DE0F910895863058F4ECE9F1E05B
:1016E000E80FF11DE80FF11D8081918163E035D194
:1016F000C3CE08951F93182F80917601882319F087
:10170000BBDE80E06DDE05DD80E391E019DF812F37
:1017100082958F70E1DF812F8F70DEDF1F9108953A
:10172000CF93DF938091140182958F70C0E9D1E04F
:10173000C80FD11D88819DDE8EEF90E001DF8E8184
:1017400098DE8EEF90E0FCDEC0E9D1E080911401DC
:101750008370C80FD11D8E818CDE80911401CADF89
:10176000DF91CF910895AEE0B0E0E9EBFBE00C949F
:10177000E13E342E222E6B017C01102F1F7080E37E
:1017800089838A838B838C838D838E83F7FE0BC042
:101790008DE226DEF094E094D094C094C11CD11C5C
:1017A000E11CF11C04C005FF02C08BE219DE1330FE
:1017B00009F4B6C0143009F4BAC0153051F016302F
:1017C00081F01730B1F074E6872E912CA12CB12C4A
:1017D00017C060EA862E66E8962EAA24A394B12C40
:1017E0000FC050E4852E52E4952E5FE0A52EB12C5B
:1017F00007C040E8842E46E9942E48E9A42EB12C77
:101800003AE0432E512C612C712CC814D904EA04FF
:10181000FB0470F0C701B6016B5F7F4F8F4F9F4F86
:10182000A30192010E94F33D69017A013394EDCF47
:1018300081E1830D9BEA899F912C1124969486E087
:101840008319899F812C11248694982D990F980DC6
:10185000882E891A5E0187E0A80EB11C2AE0A50136
:10186000C701B6010E94203FF50101900020E9F771
:10187000CF0101977C01EA18FB08AE2C6701DD243B
:10188000282D30E02C5F3F4F2C153D051CF4939420
:1018900093E0890E892D90E0895D9F4F0E94643FFF
:1018A000B82E04FF04C0A11610F41E1901C010E0E8
:1018B000AE2CA818A10E1A1424F08EE291DD182D7A
:1018C0001E19811002C028EFA22E912C012F10E0CA
:1018D000C00ED11EEA2CFF24E7FCF094E92DF0E0C5
:1018E000EC15FD05A4F43696E01BF10B81E090E0C9
:1018F0008C0F9D1FE80FF91F808172DD9394892D55
:1019000090E08E159F0551F78EE26ADDE7CFBB2090
:1019100011F08B2D65DD222089F0822D61DD0EC056
:1019200098EE892E93E0992EA12CB12C69CF80E1FD
:10193000882E87E2982EA12CB12C62CF2E96E2E160
:101940000C94FD3E0F93362FBC0180E090E0022FF7
:10195000242F432F08DF0F9108950F93062FBC010A
:1019600080E090E026E54DEFFEDE0F9108950F93A5
:10197000042F28E440E0F7DE8AE732DD0F91089576
:10198000E82FF0E0EE0FFF1FE458FF4F8591949190
:1019900020910301420F20911301620F20E0DFCD5F
:1019A0000895CF93DF93C82FD62FE0914301F09194
:1019B000440148E16EE18685E3DFE0914301F09167
:1019C00044014D2F6C2F8485DBDFE0914301F091C2
:1019D000440140E06EE18585D3DFDF91CF9108952A
:1019E0008F932F932AE080953B9A089410F44398A4
:1019F00002C0439A000020D027D086952A95B1F7DF
:101A00002F918F91089503D002D001D000D000D043
:101A100003D002D001D000D000D003D002D001D03A
:101A200000D000D0A89503D002D001D000D000D0C3
:101A300003D002D001D000D000D003D002D001D01A
:101A400000D000D003D002D001D000D000D00000E0
:101A5000089590E0893C28F0885C48EC849FC001A0
:101A60001124009709F4089520918100277019F03E
:101A7000D9DF0197F6CF8130910519F002973CE844
:101A800003C03EE380E090E02091B200230F20935A
:101A9000B30042E04093700027E023BF889526E022
:101AA00023BF10927000A895DCCF8F9384E0D1DF24
:101AB00007C08F9382E0CDDF03C08F9381E0C9DF41
:101AC0008F911F93182F106410937C00E12FE07802
:101AD00080913301E81759F0E0933301ADDF8FE9CE
:101AE00080937A0083E083BF889582E083BF20E003
:101AF00030E0A901E0E01FC08FE980937A0083E025
:101B000083BF889582E083BF6091780070917900EF
:101B1000260F371F411D511DE43061F480913501BE
:101B2000803041F084E02030380720F417FD02C0F7
:101B30001068CACFEF5F80913201E817E8F2609138
:101B400036017091370117FF04C060913401709124
:101B5000350180E090E00E94B13D2FEF33E040E09E
:101B600050E00E94F33DB901CA012091320130E0FA
:101B700040E050E00E94F33DC9011F910895EF92AB
:101B8000FF920F931F93CF93DF93F82EE92EC5E6B4
:101B90004F9B05C0CF2DDE2D05E510E019C081E07B
:101BA00058DFC150A9F7F6CF82E053DF000F4F9BFB
:101BB0000F5F0F730F3379F4111103C0CF2DDE2D9A
:101BC00014E01F5F163990F4A8951C161D0644F00A
:101BD000D7FFEACF0BC00111F7CF1123A9F306C03D
:101BE0002A972097A9F7CFEFDFEFF2CF812FCDB75C
:101BF000DEB7E6E00C94093FCF939DDAC82F8091C1
:101C000045018823D1F0813051F4C33041F46FE0B5
:101C100086E072DA8BE2E4DB6FE086E06DDA80E486
:101C20009FE1ADDFC33041F480914501813021F463
:101C300060E086E061DA34DC87DACF91089589E5E7
:101C400093E00E94643F382F8AE593E00E94643F4E
:101C500020913A01230F30913B01381F20931D0141
:101C600030931E0183E0283E380720F0C901885ECA
:101C7000934002C080E090E062E370E00E94CC3DBF
:101C8000683008F067E0E7ECF2E0E60FF11DE60FE0
:101C9000F11D459155912591359162E3681B421BD9
:101CA000530B649FC001659F900D1124499662E318
:101CB00070E00E94CC3D620F731F709379016093B6
:101CC00078018BE593E00E94643F992787FD90950A
:101CD00060913A0170913B01860F971F90933501F7
:101CE0008093340190937501809374010895CF938C
:101CF000DF9324E130E0B9010E94CC3DDC01E9ED45
:101D0000F2E0E60FF71FE60FF71FC591D591459159
:101D100055914C1B4A9FC0011124B9010E94CC3D32
:101D20006C0F7D1FCB01DF91CF9108951895189509
:101D30001092210110921F0110926F011092550113
:101D400010922001109241011092760110925A01D6
:101D500010925B0110925C0110928A0182E08093E4
:101D60008B01109205011092890110928801109246
:101D70007E0110927F01109280011092810181EF0B
:101D800080938D010895A1E0B0E0E9ECFEE00C94B1
:101D9000EF3E98E097B998B9E82FF0E0ED5BFE4F81
:101DA000949195B9262F281BE20FF11D27FDFA9576
:101DB000E491E92BE4B9698384DE8C016981862F83
:101DC00080DE209136013091370136952795A901A3
:101DD00043505109B801625E7F4F4617570778F4A8
:101DE000255E3F4F0217130750F4BC01625E7F4F20
:101DF0004617570720F441E08217930708F040E0A8
:101E000014B8842F2196E4E00C940B3FCF9361E04B
:101E100080E0B9DFC82F62E080E0B5DFC80F62E084
:101E200081E0B1DF8C0FCF910895AFE0B0E0EBE13E
:101E3000FFE00C94E63E782E10922101807FA9F4F9
:101E4000E5DF833009F042C29BD986E592E078DB7A
:101E500060D98FE3C5DA80ED97E091DE8B30C0F476
:101E60008FD98CEC90E06CDB31C206E910E088D9A8
:101E700089EA91E065DBCADF833021F41F5F14300B
:101E800010F006C010E088E2E4DD015081F761C087
:101E900040D98CEB90E054DB60E083E393E00E9458
:101EA000713F60E084E393E00E94713F60E082E371
:101EB00093E00E94713F60E082E00E9422236C0167
:101EC0009A83898361E082E00E9422237C019C83C3
:101ED0008B8360E081E00E9422238C019E838D83AE
:101EE00023E040E26EEFC6012DDD23E040E26EEF1D
:101EF000C70128DD23E044E06EEFC80123DD2AE5B9
:101F0000C216D10424F084E190E09A838983698128
:101F100083E393E00E94713F8AE5E816F10424F020
:101F200084E190E09C838B836B8184E393E00E9447
:101F3000713F0A35110524F084E190E09E838D8382
:101F40006D8182E393E00E94713F82E080934501BE
:101F500053DE18E75BDF81116CC012D985EB90E08E
:101F6000EFDA23E044E06FEF80913801909139017E
:101F7000E9DCCFD88EEA90E0E3DA23E044E06FEFCB
:101F800080913F0190914001DDDC82E0809345012A
:101F900033DE10922101F4D88AEA90E0D1DA60E0D1
:101FA00082E00E94C81A8090820190908301A090E4
:101FB0008401B09085019C868B8661E082E00E945E
:101FC000C81AC0908201D0908301E0908401F09003
:101FD0008501DE86CD8660E081E00E94C81A00910E
:101FE0008201109183011E830D8362E080E00E94D4
:101FF000C81A80918201909183019C838B8362E057
:1020000081E00E94C81A80918201909183019A8791
:10201000898761E080E00E94C81A809182019091D6
:1020200083019A838983E72DEF70EF87E13059F4BC
:102030000EC066DA8CE492E083DA84E60ADD1150A1
:1020400009F088CF8ACF20913E01223021F40296F8
:1020500098878F8304C098878F8310923E01C401B4
:10206000B5DAC601B3DAB801882777FD8095982FD5
:1020700003E026E444EF77DB6E01FFE0CF0ED11CD6
:10208000FE013196819191910A97853B9105E0F48B
:10209000EC15FD05B9F7F2E5EF2EF3E0FF2E8E010A
:1020A0000F5F1F4FF80160810E5F1F4F6E5EC7010B
:1020B0000E94713FFFEFEF1AFF0A0C151D0591F703
:1020C00028D88CE791E03CDA82E08093450194DDEA
:1020D0000E9422302F85213029F080913E018230EC
:1020E00009F0DFC070E4B72E10E0EAE0CE2ED12C6C
:1020F000E12CF12C1DDE44D880E0BBD982E291E0D6
:102100001FDA82E0B6D98FE190E01ADA109221014D
:1021100060E082E00E94C81A00918C0160917A010F
:1021200070917B0180917C0190917D01073F44F487
:10213000A70196010E94F33D0F5FB901CA01F6CFD6
:1021400000938C0160937A0170937B0180937C01F2
:1021500090937D01073F09F08FC0DC01CB018056D1
:102160009109A109B10980399545A105B10508F08A
:1021700083C060918E0170918F01CB018B569F4F70
:102180008B32914008F078C01F5F153008F475C09D
:1021900089E593E00E947F3F0E94C00888E190E0BB
:1021A000CFD980918E0190918F01FCD948DD88E0D4
:1021B00088B989E087B980E284B982E082DC853D14
:1021C0009340DCF714B8109235011092340182E08C
:1021D00078DC8C01809174019091750190933501A8
:1021E0008093340182E06DDC7C01EE0CFF1C1092C8
:1021F00035011092340182E064DCC0907401D0900B
:102200007501D0923501C0923401080F191F0E19C3
:102210001F090E94890881E190E092D98BE593E043
:102220000E94643F63E0B62EB80E9601D8010E946A
:10223000463E9701442737FD4095542F0E94153E96
:10224000B20E6B2D8BE593E00E94713F8B2D992789
:1022500087FD9095A7D9F3DC82E080934501CCDC23
:1022600010923E0182E593E00E94643F682F85E56D
:1022700093E00E94713F15C010E00E9489086091B0
:102280007A0170917B0180917C0190917D0104E045
:1022900026E440918C0167DA88E2DBDBBA9409F02E
:1022A00029CF89E1809332010E9435330E94C00812
:1022B0008CEC90E045D90E9489088EE392E040D9E9
:1022C0001092210182E08093450196DC2F96EDE08B
:1022D0000C94023F80913E0181110DC082E593E094
:1022E0000E94643F61E0680F85E593E00E94713FC2
:1022F00081E080933E010895CF92DF92FF920F9389
:102300001F93CF93DF931F92CDB7DEB7E82FF0E096
:10231000EA5BFE4FE491E8B9E860E7B915B8E62F4B
:10232000F0E0ED5BFE4FE491E4B908E813E1FE2E26
:10233000FF0C862F6983B9DB6C01F4B869818017C3
:10234000910710F48C01F5CF0097E1F00E949508F9
:1023500082E091E0F5D8D60120EA36E841E050E08D
:102360000E944C3E28E937EB40E050E00E94F33DEC
:10237000DA01C90122E041E467EFE4DA88E087B9D5
:1023800088B914B80F90DF91CF911F910F91FF90F2
:10239000DF90CF9008950F931F93CF93DF9385E045
:1023A00090DB85E08ADB8C01EC01CC0FDD1FCC0FCC
:1023B000DD1F2A9610923C01C43883E0D80740F410
:1023C00080E791E0BDD86CD881E080933C011FC0CC
:1023D0008FE791E0B5D862E0CE01BFDA4DD8093180
:1023E00083E0180780F4083E124050F488EB92E036
:1023F000A7D856D88DEC2DDB5E988AEC2ADB07C077
:102400008FEB92E002C08CE791E09AD849D8DF9137
:10241000CF911F910F910895A9E1B0E0E2E1F2E1BF
:102420000C94E13E982E862E4983A895E62FF0E085
:10243000ED5BFE4F449033962491288BE42FF0E01F
:10244000ED5BFE4F6490E82FF0E0ED5BFE4F749083
:10245000339634913A8338603F8728602E8765B879
:10246000462D44294E8344B937B95A8158B9862F2D
:1024700024DB9987888744B8882D1FDB1C0114B89A
:10248000D1DA15B86E8164B9882D17DBA885B985B6
:102490008A179B0730F5805E9E4FA817B90708F48E
:1024A000C3C4BE85B7B988E088B975B8872D8629B9
:1024B00084B9E0913601F0913701F987E887892DD9
:1024C000FCDA28853985281B390B3987288774B8A9
:1024D0002090360130903701892DEFDA281A390A19
:1024E00008C028853985205E3E4F8217930708F47F
:1024F0009BC42091550180916F0190E0820F911D46
:1025000002974CF0213009F08FC4909152018091D4
:102510006C01981389C4562C550C4885598544374D
:10252000510508F4A8C0CA01880F991F44962816BF
:10253000390608F0A0C05F8557B96A8168B9852D52
:10254000842984B9882DB5DA8C018981BADA7C01B5
:1025500055B8882DAEDA9801295A3D4F57282817CB
:102560003907D8F588E088B97E8577B954B855B869
:1025700089819FDA88349F4028F085E0809321018B
:1025800082E204C085E08093210184E280932001EF
:1025900010934B0100934A01E016F10640F4C80184
:1025A0008E199F09909351018093500104C010929D
:1025B0005101109250019801A0E1B7E20E94373E0C
:1025C00020911B0130911C0140E050E00E94F33D3E
:1025D00030934D0120934C011EC488E088B9BE851C
:1025E000B7B954B855B8892D64DA8C01898169DA94
:1025F0007C0175B8892D5DDA895A9D4F8017910746
:1026000008F012C4EA81E8B9FF85F7B9898151DA87
:10261000813D934028F485E08093210182E304C04A
:1026200085E08093210184E3809320010E151F052E
:1026300038F4E01AF10AF0926B01E0926A0104C0EA
:1026400010926B0110926A0120913601309137018E
:10265000201B310BA0E1B7E20E94373E20912201FE
:102660003091230140E050E00E94F33D3093670138
:1026700020936601ABC188E088B93E8537B975B84B
:10268000472D46294C8344B9892D17DA9B878A87C1
:102690000091360110913701898113DA5C018A308B
:1026A000910550F514B881E0D4D9852D872984B9D6
:1026B000892D03DA9B878A876091360170913701F3
:1026C000681B790B798F688F8981FBD95C018091B8
:1026D0002201909123019C0140E050E060E871EA02
:1026E00083E09CE10E94F33DA88DB98D0E944C3E91
:1026F000950140E050E013C0C801AA85BB858A1B44
:102700009B0B998F888F9C012A193B09A4E6B0E0A6
:102710000E94373E850120E030E0A90198010E9427
:10272000F33D69017A0114B815B8BA81B8B9EF85DB
:10273000E7B981E08ED9F9EB2F16F7E03F0608F0F4
:1027400073C32E8124B9882DB8D98F359D4008F4E4
:1027500043C114B881E07DD94E8144B981E079D973
:10276000552D54295B8B54B9882DA7D98C018981AB
:10277000A8D99A8B898B892DA4D99D878C87698943
:102780007A89613D774008F4AFC084E080932101ED
:102790008DE0809320012016310630F4D801A21973
:1027A000B309BB83AA8302C01B830A8340901B0129
:1027B00050901C01612C712C60E871EA83E09CE16F
:1027C000A30192010E94F33DAA81BB810E944C3E6D
:1027D000E989FA899F0140E050E00E94F33D809131
:1027E0006F01882369F08091600190916101A0914F
:1027F0006201B091630182179307A407B50708F53A
:102800002093600130936101409362015093630112
:102810009801A0E1B7E20E94373EA30192010E9415
:10282000F33D30936701209366018C859D8529894E
:102830003A89821B930B909365018093640121E098
:1028400001C020E08091600190916101A09162013E
:10285000B09163018C159D05AE05BF0528F5C092AA
:102860006001D0926101E0926201F09263018A8579
:102870009B858A199B099093650180936401288D3B
:10288000398DA0E1B7E20E94373E209122013091BC
:10289000230140E050E00E94F33D205F384D30932B
:1028A00067012093660103C0222309F482C39101CA
:1028B000A0E1B7E20E94373EA30192010E94F33DDE
:1028C000309369012093680128853985A0E1B7E23A
:1028D0000E94373EA30192010E94F33D30936B01A9
:1028E00020936A0121E065C331E62316310408F024
:1028F00073C0013D47E0140708F46EC085E0809383
:10290000210182E180932001C80186509F4F6C8590
:102910007D858617970720F483E1809320011CC0F2
:102920008C859D850817190798F4A0911B01B0911B
:102930001C019C01201B310B0E94373E980140E096
:1029400050E00E94F33D309365012093640104C080
:10295000109265011092640198899770D92E89812F
:10296000806480937C00FBE0CF2E01E010E0EE2439
:10297000EA94A3E0FA2EA89561E0862D26D5AB89CE
:10298000A4B986B18D21E9F344B880917A008064BE
:1029900080937A0080917A0086FDFCCF8091780048
:1029A00090917900F701E81BF90B0E0F1F1FCA94D5
:1029B00011F7C801880F991F880F991F69E070E00F
:1029C0000E94CC3D70936B0160936A0180916F010E
:1029D0008F5F80936F0186CFFE81F4B965B8882D33
:1029E0006CD89F838E8389816CD89B878A8740911E
:1029F000360150913701481B590B4A30510548F5B3
:102A000014B881E026D8852D842984B955B8882D3D
:102A100054D89F838E83898154D89B878A878091DD
:102A20001B0190911C019C0140E050E060E871EABC
:102A300083E09CE10E94F33DAE81BF810E944C3E49
:102A400020913601309137014A855B85241B350B77
:102A500009C02E813F81241B350BA4E6B0E00E9403
:102A6000373E9A0140E050E00E94F33D69017A014F
:102A70005E8557B988E088B96C8164B965B9892DDC
:102A80001CD88C0189811DD85C01882D1AD89C0125
:102A9000003371E1170708F0C4C175B8892D2E8B7A
:102AA0003F8B0BD8AC0174B8892D4C8B5D8B05D84E
:102AB0009A8B898B15B881E00E94290D75B8892DF4
:102AC0000E945D0D2E893F894C895D8969897A89CB
:102AD0006034764008F057C08133914108F453C008
:102AE000C8018A569F4F4817590708F04CC086E026
:102AF00080932101809155018F5F80935501C5011D
:102B0000821B930B90934B0180934A01021B130B82
:102B1000109351010093500114B815B8E889E8B931
:102B200081E00E94290D74B8892D0E945D0D853FBA
:102B3000910508F04DC2FC81F4B989810E945D0DB8
:102B4000813D934008F444C2892D0E94610D8D3D62
:102B5000924008F43DC274B8892D0E945D0D8D3DF0
:102B6000924008F435C275B881E00E94290D15B86D
:102B7000892D0E945D0D853F910508F029C287E0EF
:102B80008093210125C25C8154B955B981E00E942E
:102B9000290D572854B855B8892D0E945D0D5C0148
:102BA0006091360170913701681B790B7A8B698BC4
:102BB00089810E94610D9D878C878091360190915B
:102BC0003701AC85BD858A1B9B0B9D838C83882D2B
:102BD0000E94610D8C01EC81FD81EE3FF94008F40B
:102BE000B1C084E0809321018CE080932001498969
:102BF0005A892416350620F45A01A218B30802C0D7
:102C0000A988BA884090220150902301612C712C30
:102C100060E871EA83E09CE1A30192010E94F33D28
:102C2000D5010E944C3EAC81BD819D0140E050E049
:102C30000E94F33D80915501882369F080914601FF
:102C400090914701A0914801B091490182179307E3
:102C5000A407B50700F52093460130934701409340
:102C60004801509349018C859D85801B910B909361
:102C70004B0180934A0129893A89A0E1B7E20E9479
:102C8000373EA30192010E94F33D30934D01209302
:102C90004C0121E001C020E0809146019091470164
:102CA000A0914801B09149018C159D05AE05BF0565
:102CB00030F5C0924601D0924701E0924801F0926F
:102CC00049018A859B85EE81FF818E1B9F0B909326
:102CD0004B0180934A019F01A0E1B7E20E94373E79
:102CE00020911B0130911C0140E050E00E94F33D17
:102CF000205F384D30934D0120934C0103C02223B7
:102D000009F467C19101A0E1B7E20E94373E20912A
:102D10001B0130911C0140E050E00E94F33D3093D4
:102D20004F0120934E0128853985A0E1B7E20E942A
:102D3000373EA30192010E94F33D3093510120934D
:102D4000500146C1F1E62F16310408F06AC0298906
:102D50003A8929343D4008F464C085E0809321011C
:102D600082E080932001C80186509F4F8A159B0501
:102D700020F483E0809320011CC00A151B05A8F4F1
:102D8000A0912201B09123019501201B310B0E94DB
:102D9000373EA989BA899D0140E050E00E94F33D89
:102DA00030934B0120934A0104C010924B011092C2
:102DB0004A010A8107708981806480937C001BE04E
:102DC000EE24E394F12CA89560E0862DFED254B851
:102DD00055B886B18023E9F774B880917A00806491
:102DE00080937A0080917A0086FDFCCF80917800F4
:102DF00090917900E80EF91E115029F7C701880F4C
:102E0000991F880F991F69E070E00E94CC3D709374
:102E1000510160935001809155018F5F809355015E
:102E2000D7C088E087B988B914B815B888E087B9E1
:102E3000B7EC2B16B1E03B0608F4AFC088B918EC2C
:102E40000E85EF850E2B07B981E00E94290DFE85C6
:102E5000F7B9892D0E94610D429710F0115099F732
:102E6000542C550C372C330C34B835B861E0862D12
:102E7000ACD2892D0E945D0D9D838C8354B815B80A
:102E80002F8527B93A8138B960E0862D9ED2E0902F
:102E90003601F0903701882D0E945D0D8C0144B8F9
:102EA000892D0E945D0D6C01882D0E94610DC81A4C
:102EB000D90A88E088B94E8547B974B875B861E019
:102EC000862D83D2892D0E945D0D5C01882D0E9484
:102ED000610DA81AB90ACA14DB0438F434B835B83D
:102EE000892D0E945D0D650119C09701201B310BD2
:102EF0003D832C8354B815B83F8537B94A8148B90A
:102F000060E0862D62D20091360110913701882D44
:102F10000E945D0DB801681B790BCB019601275902
:102F2000310929383141C8F58C159D05B0F58C81E2
:102F30009D8153E0969587955A95E1F7893C9105D7
:102F400010F088EC90E02C813D81820F931F8C154E
:102F50009D0518F5C60144E0969587954A95E1F7D9
:102F600082179307D0F480912101833018F483E015
:102F70008093210180911F01E82FF0E0DF01A0572D
:102F8000BE4F9C9216968C92EE0FFF1FE456FE4F9A
:102F9000D182C0828F5F80931F01682D892D28D038
:102FA00088E087B988B914B815B86996E2E10C943D
:102FB000FD3E80916F018F5F80936F01222381F32B
:102FC000398130936C0180926D0190926E01E8CF4F
:102FD00021E0809155018F5F80935501222301F3F9
:102FE0004981409352019092530180925401D8CF6D
:102FF000A0E0B0E0EEEFF7E10C94E33E982E862ED1
:10300000A895E62FF0E0ED5BFE4F549033962491A7
:10301000E82FF0E0ED5BFE4FE4903396F4903091B2
:103020006F018091550190E0830F911D892B09F06C
:10303000C7C1A8958091250190912601880F991FFD
:10304000880F991F90933701809336018091740106
:1030500090917501880F991F880F991F90933501E2
:10306000809334018EEB8093320188E088B9286028
:1030700027B9E4B8E5B858E1D52EC0E0D0E0882DF6
:103080000E945D0D782E692E892D0E94610D8C01A4
:103090008C1B9D0B97FF03C0919581959109039718
:1030A0002CF0A895DA94E1F1E801E9CFEE0C15B81F
:1030B000E4B8892D0E945D0D8135910588F5E5B84C
:1030C000892D0E945D0DEC018F2D886087B9F8B8BD
:1030D00015B854B888E1482EC12CD12C892D0E94F6
:1030E0005D0DB82EA92E882D0E94610D7C019C01DA
:1030F0002C193D0937FF03C0319521953109233043
:10310000310514F5550C54B8882D0E945D0D6C01E5
:10311000003C94E41907E8F4C53881E0D807E8F0EA
:10312000809125019091260190933701809336017B
:1031300080917401909175019093350180933401D1
:1031400089E1809332013CC1A8954A9449F3670113
:10315000C5CFC03B9DE4D90718F784EAE81682E0A2
:10316000F80608F063C098E9C916D104C8F20091C6
:103170003601109137019E01A8E9B7EB0E94373E56
:1031800098012C1B3D0B40E050E00E94F33D2901CB
:103190003A0198012C193D09A8E9B7EB0E94373E86
:1031A000860120E030E0A90198010E94F33DC83774
:1031B000DF4070F4C301B201B2E0660F771F881FD1
:1031C000991FBA95D1F7620F731F841F951F12C004
:1031D00098E7C9169FE0D906A0F4CA01B901A2E098
:1031E000660F771F881F991FAA95D1F7640D751D6B
:1031F000861D971D25E030E040E050E00E94F33D41
:1032000008C0240D351D461D571D56954795379509
:103210002795A4E6B0E00E944C3E6B017C018CEA4D
:10322000C80E8DE0D81EE11CF11C73C0272D362D71
:103230000217130708F49801CB2DDA2DCE15DF0500
:1032400008F4E70159012017310708F45801A0914B
:103250002201B0912301C501821B930B9C010E94A6
:10326000373E20913601309137012A193B0940E061
:1032700050E00E94F33D29013A018E01EC16FD0653
:1032800008F48701A0911B01B0911C019E01201B35
:10329000310B0E94373E6801E12CF12CA701960109
:1032A0000E94F33D98E7A9169FE0B90670F4C301A8
:1032B000B201E2E0660F771F881F991FEA95D1F7E8
:1032C000620F731F841F951F11C008378FE0180706
:1032D000B0F4CA01B90152E0660F771F881F991F29
:1032E0005A95D1F7640D751D861D971D25E030E0B8
:1032F00040E050E00E94F33D69017A010AC0690193
:103300007A01C40CD51CE61CF71CF694E794D794FC
:10331000C79410912101143008F002CF9A94980CB0
:10332000892D90E0EC01C65ADE4F2881880F991F45
:10333000880F991FFC01E755FE4F2223D1F14080F1
:10334000518062807380A7019601241935094609CE
:10335000570957FF07C050954095309521953F4F2D
:103360004F4F5F4FAAE0B0E00E944C3EA301920194
:103370002C593F4F4F4F5F4F2C0D3D1D4E1D5F1D74
:103380000E94F33D232B242B252B09F0C9CE1330AB
:1033900019F081E08093210182E088838091760199
:1033A000E82FF0E0E35AFE4F90828F5F8093760122
:1033B000B7CEC082D182E282F38281E08883B0CE30
:1033C000CDB7DEB7E0E10C94FF3ECF93C82FC09598
:1033D00095B160FF02C0982B01C09C2395B994B1B0
:1033E000982B94B982E00E94290D84B18C2384B972
:1033F00085B18C2385B9CF910895A0E0B0E0E3E0DA
:10340000FAE10C94E93E8AE0D82E98E0C92E2FE329
:10341000A22E39E0B32EC7B8C8B815B8A4B880E05A
:103420000E945D0D8C0181E00E94610DEC0182E043
:103430000E94610D20912101293081F428E027B9F3
:1034400014B81093090100930801D0930B01C093A5
:103450000A0190930D0180930C0155C004301105B1
:1034600040F4C430D10550F48430910538F329E09C
:1034700009C0083E134010F028E001C029E0C83E12
:10348000D34008F42260883E934008F4246027B9B2
:10349000C0E0D0E0A89580E00E94550D7C0181E05D
:1034A0000E94610D8C0182E00E94610D24E1E21610
:1034B00025E0F20608F4389A043135E0130708F4E1
:1034C000399A843125E0920708F43A9A36E0E316F7
:1034D000F10428F40630110510F4069738F021960F
:1034E000C43F81E0D807B1F6B092210100E010E0BE
:1034F0000C171D0729F00E94170D0F5F1F4FF8CF03
:10350000DA9409F088CFCDB7DEB7EAE00C94053F36
:10351000CF92DF92EF92FF92CF9320917A01309178
:103520007B0140917C0150917D01C0918C018AE02A
:10353000C82ED12CE12CF12C8C2FCF5F213A96E8AC
:10354000390791E04907510538F0CA01B901A701CF
:1035500096010E94F33DF0CF80938C01A09136013B
:10356000B09137010E944C3E28E833E140E050E042
:103570000E94F33D20937A0130937B0140937C01BC
:1035800050937D01CF91FF90EF90DF90CF90089501
:10359000A4E0B0E0EEECFAE10C94E73E982E862E23
:1035A0008FEF860F992D990F990D890F80935701F1
:1035B000E92DF0E0ED5BFE4F1491E62FF0E0ED5BBE
:1035C000FE4FF490E62FF0E0EA5BFE4F049180910D
:1035D0002101813009F4ABC240911F0186E991E0DD
:1035E0006CE971E0DC012A2F281B2417A0F42D912F
:1035F00028110EC09D0127503109F90120812911A0
:1036000007C0FB01208131812C3D354008F48FC279
:103610006E5F7F4FE8CF086010928701109286019D
:1036200081EF80938C0110927A0110927B011092AD
:103630007C0110927D01E1DE88E088B907B9F4B819
:10364000F5B8892D0E94610D7C01882D0E94610DC5
:10365000E81AF90A14B81092590110925801C12CB5
:10366000D12C8091580190915901843F914050F59F
:1036700015B914B90E94110D14B815B80E94180D8F
:10368000A895892D0E94610D6C01CE18DF088091EC
:103690005801909159018E37910528F02BE4C216FC
:1036A000D1040CF43FC25DE2C51651E0D50684F4A6
:1036B00080915801909159010196909359018093FE
:1036C0005801CFCFFDE2CF16F1E0DF060CF42AC29D
:1036D0008091580190915901892B21F0C60100E099
:1036E00010E006C025E1C21625E0D206BCF385C075
:1036F00020915801309159012017310758F00E944C
:10370000120D892D0E94610D8E199F09A8950F5FDA
:103710001F4FEECF8601081B190B1016110694F4EB
:10372000093C11050CF0FEC128EE33E0D8010E94DF
:10373000463E9601442737FD4095542F0E94F33DA5
:10374000790102C0E12CF12CA0905801B0905901F0
:103750005FEFA51AB50AC501A0E0B0E08093820131
:1037600090938301A0938401B0938501C601800FDB
:10377000911F29D29C01D5010E94373E609382019E
:1037800070938301809384019093850160937A0103
:1037900070937B0180937C0190937D0187EF8093F0
:1037A0008C01B6DE20917A0130917B0140917C0141
:1037B00050917D0185E393E029833A834B835C83B9
:1037C0000E94643FA8EEB3E0A81BB10987FDB39542
:1037D00029813A814B815C810E94563E24E630E08B
:1037E00040E050E00E94F33D20937A0130937B014A
:1037F00040937C0150937D0153C1FFDD15B88FE0EC
:1038000087B988E088B9F12EFF0CF4B880E4809382
:103810007B0084E580BF892D806480937C0087E1F4
:1038200080937A000E941B0D10925901109258014A
:1038300010928000109285001092840087E286BB6F
:1038400081E280936F0081E080937701F5B89091D9
:10385000210180938100953059F481E090E0092C9A
:1038600001C0880F0A94EAF780958F7087B901C06C
:1038700007B9F89483B7817F83BF8091770188234C
:1038800089F083B7816083BF7894889583B78E7FF2
:1038900083BFF894A8958091580190915901803880
:1038A0009C4059F7789410928100E0908600F09047
:1038B000870010926F0087E980937A0014B815B8DA
:1038C000892D0E94610D20913A0130913B01821BAC
:1038D000930B0C9690938F0180938E0180915801E9
:1038E000909159018034964008F01CC18091580194
:1038F000909159019093850180938401F092830106
:10390000E092820184EF80938C0180915801909124
:10391000590182349105C8F0609182017091830150
:10392000809184019091850124E630E040E050E0F0
:103930000E94F33D209382013093830140938401E0
:103940005093850186EF80938C01A0917801B0910E
:10395000790120918201309183014091840150913D
:1039600085010E944C3E20E436E040E050E00E9499
:10397000F33D20938201309383014093840150935F
:10398000850120937A0130937B0140937C01509311
:103990007D01BEDD80918C01843F09F071C0C09033
:1039A0007A01D0907B01E0907C01F0907D0120EACB
:1039B000C2162FE0D206E104F104C0F4A70196017B
:1039C0002C543F4F4F4F5F4F60EA7FE080E090E024
:1039D0000E94F33D2C0D3D1D4E1D5F1D20937A016D
:1039E00030937B0140937C0150937D01C0907A011C
:1039F000D0907B01E0907C01F0907D01C114D10456
:103A000051E0E506F10428F4D092BA01C092B90160
:103A100006C081E090E09093BA018093B901809153
:103A2000570190E08E5A9C4F0E94643F482F50E00F
:103A300060E070E04C155D056E057F0568F4C41A02
:103A4000D50AE60AF70AC0927A01D0927B01E09289
:103A50007C01F0927D0114C084E1C80ED11CE11CF0
:103A6000F11CC416D506E606F70610F40E946A118A
:103A700010927A0110927B0110927C0110927D01CC
:103A800014B980917A0190917B01A0917C01B09151
:103A90007D014997A105B10508F444C0E12CF12C42
:103AA00080911F01882321F0809121018530D1F57B
:103AB00088E08093210120918C0180918D018217F3
:103AC000BCF028132FC040917A0150917B01609186
:103AD0007C0170917D0180917E0190917F01A09188
:103AE0008001B091810184179507A607B707D0F42C
:103AF00080917A0190917B01A0917C01B0917D0130
:103B000080937E0190937F01A0938001B093810107
:103B100020938D01F0928901E092880180928A01C0
:103B200090928B0188E087B988B914B815B82496AB
:103B3000ECE00C94033F1F920F920FB60F921124EA
:103B40008F939F93B59904C080917701811109C02B
:103B5000B59B10C080918600909187008A3F9105A7
:103B600048F4809158019091590101969093590120
:103B7000809358019F918F910F900FBE0F901F90CF
:103B800018951F920F920FB60F9211248F939F9347
:103B900010927701B09B10C08091860090918700B1
:103BA0008A3F910548F480915801909159010196FE
:103BB00090935901809358019F918F910F900FBE60
:103BC0000F901F9018950F9221E08C32920710F4FD
:103BD0008CE291E08C52914069E170E00E94CC3D12
:103BE00099E16B3210F0982F6BE2981BE6EDF2E052
:103BF000E60FF11DE60FF11D9F93CF010E94643F78
:103C0000482F3196CF010E94643F582F3196CF0143
:103C10000E94643F282F3196CF010E94643F382FC5
:103C20006F91421B530B649FC001659F900D11243F
:103C30000C9669E170E00E94CC3D620F731FCB01CE
:103C40000F900895A0E0B0E0E8E2FEE10C94E63EBB
:103C500088E893E1909326018093250190933701A2
:103C6000809336018EEB80933201C8E0C8B988E1B9
:103C700087B90E94200DC7B984E00E945D0DAC0198
:103C80008B5C9840833F9140A0F481E08093410198
:103C90002091360130913701AFEBB9E00E94373EF9
:103CA0009A0140E050E00E94F33D309326012093BA
:103CB00025018091250190912601909337018093F1
:103CC00036018EE00E94610D8EE00E945D0D9093A2
:103CD0003B0180933A010E941F0E8FDB88E0782E13
:103CE00078B8C9E0C7B985E185B9D1E0D4B980E039
:103CF0000E945D0D7C011AE017B904E004B981E06F
:103D00000E945D0DE80EF91E9CE0992E97B820E107
:103D1000822E84B882E00E945D0DE80EF91E15B86F
:103D2000C8B9C7B9D4B9C0913601D091370180E084
:103D30000E945D0D5C0118B917B904B900913601F4
:103D40001091370181E00E945D0D6C0198B897B821
:103D500084B8809036019090370182E00E945D0D1A
:103D6000C00FD11FC80DD91DCA19DB09CC19DD0937
:103D7000C81BD90B77B878B814B8809136019091E8
:103D800037014C01880C991C880E991E8E189F08CB
:103D90008C1A9D0AA12CB12C9701A0E9BAE10E94CE
:103DA000373EA50194010E94F33D69017A013093E9
:103DB000400120933F019E01A0E9BAE10E94373EF5
:103DC000A50194010E94F33D3093390120933801FD
:103DD0002057354E309323012093220180E7C81AE3
:103DE00085EED80AD0921C01C0921B0189E1809314
:103DF0003201CDB7DEB7EDE00C94023FFF920F9396
:103E00001F93CF93DF93C82FD62FF42E0E94390A29
:103E10008FED90E00E94A00AE1D16D2F8C2F0E94BF
:103E20009C31C1E00091BD011091BE012091BF0104
:103E30003091C001011511052105310509F0C0E0DF
:103E40008091050187FD02C0C11104C08BED90E097
:103E50000E94A00A8D2F0E94390AC11106C00E943B
:103E60003C0A80915D010E94460BFF2049F0809141
:103E700042018D3028F490E08A5A9C4F0E94A00A9B
:103E800080E00E94790AC1111BC06091BD01709150
:103E9000BE018091BF019091C00103E028E447EF8B
:103EA0000E94B30B8EEE90E00E94A00A87E693E09A
:103EB0000E946C3F23E046E464EF0E94A20C1AC00B
:103EC00080915D010E94460B809105018E3F94F424
:103ED00086E091E00E94A00A60910E0170910F01AE
:103EE000809110019091110103E028E440910501B7
:103EF0000E94B30B8091B5019091B601A091B701DA
:103F0000B091B801892B8A2B8B2BF1F080E00E94B5
:103F1000790A6091B5017091B6018091B7019091D5
:103F2000B80104E028E440E00E94B30B89EE90E081
:103F30000E94A00A23E040E26FEF8091BB019091C4
:103F4000BC010E94A20C07C080E00E94560A80912A
:103F50004501811102C00E94500ACDB7DEB7E5E0ED
:103F60000C940A3F0F931F93CF93DF93082F0E9467
:103F7000B90880918A010E94390A82E291E00E9488
:103F8000A00A10D560918A0180918B015BD3909338
:103F900087018093860111E08A3F9F4F08F010E06F
:103FA000C0918801D0918901112321F080EE90E029
:103FB0000E94A00A80918B010E94390A002359F0C7
:103FC000909142018DE0891B0E943F0A84E790E0B6
:103FD0000E94A00A02C00E94500A0E9489086091B3
:103FE0007E0170917F01809180019091810104E0B8
:103FF00026E440918D010E94B30B112369F081E109
:1040000091E00E94A00A22E044E06EEF80918601D8
:10401000909187010E94A20C0E94500A0E948F0872
:10402000CD2B69F08AE091E00E94A00A22E045E2EF
:104030006FEF80918801909189010E94A20C0E94EB
:10404000500ADF91CF911F910F9108958F7021F445
:104050000E9495080C94CB1108958F3021F4909113
:104060003C01913011F08F5F089580E00895CF9367
:104070008FE790E00E94752BC0E00E94980E60E0F0
:1040800082E00E94F81762E080E00E94F8170E9428
:10409000B90880917601882329F041E062E080E050
:1040A000ADDE12C08FE790E00E94A00A80E693E0A8
:1040B0000E94A00A0E9489088FE30E94F00980E014
:1040C0000E94560A0E94500A8C2FC0DF88EE93E0AF
:1040D0000E94BF0D811105C08C2FBFDFC82F8A3F02
:1040E00060F20E94C008CF9108950F931F93CF9361
:1040F000DF93C0E0D8E012EF0DE00E94980E60E080
:1041000082E046DAD093210180918C01843FE1F472
:1041100040917A0150917B0160917C0170917D0109
:10412000443651056105710578F440E060E082E0B5
:104130000E94462F60937A0170937B0180937C01EB
:1041400090937D0110938C0180918C01823FACF0A3
:1041500080938D0140917A0150917B0160917C01A7
:1041600070917D0140937E0150937F0160938001A7
:104170007093810181E0F6DE1CC00E94B90888E7D7
:1041800090E00E94A00A80914201902F981B892FF5
:104190000E943F0A84E790E00E94A00A0E948908DA
:1041A0008FE30E94F0090E94500A0E948F080E942B
:1041B000500A8C2F4BDF88EE93E00E94BF0D8111D7
:1041C00006C08C2F4ADFC82F8A3F08F496CF0E9482
:1041D000C008DF91CF911F910F910895A3E1B0E046
:1041E000E4EFF0E20C94E13E82E0809305018091DF
:1041F0002101813009F022C280917601813009F0DD
:104200001DC220905D0124E0229EF0011124E7559B
:10421000FE4F80819181A281B381893032E593077D
:10422000A105B10508F00AC29B8B8A8B312C61E095
:10423000822D631528F00E943C0BB82EA92E03C0D6
:104240000E943C0B5C01EA2DF0E0EA5BFE4F7490AB
:10425000EB2DF0E0ED5BFE4FE49115B888E088B9F6
:104260002A893B89203F310598F430FC11C0009128
:104270001B0110911C0100591A4181E090E00B2CA8
:1042800001C0880F0A94EAF78860872987B908C0B7
:10429000E4B9872D886087B900911B0110911C013A
:1042A00044E1642E8B2D0E94590D4C018A2D0E94F1
:1042B000610D34E08316910410F4049710F06A94B1
:1042C00089F760E460937B0084E580BF8B2D806478
:1042D00080937C0087E180937A00E12CF12C10928E
:1042E0008000109285001092840087E286BB0E94B5
:1042F0001B0D932D9170998B30FC05C081E8809344
:10430000810078B808C078B80E94240D80E286BB8E
:1043100081E88093810046B345FF13C028E028B9A7
:104320001092810080E286BB809186009091870088
:104330006C0120918400309185008217930768F00A
:1043400013C040FFE8CF31E036BBA895C701019606
:104350007C01803A9105F9F6E1CF40FF05C061E0AC
:1043600066BB8FEFE81AF80A87E980937A0034E198
:10437000732E8B2D0E94590D4C018A2D0E94610DC8
:1043800024E08216910410F4049710F07A9489F7CF
:1043900080903F01909040018A899B89880E991EE8
:1043A000800E911E20911D0130911E0100399AE16D
:1043B0001907B0F461EEC616D104E104F10438F433
:1043C000C60165E070E00E94CC3D645101C069E126
:1043D00028523109261B310967FD339586E009C053
:1043E000C40168E57BE10E94CC3D87E0860F285D33
:1043F0003F4F90E0A0E0B0E08C159D05AE05BF05F5
:1044000028F4C81AD90AEA0AFB0A03C0C12CD12C25
:1044100076018989882329F09AE3C90ED11CE11C11
:10442000F11C60EAE616F10418F0C12CD12C7601DB
:104430008BE0C816D104E104F10428F091E0C91A18
:10444000D108E108F1084091360150913701A12CC3
:10445000B12CA8EEB3E00E94373E2B013C0198013D
:10446000DA010E94373EA50194010E94F33D4427E2
:104470005527C301B2010E94F33DC9010E94770E86
:10448000FC01A5019401C701B6010E94B13D4B0199
:104490005C01BF0180E090E024E0660F771F881F79
:1044A000991F2A95D1F76B5F7F4F8F4F9F4F2AE05F
:1044B00030E040E050E00E94F33D44275527C5011D
:1044C000B4010E94F33D832D90E0E1E0F0E0EC0FB9
:1044D000FD1F64E0369EE00DF11D11242083318321
:1044E000428353836989611117C064E1C616D10400
:1044F000E104F10488F0FC013196EE0FFF1FEE0F8E
:10450000FF1F81E090E08C0F9D1FE80FF91F2083B3
:104510003183428353833394A895339493E0931566
:1045200008F085CE88E088B984E00E94290D21E05A
:104530004D815E816F81788589819A81AB81BC8153
:1045400084179507A607B70708F020E04D855E851C
:104550006F85788989859A85AB85BC858417950791
:10456000A607B70710F032E001C033E0E22FF0E019
:10457000EE0FFF1FEE0FFF1F81E090E08C0F9D1FDD
:10458000E80FF91FDC0194E0399FA00DB11D112443
:104590004D915D916D917C9180819181A281B381DA
:1045A000481759076A077B0708F0322FE1E0F0E06F
:1045B000EC0FFD1F24E0329FE00DF11D11248081DE
:1045C0009181A281B38180930E0190930F01A093FA
:1045D0001001B093110130FD09C02A893B89203FA9
:1045E000310520F48BEF8093050117C02CEF209349
:1045F0000501BC01CD016B5F7F4F8F4F9F4F2AE0BC
:1046000030E040E050E00E94F33D20930E013093F3
:104610000F01409310015093110180910E01909170
:104620000F01A0911001B0911101892B8A2B8B2BC6
:1046300011F41092050188E087B914B86396E2E19D
:104640000C94FD3EAEE1B0E0E8E2F3E20C94E13E12
:10465000662EB82E860F898320912101283059F5C6
:1046600020917E0130917F01409180015091810124
:1046700057FD15C010918D0109C0CA01B9012AE08A
:10468000312D412D512D0E94F33D1F5F173FACF39B
:1046900091F42A3560E036074105510518F48FEF93
:1046A0009FEF7CC1173F39F480E028178DE738076A
:1046B0004105410510F020E03DE72C8B3D8B27EDB7
:1046C000A22E02C095EDA92EE6E4F1E0E60DF11D63
:1046D000859188608E87E6E4F1E0EB0DF11D859110
:1046E00088608F87E3E4F1E0E60DF11D7590E3E467
:1046F000F1E0EB0DF11DC59090EC692AB92A81E03B
:10470000E82EF12C012D112D8E831F82188619861B
:104710001A861B861C861D86188E198E1B8E1A8E75
:104720000E94FD1988E088B960927C000E941C0DEF
:104730003F8537B975B874B80E94230D14B815B801
:10474000DD24B5ED9B2EA7ED8A2E3E8537B975B8D1
:1047500074B860927C00A895A0927A0080917A004B
:1047600086FDFCCFA0927A0080917A0086FDFCCF76
:104770002090780030907900B0927C00A0927A006E
:1047800080917A0086FDFCCF80927A000E94210DF4
:104790000E94220DC5B8C4B80E94220D0E94240DAB
:1047A000A89514B815B880917A0086FDFCCF2091A9
:1047B000780030917900288B398B3F8537B9C5B89F
:1047C000C4B8A895B0927C00A0927A0080917A003B
:1047D00086FDFCCFA0927A0080917A0086FDFCCF06
:1047E000609178007091790060927C00A0927A00CC
:1047F00080917A0086FDFCCF80927A000E94210D84
:104800000E94220D75B874B80E94220D0E94240DDA
:10481000A89514B815B880917A0086FDFCCF409118
:1048200078005091790014B8CB01820D931DE80EE9
:10483000F91E011D111DEA82FB820C831D838889EC
:104840009989840F951F2E813F8168857985280F6E
:10485000391F611D711D2E833F836887798722E38D
:104860002417150650F075B874B80E94260D14B8B8
:1048700015B8888D8395888F07C0483E73E0570729
:1048800018F08A8D83958A8F888999892817190647
:1048900060F03E8537B9C5B8C4B80E94260D14B87B
:1048A00015B8898D8395898F07C0883E73E0970777
:1048B00018F08B8D83958B8FD3945D2D5F3F09F01E
:1048C00044CF40903F0150904001440C551C920150
:1048D000E4E0240D351DEA95E1F72901570168014F
:1048E0006E807F8088849984209121012830C1F4D2
:1048F0006C897D89812D912D685370408040904056
:104900009B01AC010E94B13D9B01AC016FEF71ECCA
:104910008EE390E00E94F33D621A730A840A950ABE
:10492000A614B704C804D90428F46A187B088C08B4
:104930009D0803C0662477244301B20180E090E023
:104940009301A4010E94B13D9501A6010E94F33D8F
:1049500081E393E07981870F911D0E94643F90E08D
:10496000682EC90160E170E00E94CC3D260F371F20
:10497000C9016816190618F4861991090FC08C5ED2
:104980009F4F8615910540F48C899D89843981E17A
:10499000980710F00E946A11812D912D6E96E2E128
:1049A0000C94FD3EA4E0B0E0E8EDF4E20C94E93EA6
:1049B0008091880190918901892B09F0B5C0E0911F
:1049C0008A01F0E0EA5BFE4F04910860E0918B0100
:1049D000F0E0ED5BFE4F14910E94FD1988E088B96C
:1049E00015B807B914B980918B010E94610D5C0163
:1049F00000918D018CE0800F843008F095C0015F3C
:104A000080917E0190917F01A0918001B091810100
:104A10002AE0C22ED12CE12CF12CBC01CD016B5F20
:104A20007F4F8F4F9F4FA70196010E94F33D0F5F6D
:104A3000073019F0DA01C901F0CF293883E13807CE
:104A40004105510508F070C02530310508F46CC0EF
:104A500015B914B900E010E00217130768F42983B0
:104A60003A834B835C830E94220D0E5F1F4F5C8153
:104A70004B813A812981F0CF14B815B8A89585E00B
:104A80008093320180918B0129833A834B835C832D
:104A90000E94610D29813A814B815C81A816B9067B
:104AA00020F47C01EA18FB0802C0E12CF12C00E0A4
:104AB00010E00217130768F429833A834B835C8361
:104AC0000E94220D0F5F1F4F5C814B813A8129812B
:104AD000F0CF80918B010E94610D29E1209332017A
:104AE000A895A816B90618F48A199B0902C080E097
:104AF00090E08E159F0588F49701281B390B69F00B
:104B0000A4EFB1E00E94373E970140E050E00E94E0
:104B1000F33D30938901209388010E94FD1988E0BC
:104B200087B988B914B815B82496EAE00C94053F03
:104B3000A5E0B0E0EEE9F5E20C94E13E89E192E017
:104B4000D4D520EF2B8354980E94170D14BC16BCAB
:104B5000109215011092160110921701109218016F
:104B600031E035BB30936E001092800085E294EF07
:104B700090938B0080938A00E1E0F0E0F09389004D
:104B8000E0938800109285001092840083B58160C4
:104B900083BDF6E0F6BBF0936F00789424E0209399
:104BA000810012E31A820E94100DA8954F9902C04D
:104BB00031E03A8385B5811127C015BC86B5809355
:104BC00015010E948F080E94500A0E9495080E94B9
:104BD000500A0E94800A86E60E94F0090E94840A18
:104BE0006091150170911601809117019091180143
:104BF00047E00E94B70C549880918100882339F0D7
:104C00008FE30E94F00903C0115069F6D6CF1092CD
:104C1000810010926F002091150130911601409192
:104C2000170150911801DA01C9010197A109B109D1
:104C3000893D9146A105B10508F0FAC0AAE0B0E0AF
:104C40000E944C3E605F7F4F8F4F9F4F24E09695B0
:104C50008795779567952A95D1F7660F771F70939B
:104C600071016093700154980E94170D16BC109248
:104C7000150110921601109217011092180181E08F
:104C800085BB80936E00109273011092720194E0C4
:104C90009BBB8091680084608093680078948091C9
:104CA0006D00806180936D0019820E94100DA8959F
:104CB0004F9902C0E1E0EA8380916D0084FF05C056
:104CC000F981FF5FF983FA3F81F715BC80916D0090
:104CD0008F7E80936D00809168008B7F8093680049
:104CE00086B5809315010E948F0884E50E94F00923
:104CF0000E94840A6091150170911601809117013C
:104D00009091180120917001309171013D832C83A5
:104D100024ED30E340E050E00E945C3EEC81FD81F8
:104D20005F01C12CD12CE12CF12C00E010E00E949D
:104D3000853E39014A011B012C012C813D8120381F
:104D4000310530F007E023E745EFB301C40116C099
:104D500084E6A82EB12CC12CD12CE12CF12C00E042
:104D600010E09301C2010E94853EE22FF42F07E07C
:104D700023E747EF6E2F732F8F2F952F0E94B30BD2
:104D800039813A3F21F48FE30E94F00951C0930129
:104D9000A401B101C2012C393E4C434051056105CB
:104DA00071058105910509F008F442C00E9495083B
:104DB00086E60E94F0090E94840A9301A401B101D1
:104DC000C201530164017101820121153A4C4A4923
:104DD0005B43610571058105910589F080F020E054
:104DE00030E04AE85DE568E775E483E691E00E941B
:104DF000853EE22FF42F07E028E44AEF0FC020E0C1
:104E000030E846EC54EA6EE77DE883E090E00E94EB
:104E1000853EE22FF42F07E028E44CEF6E2F732F2E
:104E20008F2F952F0E94B30B8AE70E94F0095498A8
:104E300010926E0080ED97E00E94BF0D2A81820FD4
:104E400029F43B8131503B8331117DCE2596E2E13F
:104E50000C94FD3E1F920F920FB60F9211248F9368
:104E60009F93AF93BF937894809115019091160111
:104E7000A0911701B09118019F5FAF4FBF4F809372
:104E8000150190931601A0931701B0931801BF91DB
:104E9000AF919F918F910F900FBE0F901F9018951B
:104EA0001F920F920FB60F9211248F9386E085BD4B
:104EB0008F910F900FBE0F901F9018951F920F9219
:104EC0000FB60F921124A8951092810015BC0F9077
:104ED0000FBE0F901F9018951F920F920FB60F9252
:104EE00011242F933F938F939F9380917201909100
:104EF0007301892B11F481E085BD209172013091FD
:104F0000730180917001909171012817390730F079
:104F100015BC80916D008F7E80936D008091720131
:104F200090917301019690937301809372019F9108
:104F30008F913F912F910F900FBE0F901F9018955A
:104F40008C3008F08C50811103C084E292E036C0AE
:104F5000813019F489E192E031C0823019F489EE90
:104F600091E02CC0833019F48EED91E027C084309D
:104F700019F48AE890E022C0853019F48FE790E0B8
:104F80001DC0863019F488E790E018C0873019F406
:104F90008EEC91E013C0883019F485EB91E00EC0DF
:104FA000893019F48BE991E009C08A3019F48FEF48
:104FB00091E004C08B3021F485EF91E00E94A00ABB
:104FC0000C94500A08950F93CF938AE890E08DD304
:104FD000C0E01092210160E082E0A3D38091210122
:104FE0008830C1F50E94890883E40E94F0090E947C
:104FF000840A60917E0170917F018091800190917F
:10500000810103E026E440918D010E94B30B0E94D0
:10501000500A60918A0180918B0114DB9093870183
:10502000809386010E948F0882E191E00E94A00A8D
:1050300080918601909187018A3F2FEF920730F48B
:1050400022E044E06EEF0E94A20C08C08FE30E94B1
:10505000F00904C00E94800A0E948F080E94500A32
:105060008C2F0E94262088EE93E00E94BF0D8111B4
:1050700007C08C2F0E942D20C82F8A3F08F4A9CF8B
:10508000CF910F9108950895A5E0B0E0EAE4F8E229
:105090000C94E13E89EE91E028D380E1809380007A
:1050A00010926F0081E090E09093890080938800D7
:1050B00010928B0010928A0083E086BB10928200CF
:1050C00088E08093810015B891E194B988B989E0AE
:1050D00087B9229A80938100212C1B822AE02983A0
:1050E00033243394812C912C5401839411E1822D2B
:1050F00090E00A966EE170E00E94E03D662E562E2A
:105100003B81631789F00E94B90889EE91E00E9403
:10511000A00A712C751428F48EE20E94F009739491
:10512000F9CF0E94500A6B821231C8F0C701B60154
:10513000A50194010E94F33D2B013C01832D69815F
:105140000E94C03DA92FB0E0A50194010E944C3EF1
:105150006B017C01C40CD51CE61CF71C0CC0832D14
:1051600069810E94C03DA92FB0E0A50194010E9471
:105170004C3E6B017C010E9489088981381208C06D
:1051800081E0123108F480E08A83811106C001C0F9
:105190001A82163120F48EE303C08CE301C082E54D
:1051A0000E94F0090E943C0A412FC701B6010E94EB
:1051B000B70CC701B6017C5D8B409F4FA7019601DC
:1051C000220F331F441F551F0E94F33DCA014F3F5A
:1051D000510539F030F08DE08093810080E094E05B
:1051E0001FC04034510530F08CE08093810080E096
:1051F00091E016C04830510530F09BE0909381005B
:1052000080E490E00DC0892B31F0EAE0E09381006A
:1052100088E090E005C0F9E0F093810081E090E043
:105220002C01612C712CCA01B901A30192010E94C9
:10523000F33DC90101979093890080938800809184
:10524000880090918900892B31F421E030E030937F
:105250008900209388000E94500A0E948F0886E6E9
:105260000E94F0090E943C0A809188009091890078
:105270009D838C8360E072E18AE790E0A301920154
:105280000E94F33DA4E6B0E00E944C3EEC81FD811B
:1052900031969F0140E050E00E94F33D29013A0120
:1052A000A4E6B0E0A70196010E944C3E461A570AB8
:1052B000680A790A05E228E44EEFC301B2010E94B0
:1052C000B30B8AE70E94F0090E94500A8CED95E02A
:1052D0000E94BF0D882309F443C0863960F0109204
:1052E00081001092800088E087B914B82298259632
:1052F000E2E10C94FD3E813578F1FA81FF23D9F08B
:105300001150C501B4012AE030E040E050E00E94B5
:10531000F33D49015A01C701B6010E94F33DCA019C
:10532000B9012AE030E040E050E00E94F33D362E23
:105330002AE0298331C0163130F51F5F163111F490
:1053400035E13983AAE0B0E0A50194010E944C3E0A
:105350004B015C01312C20C08B3008F03394212CA0
:10536000832D90E0E9816E2F70E06F5F7F4F0E9488
:10537000E03D382E822D0E942D20282EFFEEF817BA
:1053800008F0B5CEACCF2AE0298333243394812CA6
:10539000912C5401839411E1212CA9CEA4E0B0E01A
:1053A000E4EDF9E20C94E53E8EED91E09ED183E2CE
:1053B0008093800010926F008FEF90E090938B00AD
:1053C00080938A0083E086BB1092820015B881E149
:1053D00084B988E088B929E027B9229A81E090E071
:1053E00090938900809388002093810010E000E072
:1053F000A2E37A2E612CB4E6CB2ED12CE12CF12C39
:1054000088248A9483E0982EA12CB12C7016E9F19F
:1054100083E6871510F4ECE97E0E272D30E0AFEF20
:10542000B3E00E94373E6E5C7F4F8F4F9F4FA701C6
:1054300096010E94F33D30938B0020938A002983CC
:105440003A834B835C830E948908A8EEB3E02981EC
:105450003A814B815C810E944C3E61507E4F8F4F60
:105460009F4FA50194010E94F33DDA01C90125E097
:1054700045E26FEF0E94A20C0E94500AF8E2F61576
:1054800018F48CE30E94290D072D80E496E00E9419
:10549000BF0D682E82E8861560F488E087B9109207
:1054A00081001092800014B822982496EEE00C94AB
:1054B000013FE2E3E61518F4FAE07F0E03C0662030
:1054C00011F0739410E0812F0E942D20182F803F3F
:1054D00008F49CCFE2CFCF93DF938BE991E005D125
:1054E00080E393E00E94643FC82FD0E081E80E94EF
:1054F000AB088C2F0E94AB080E94890824E040E290
:1055000060E08C2F90E00E94A20C0E94500A80E480
:1055100096E00E94BF0D882331F0823850F4893222
:1055200080F0CF5FD0E08D2F0E942D20D82F803FBC
:10553000E8F26C2F80E393E00E94713FDF91CF91FE
:105540000895C150EFCF0F931F93CF93DF938EEC4D
:1055500091E0CBD085E393E00E94643F182F00E0F8
:105560000E948908C12FDD27C7FDD09517FF0BC00A
:105570008DE20E94F00923E045E26FEF882799272A
:105580008C1B9D0B04C023E045E26FEFCE010E940F
:10559000A20C0E94500A80E496E00E94BF0D88236E
:1055A00031F0823888F48932C8F01F5F00E011358D
:1055B00014F0155603C01C3E0CF41B59802F0E949A
:1055C0002D20082F803F60F2612F85E393E00E9439
:1055D000713FDF91CF911F910F9108951150E6CF48
:1055E000813019F480E0A4CA0895823011F44CCDC2
:1055F0000895833011F4D2CE0895843011F4E3CCB1
:105600000895853019F40C9437200895863029F4D4
:105610000E94C0080C9475200895873011F493CF30
:105620000895883021F481E10C94150F0895893094
:1056300011F451CF08958A3011F4B5C108958B301B
:1056400029F45E9880E090E00C94BF0D0895FF92DD
:105650000F931F93CF93DF9384E392E046D0D0E083
:10566000C0E01BE01C0FF12C01E00F0D60E0802F6B
:10567000880F0E947C0881E0F81204C08EE30E942B
:10568000F00902C00E943C0A1C3018F084EF810F20
:1056900001C0812F55DC1F5F033011F0F02EE4CFE5
:1056A00080E49FE10E94BF0D8111D0E090913C0108
:1056B000913009F4D0E0823340F0CC2381F08C2F7C
:1056C0008FDF84E392E011D002C08111CF5FDF5FF2
:1056D000D83728F4CC3008F4C4CFCC50C2CF80E007
:1056E000CDB7DEB7E5E00C940A3FA2E0B0E0EBE70F
:1056F000FBE20C94F03E89839A830E94C008898162
:105700009A810E94A00A14E682E00E94290D4F9916
:1057100002C01150C9F70E9489082296E3E00C9458
:105720000C3FA4E0B0E0E7E9FBE20C94E63E882EF3
:10573000762EE62FF0E0EA5BFE4F14911860E82F1A
:10574000F0E0ED5BFE4FB490E62FF0E0ED5BFE4F36
:105750000491109287011092860110927A011092A2
:105760007B0110927C0110927D0187EF80938C0168
:105770000E94FD1988E088B917B904B905B9882DC8
:105780000E94610D8C01872D0E94610D081B190B71
:1057900014B8109259011092580120E030E09CE2B8
:1057A000E92EFF24F3944AE0A42E54E6952E80912E
:1057B000580190915901843D904308F069C0B5B8F3
:1057C0008091580190915901892B89F06701C21A83
:1057D000D30A6091580170915901A29EC001A39E05
:1057E000900D11240E94CC3DC616D70650F4B4B8D3
:1057F0000E941B0D14B88091580190915901019697
:1058000028C080915801909159010B97C8F0609180
:10581000580170915901929EC001939E900D1124E0
:105820000E94CC3D6C157D0558F4B4B80E94100D53
:1058300014B880915801909159018C599F4F09C01B
:10584000B4B80E94160D14B8809158019091590176
:105850000A96909359018093580115B80E941D0D26
:10586000A895882D0E94610D9C01201B310B809111
:105870005801909159018B31964020F02532310525
:105880000CF488C02D3281E038070CF490CF05C0AD
:105890002D32F1E03F070CF47DC0809158019091CA
:1058A0005901019729F4253145E034070CF072C005
:1058B0000091580110915901000F111FA80160E0DB
:1058C00070E0409382015093830160938401709350
:1058D0008501C90168E270E00E94E03DC901860FC0
:1058E000971F0E94E31D9C01D8010E94373E6093E0
:1058F000820170938301809384019093850160936A
:105900007A0170937B0180937C0190937D010E94CA
:10591000881A20917A0130917B0140917C0150914D
:105920007D0185E393E029833A834B835C830E9466
:10593000643FA8EEB3E0A81BB10987FDB3952981A8
:105940003A814B815C810E94563E20E137E240E083
:1059500050E00E94F33D20937A0130937B01409305
:105960007C0150937D0188E08093210120937E018A
:1059700030937F01409380015093810180918C018D
:1059800080938D01109289011092880170928A0192
:1059900080928B0188E087B988B914B815B824962D
:1059A000EDE00C94023FA0E0B0E0E9EDFCE20C94E5
:1059B000EC3E0E94C0088CEC90E00E94A00A0E947D
:1059C00089088CEB90E00E94A00A83E393E00E9498
:1059D000643F23E040E26EEF90E00E94A20C84E37B
:1059E00093E00E94643F23E040E26EEF90E00E946B
:1059F000A20C82E393E00E94643F23E044E06EEF58
:105A000090E00E94A20C0E948F0885EB90E00E941B
:105A1000A00A23E044E06FEF8091380190913901B2
:105A20000E94A20C0E9495088EEA90E00E94A00AB3
:105A300023E044E06FEF80913F01909140010E948C
:105A4000A20C88E99AE30E94BF0D0E94C0088AEA6E
:105A500090E00E94A00A87E593E00E94643F90E0F6
:105A600042970E94E60A88E593E00E94643F90E036
:105A700042970E94E60A84E593E00E94643F90E02A
:105A800023E046E464EF42970E94A20C0E9489083A
:105A900083E00E943F0A83E593E00E94643F90E028
:105AA00042970E94E60A86E593E00E94643F90E0F8
:105AB00042970E94E60A82E593E00E94643F90E0EC
:105AC00023E046E464EF42970E94A20C0E948F08F4
:105AD00088E190E00E94A00A89E593E00E946C3F73
