:100000000C9437080C9449080C9449080C9449083E
:100010000C9449080C9486280C9449080C94000F01
:100020000C9449080C9449080C949A1E0C946A2864
:100030000C9478280C94741E0C9449080C9449086C
:100040000C9444280C9449080C9449080C944908D1
:100050000C9449080C94010F0C9449080C9449081D
:100060000C9449080C944908520A540A590A640A23
:10007000620A5E0A5E0A600A6C0A6C0AC200BB0071
:10008000B4001008407E01013E01013E01013E0125
:10009000017E404018000720080808F800000020F2
:1000A00060A03FA06020020202FF020202101010B6
:1000B0001F000000050842818989760508C2A191C8
:1000C00089860508000402FF0010100508F878383A
:1000D0005888091003081C3E7F0D080710FF818116
:1000E00081F1E1C1FF4040404743410D080110FF4D
:1000F000FF11080310F1E1C14743410E0008202120
:1001000021122060E0E0E0FEFE0402010001037F16
:100110007F21C2C4C4C04094840007030102040EBE
:10012000080210FEFE7F7F00000000110005202065
:1001300060E0E0E00201000103C2C4C4C040070364
:10014000010204010410090A0C4269139A619B69B7
:10015000927079999F652120126F9298FF97619E06
:1001600079639F989F98209A619B699270799361B7
:100170009D9DA72097619C9A9D699FA4FF9F709861
:10018000209A6F9D9F619A9F98FF54502D31323372
:10019000209F61FF9D619F98639D699FA4209A9D08
:1001A0006F9E9A79FF2254455354222E208869135A
:1001B0009F93657013699FA420506596989CFF6378
:1001C000619C6F9F65639F79201665FF706197FF43
:1001D0009D61969C699FA420225445535422FF930D
:1001E0009E706F136F93962032632EFF506F976946
:1001F0009C9A9D699FA4209A6F9D9F619A9F98FFEA
:100200009E69639BA7209E6F9369136F9C9B659D5E
:100210009DA7202249976F9BA71569A721222088B7
:1002200069139A9BA6A0699FA4FFA79A69632D9D55
:100230009899FF9A6F9D13659D63619F6F702092DF
:10024000699BA4A165203130306E4620136F205485
:100250005031209F6120545033209A6F9B98209EEC
:100260006F9369136F9C9B659D9DA73A202231086F
:10027000030833FF3E3130306E4622209369136FFE
:100280009270619661659FA463A72E2088706F9419
:1002900070619C79209F6120136F9A799C659D9F66
:1002A000611569A6201398932E209D6120687474AF
:1002B000703A2F2F206D696B726F636F6E74726F5F
:1002C0006C6C65722E206E65742F7472616E73692A
:1002D00073746F72207465737465722000B903873C
:1002E0000358032E030703E402C302A4028802009A
:1002F00000140029003E005300690080009700AE02
:1003000000C600DF00F80012012D014901650182DD
:1003100001A001BE01DE01FF012102440268028E3C
:1003200002B502DE020903350364039403C803FE29
:100330000337047304B404F90443059305EA05493B
:1003400006B3062907AE074808FF08DE09000000CB
:10035000000000000000000000000000001E21213D
:10036000211200807F0000007E4A4A4A34000000CB
:10037000000000FC40201008040201000000010100
:1003800001010101010101010101017F0488D0E0A7
:10039000F0F8000000000000000000000000000075
:1003A00000000000FC94948400000102FC000000A6
:1003B0000000000000000000001E21212112E0C00A
:1003C000804020100F000000C020202040000000CE
:1003D000FC00009E9E040303030302000000202093
:1003E00023242525232020203F00007B7B214284DD
:1003F0000480C000000000000000000000000000B9
:1004000000FC94948400040607070708F00000002D
:1004100000000000000000000000803F2121120CBD
:1004200000000000FF000000F0084848C80000FE7F
:100430000000E7818181C1E1F181818101002020FB
:10044000202121212020203F0000F3404040414353
:100450004740407FC0000000000000000000000096
:10046000000000489494946400000000FF00000025
:10047000000000000000000000000000003F2121FB
:10048000120C0000FF000000F0084848D0000000F7
:10049000000000FEFE04040404040404070008082D
:1004A0000809090908087F3E1C08087F7F202020D2
:1004B00020202020E00000000000000000000000DC
:1004C000000000000048949494640000FF000000C5
:1004D0000000000000000000FF003C0A090A3C0088
:1004E0002231292926000082868E9EBEFEFEBEDEB7
:1004F000EFF6FAFEFEFAF2E2C282000000080808F7
:1005000004027984A4A46800FF0000000000000039
:1005100000000000000000000000000000000000DB
:10052000FF0000F0282428F0001008FC0000000064
:1005300000000000000000003C0A090A3C00FF0027
:1005400000000000000000000000000000000000AB
:1005500000040C1C3C7CFF7C3C1C0C0400000000D4
:1005600000009EA1A9A99A804323130B0703FF0350
:10057000030303030300000000000000000000006C
:10058000788484844800FF00000000000000000020
:10059000F00804E2110909090909090909091121E9
:1005A000C2040810E000000001020404070000007B
:1005B000000080402010884423100804030000003D
:1005C0000000000000000000FE0100FC020100002D
:1005D000000000000000000000000000000000001B
:1005E00079494979000000000000000000C0F030A7
:1005F000303030F0C00003030303030300FCF8F0C5
:10060000E0C0FCFCC00F070301000F0F00C0FCFCA2
:10061000C0E0F0F8FC000F0F000103070FC0FCFC66
:100620000000FCFCC0000F0F00000F0F00E0F038CE
:100630001838F0E000191B1F001F1B190000F8F804
:100640000000E0E000607F3F0C180F1F181818181A
:10065000181818F8C00606060606060700C0F8189F
:1006600018181818180007060606060606C0C0C0A7
:10067000C0C0C0C0C00000000000000000C00000FA
:100680008000008000070C0C070C0C070C00800099
:1006900000800000C00C070C0C070C0C07000000C9
:1006A000000000000000000000000000000000004A
:1006B000000000000000000000000000000000003A
:1006C000000000000000000000000000000000002A
:1006D000000000000000000000000000000000001A
:1006E0000000000000000000000000000000F0F822
:1006F0001C0EFEFE00787F1F18181F7F78FEFE007C
:1007000000FEFE00001F1F18181F7F7800FEFE006D
:10071000FE00FEFE001F1F181F181F7F7800C0E09C
:100720003018F8F800787F1F18181F7F78C0E03065
:10073000F8F830E0C0070F187F7F180F07F8F800AF
:1007400000F8F800001F1F18181F7F7000F8F8004D
:10075000E000F8F8001F1F181F181F7F7800000026
:100760000000000000000000000000000000000089
:100770000000000000000000000000000000000079
:100780000000000000000000000000000000000069
:100790000000000000000000000000000000000059
:1007A0000000000000000000000000000000000049
:1007B0000000000000000000000000000000000039
:1007C0000000000000000000000000000000000029
:1007D0000000000000000000000000000000000019
:1007E0000000000000000000000000000000000009
:1007F000000000000000000000000000000000FCFD
:10080000FEFEFC00000000006F6F0000000B0F07F1
:10081000000B0F0700000000000000000018FCFCA7
:1008200018FCFC1800030707030707030000387CC7
:10083000E7C79C180000060E38390F0700182CA4D3
:10084000D8E07038000E07030D121A0C0018BCE631
:10085000B61E8C8000070F18191B160D0800001B10
:100860000F0700000000000000000000000000F082
:10087000FC0E0600000000030F1C1800000000061C
:100880000EFCF000000000181C0F03000090A0C038
:10089000F8C0A090000402010F0102040000C0C0D3
:1008A000F0F0C0C0000000000303000000000000E2
:1008B00000000000000000587838000000C0C0C0F0
:1008C000C0C0C0C000000000000000000000000028
:1008D00000000000000000383838000000000080F0
:1008E000C0E07038000E07030100000000F8FC0EA5
:1008F000060EFCF800070F1C181C0F070000180C50
:10090000FEFE0000000000181F1F180000181C0E3B
:1009100086CEFC78001C1E1F1B19181800060666E0
:1009200066F69E0E00060E1C181C0F0700C0FE3E49
:1009300000FCFC0000030303031F1F03007E7E6610
:1009400066E6C686000C1C18181C0F0700F8FCCEC3
:1009500066E6C08000070F1C181C0F030006060681
:1009600086E67E1E0000001E1F0100000018BCEE7F
:1009700046EEBC1800070F1C181C0F070078FCCEB1
:1009800086CEFCF800000019191C0F07000000704B
:10099000707000000000001C1C1C000000000070B3
:1009A000707000000000406C3C1C00000080C0E043
:1009B00070381C0E00000103070E1C380000606038
:1009C000606060600000030303030303000E1C3833
:1009D00070E0C08000381C0E0703010000181C0ED8
:1009E00086CEFC78000000676701000000F008A4D4
:1009F000A4C408F00007081312110A0900F0F81C3B
:100A00000E1CF8F0001F1F0606061F1F00FEFEC684
:100A1000C6C6FE3C001F1F1818181F0F00F8FC0E5A
:100A2000060E1C1800070F1C181C0E0600FEFE0206
:100A30000206FCF8001F1F1010180F0700FEFEC66C
:100A4000C6C60606001F1F181818181800FEFEC696
:100A5000C6C60606001F1F000000000000F8FC0EBE
:100A6000068E9C9800070F1C180D1F1F00FEFEC06D
:100A7000C0C0FEFE001F1F0000001F1F000000007E
:100A8000FEFE0000000000001F1F00000000060620
:100A9000FEFE0000000C1C181F0F000000FEFEE010
:100AA000F03C0E06001F1F0003071E1C00FEFE0088
:100AB00000000000001F1F181818181800FEFC7016
:100AC000E070FCFE001F1F0003001F1F00FEFC78EB
:100AD000E080FEFE001F1F0001070F1F00F8FC0E44
:100AE000060EFCF800070F1C181C0F0700FEFE8600
:100AF00086CEFC78001F1F010101000000F8FC0EEB
:100B0000060EFCF800070F1C181B160D18FEFE86BB
:100B10008686FC78001F1F0101071E1800387CEE36
:100B2000C6CE9C1800060E1C181D0F0700000606F6
:100B3000FEFE0606000000001F1F000000FEFE0073
:100B40000000FEFE00070F1C181C0F0700FEFE0031
:100B50000000FEFE0001030F1C0F030100FEFE005B
:100B6000FE00FEFE00031F1E071E1F03000E1EF8E0
:100B7000E0F81E0E001C1F0300031F1C0000FEFEF9
:100B80008080FEFE000000011F1F01000006068697
:100B9000C6E67E3E001E1F1B191818180000FFFF36
:100BA0000303030000003F3F30303000001C38706A
:100BB000E0C0800000000000000103070000030304
:100BC00003FFFF0000003030303F3F0000080C06FC
:100BD00003060C08000000000000000000000000F8
:100BE000000000000060606060606060000000075E
:100BF0000F1B00000000000000000000000098D85B
:100C0000D8D8F0E000070F1D180C1F1F00FEFE30A3
:100C10001838F0E0001F1F0C181C0F0700E0F03818
:100C20001838706000070F1C181C0E0600E0F03822
:100C30001830FEFE00070F1C180C1F1F00E0F0B854
:100C400098B8F0E000070F1D1919190100C0F8FC51
:100C5000CEC61C1800001F1F0000000000E0F03886
:100C60001830F8F80003076E6C663F1F00FEFE3078
:100C70001838F0C0001F1F0000001F1F0000303098
:100C8000F6F60000000000181F1F180000003030AA
:100C9000F6F60000003070607F3F000000FEFE802E
:100CA000C0F03818001F1F01070E1C1800000006B6
:100CB000FEFE0000000000001F1F000000F8F818F2
:100CC000F018F0E0001F1F001F001F1F00F8F83091
:100CD0001838F0E0001F1F0000001F1F00E0F03870
:100CE0001838F0E000070F1C181C0F0700F8F83048
:100CF0001838F0E0007F7F0C181C0F0700E0F03878
:100D00001830F8F800070F1C180C7F7F00F8F86007
:100D100030187870001F1F00000000000060F0987D
:100D20009898302000040C1919190F06006060FC17
:100D3000FE6060000000000F1F181C0C00F8F80097
:100D40000000F8F8000F1F18180C1F1F00F8F8001B
:100D50000000F8F80003070E1C0E070300F8F80067
:100D6000E000F8F800031F1C0F1C1F03001838E0F8
:100D7000C0E03818001C1F0301031F1C00F8F80016
:100D80000000F8F800070F6C6C663F1F0018181879
:100D900098D87838001C1E1B191818180000C0FEBF
:100DA0003F0303000000001F3F3030000000000040
:100DB000FFFF0000000000003F3F000000000303B1
:100DC0003FFEC000000030303F1F000000E0E0FCAC
:100DD000F8F0E04000000007030100000040E0F0F0
:100DE000F8FCE0E0000000010307000000FEFEC682
:100DF000C6C68600001F1F18181D0F0700FEFE063E
:100E000006060600001F1F000000000000FBFB9804
:100E1000989B1B00001F1F19191918180006BEF017
:100E2000FEF0BE06001C1F001F001F1C00181C0E39
:100E3000C6EEFC3800060E1C181D0F0700FEFE80D3
:100E4000E078FEFE001F0F0701001F1F00FCFD03DE
:100E5000C6E3FDFC001F0F0703001F1F0000F0FC8E
:100E60000E06FEFE00181F0F00001F1F00FEFE06EC
:100E70000606FEFE001F1F0000001F1F00FEFE8072
:100E80000080FEFE0000011B1B191F0F00F8FC066E
:100E9000FFFF06FCF80001031F1F030100FEFE8098
:100EA0000080FEFE0000010303011F1F00FEFE0084
:100EB000FE00FEFE001F1F181F181F1F000EFEFE63
:100EC0003018F8F000001F1F18181F0F00FEFE302A
:100ED00018F00EFE001F1F18180F101F00181C0618
:100EE000C6CEFCF800060E18181C0F0700FEFEE028
:100EF000FC06FEFC001F1F000F181F0F0078FC8669
:100F00008686FEFE00181E0701011F1F00F0F8CCA8
:100F10006C66C68000070F1818180F0700F8F898BD
:100F20009898F060001F1F1919190F0600F8F8189B
:100F300018181800001F1F000000000000E0F3BB9D
:100F400098BBF3E000070F1D19191901001878C0AC
:100F5000F8C07818001C1F011F011F1C00607018CA
:100F600098B8F06000060E18191D0F0600F8F8007A
:100F7000C0F0F8F8001F1F0F03001F1F00F8F9034F
:100F8000C6F3F9F8001F1F0F03001F1F00F8F880B9
:100F9000C0F03818001F1F01070E1C180000E0F0F9
:100FA0003818F8F800181F0F00001F1F00F8F0E0B5
:100FB000C0E0F0F8001F1F0003001F1F00F8F880BA
:100FC0008080F8F8001F1F0101011F1F00F8F818AA
:100FD0001818F8F8001F1F0000001F1F0000181845
:100FE000F8F81818000000001F1F000000F8F800B3
:100FF0000080F8F80001030303011F1F00F8F80048
:10100000E000F8F8001F1F181F181F1F0038F8F81D
:1010100080C0C08000001F1F19181F0F00F8F88043
:10102000C08078F8001F1F19180F101F00F8F880F3
:10103000C0C0C080001F1F1918181F0F0060701853
:1010400098B8F0E000060E18191D0F0700F8F8C058
:10105000F018F8F0001F1F010F181F0F00E0F03804
:101060001818F8F800111B1F06031F1F0000112499
:101070001FBECFEFD8E0DEBFCDBF21E0A0E0B1E0E2
:1010800001C01D92A53CB207E1F70E94AB380C9459
:1010900002410C9400005D98559A80FD599A80FF9A
:1010A0005998519A539A5A9867FD5B9A67FF5B98D3
:1010B0005A9A5A9866FD5B9A66FF5B985A9A5A98B4
:1010C00065FD5B9A65FF5B985A9A5A9864FD5B9A36
:1010D00064FF5B985A9A5A9863FD5B9A63FF5B982A
:1010E0005A9A5A9862FD5B9A62FF5B985A9A5A988C
:1010F00061FD5B9A61FF5B985A9A5A9860FD5B9A12
:1011000060FF5B985A9A5D9A5A985B98089560932D
:1011100042018093070186958093A801660F660FB0
:10112000660F60931201089580E20E94510D60E005
:1011300082E00E948708089580E20E94510D60E0DD
:1011400084E00E948708089580E20E94510D60E0CB
:1011500086E00E94870808958091420180930401EF
:101160008091A80180930601089580910601609105
:101170000401880F0E9487080895682F80E00E946C
:101180004B0808958EEA0E94BD0885EA0E94BD08BA
:1011900008958DE00E94510D8AE00E94510D08953E
:1011A0000E94C9081092A80160E080E00E948708B0
:1011B0000895CF93DF93C0E080E10E94BD0880E0F6
:1011C0000E94BD088C2F806B0E94BD08D4E860E0AF
:1011D00081E00E944B08D150D1F7CF5FC83061F752
:1011E0000E94D008DF91CF91089558985A985B9843
:1011F0005D98509A529A539A559A0E94820D5D9A20
:10120000559A5998519A84E10E948A0D589A84E11E
:101210000E948A0D8EEA0E94BD0882EE0E94BD08DF
:1012200082EA0E94BD0880EA0E94BD0880EC0E940C
:10123000BD0885ED0E94BD0880E80E94BD088DE8CC
:101240000E94BD0884E10E94BD0881E80E94BD089B
:101250008AE293E00E94D1400E94BD0880E40E948F
:10126000BD0884EA0E94BD0886EA0E94BD080E946B
:10127000D9088FEA0E94BD0860E080E00E948708DC
:1012800008950895582F28E030E090E841E080E08C
:10129000642F652309F0892B440F9695215031095D
:1012A000B9F70895A0E0B0E0E8E5F9E00C943D401E
:1012B0006C01A02EB12CC501860F911D81389105BE
:1012C0000CF075C0F12CE40EF11C81E4E816F10479
:1012D0000CF06DC0D42FD695D695D69581E0E81A3E
:1012E000F10883E0F594E7948A95E1F7822F827004
:1012F000882E21FF0DC0C70199278D1B91098A9D5A
:10130000A0018B9D500D9A9D500D1124C40ED51E29
:10131000CE2DC83008F0C7E010E8101B161B812F37
:1013200082958F708061582E07E00D1B1F70217011
:10133000922E750181E0E81AF108CD1788F1802F0F
:10134000806B0E94BD08852D0E94BD08812F0E94E0
:10135000BD08612C712C6A147B04C1F0911006C089
:10136000F701E619F709EC0DFD1D03C0F601E60DC6
:10137000F71D8491811002C00E944209682F81E00C
:101380000E944B088FEF681A780AE5CF882019F081
:10139000CA18DB0802C0CA0CDB1CDF5F0150CDCFCE
:1013A0009091070187E0891B806B0E94BD08CDB733
:1013B000DEB7EFE00C945940EF920F93482F282F9F
:1013C0002F7080E6289F90011124C901835B9C4FF8
:1013D000242F207344FF02C038E001C038E430936A
:1013E0001301203218F01092030108C020E220936C
:1013F0000301209113012D5E2093130120E2E22EC0
:1014000008E120E040910301609113010E9452091C
:101410000F91EF900895EF920F93262FFC016491A6
:1014200031964491319604913196E49030910301C4
:10143000430F30911301630F04960E9452090F91DC
:10144000EF90089560E00E940B0A0895EF920F93C9
:10145000CF93C82F809142018F5F809342014091CA
:101460000701440F440F440F20E1C29FC001112423
:1014700020E1E22E08E020E06091120183519A4FB2
:101480000E94520980911201885F809312014C2FB3
:1014900050E0FA013197EA30F10500F5EC5CFF4FBE
:1014A0000C94813F8EE306C08CE70E94510D8CE3C3
:1014B00016C08CE70E94510D8CE711C082E50FC069
:1014C0008DE20DC085E70BC08FE40E94510D88E6C8
:1014D0000E94510D8DE603C08CE401C08C2F0E9448
:1014E000510DCF910F91EF9008958F5C0E94260AC5
:1014F000089580E20E94260A0895A1E0B0E0E3E8A2
:10150000FAE00C944A40181634F489830E94790A50
:1015100089818150F8CF2196E2E00C946640909149
:10152000420180E1891B0E947D0A0895A1E0B0E09C
:10153000ECE9FAE00C944A4089830E948F0A80E229
:101540000E94510D9091A8019F5F9093A80169811D
:10155000943038F083E08093A80181E080934501C6
:1015600002C0109245018091A801880F0E9487084F
:101570002196E2E00C9466400E94960A0E945E0E5C
:1015800008950E94D0080E948F0A0E94D0080895F2
:101590000E9494080E948F0A0E94940808958DE387
:1015A0000E94260A0895CF93DF93EC018991882346
:1015B00019F00E94260AFACFDF91CF910895CF93B8
:1015C000DF93EC01FE018491982F9F7721F00E9418
:1015D000260A2196F7CFDF91CF910895CF93DF931D
:1015E000EC01CE010E94D140982F9F7721F00E94FC
:1015F000260A2196F6CFDF91CF910895EF920F93AF
:10160000FC0104913196E49002960E9452090F91D8
:10161000EF9008950F9387E591E00E94EE0A4091C4
:101620008C014D3F6CF460917A0170917B01809147
:101630007C0190917D0103E026E40E940A0C03C026
:101640008FE30E94260A0F91089597FF09C08F9398
:101650009F938DE2FBDE9F918F91909581959F4F97
:1016600068E271E04AE050E00E949C409CDF0895EF
:10167000ECDF01C0EADF3DDF0895EF92FF920F93A8
:101680001F93182F062FF42E89E391E0A7DFEE2495
:10169000E0914301F09144018685E81611F4812F11
:1016A00009C08485E81611F4802F04C08585E816EA
:1016B00011F48F2DCBDEE3948E2D833049F71F91EB
:1016C0000F91FF90EF900895EF92FF920F931F9369
:1016D000182F062FF42E80E00E94BC0A8FE391E0C1
:1016E0007DDFEE248E2D01DF5ADFE0914301F09182
:1016F00044018685E81611F4812F09C08485E81617
:1017000011F4802F04C08585E81611F48F2D9EDE1C
:10171000F0DEE3948E2D833029F71F910F91FF9017
:10172000EF900895682F80E092E0662309F491E03D
:10173000623009F481E008950F93082FE9EAF1E09F
:10174000880F880FE80FF11D60817181828193817C
:10175000643671058105910578F42091050127FD16
:101760000BC0802F0E94920B692F0E9422246EEFE3
:1017700023E044E03FD104C04FEF04E024E04AD02E
:10178000B8DE0F910895863058F4ECE9F1E0E80FE7
:10179000F11DE80FF11D8081918163E037D1A9DE51
:1017A00008951F93182F80917601882319F0A1DEE8
:1017B00080E04CDEB9DC80E391E010DF812F829580
:1017C0008F70E1DF812F8F70DEDF1F910895CF933F
:1017D000DF938091140182958F70C0E9D1E0C80F2A
:1017E000D11D888182DE8EEF90E0F8DE8E817DDE75
:1017F0008EEF90E0F3DEC0E9D1E0809114018370B8
:10180000C80FD11D8E8171DE80911401CADFDF9176
:10181000CF910895AEE0B0E0E0E1FCE00C943A40F6
:10182000142F622E702E6B017C010F7080E3898370
:101830008A838B838C838D838E83F7FE0CC08DE22D
:101840000E94260AF094E094D094C094C11CD11C4C
:10185000E11CF11C05C075FE03C08BE20E94260A44
:10186000033061F1043099F00530C1F00630F1F039
:1018700074E6872E912CA12CB12C073029F530E885
:10188000832E36E9932E38E9A32EB12C1DC060E1DA
:10189000862E67E2962EA12CB12C16C050EA852E1A
:1018A00056E8952EAA24A394B12C0EC040E4842EB1
:1018B00042E4942E4FE0A42EB12C06C088EE882E70
:1018C00083E0982EA12CB12C2AE0222E312C412C21
:1018D000512CC814D904EA04FB0470F0C701B60106
:1018E0006B5F7F4F8F4F9F4FA20191010E94403F3E
:1018F00069017A011F5FEDCF81E1810F9BEA899F2A
:10190000812D1124A82EA69486E0811B899F112D7C
:1019100011241695912F990F190F811B182F4E0125
:1019200087E0880E911C2AE0A401C701B6010E943D
:101930007A40F40101900020E9F731977F01E8181F
:10194000F9089E2C6701DD24812F90E004968C1508
:101950009D0514F4A3941D5F8A2D90E0895D9F4F2F
:101960000E94D140A82E74FE04C0901610F40E19E7
:1019700001C000E09E2C911A900E19142CF08EE2FA
:101980000E94260A012F0E19111102C098EF992EFC
:10199000812C10E0C00ED11EE92C092C000CFF0890
:1019A000482D50E04C155D05BCF4FA013696E01B5D
:1019B000F10B81E090E08C0F9D1FE80FF91F8081F3
:1019C0000E94260A8394882D90E08E159F0541F78A
:1019D0008EE20E94260AE4CFAA2019F08A2D0E94E6
:1019E000260A662019F0862D0E94260A2E96E2E12C
:1019F0000C9456400F93362FBC0180E090E0022FEC
:101A0000242F432F0E940A0C0F9108950F93062F45
:101A1000BC0180E090E026E54DEF0E940A0C0F919A
:101A200008950F93042F28E440E00E940A0C8AE7EF
:101A30000E94260A0F910895E82FF0E0EE0FFF1F95
:101A4000E458FF4FA591B49190910301490F9091F3
:101A50001301690F20E0CD010E94FE0A0895CF9383
:101A6000DF93C82FD62FE0914301F091440148E164
:101A70006EE186850E941C0DE0914301F0914401C6
:101A80004D2F6C2F84850E941C0DE0914301F09135
:101A9000440140E06EE185850E941C0DDF91CF91ED
:101AA00008958F932F932AE080953B9A089410F421
:101AB000439802C0439A000020D027D086952A95EB
:101AC000B1F72F918F91089503D002D001D000D0AB
:101AD00000D003D002D001D000D000D003D002D07B
:101AE00001D000D000D0A89503D002D001D000D002
:101AF00000D003D002D001D000D000D003D002D05B
:101B000001D000D000D003D002D001D000D000D04E
:101B10000000089590E0893C28F0885C48EC849FA0
:101B2000C0011124009709F40895209181002770C5
:101B300019F0D9DF0197F6CF8130910519F002979E
:101B40003CE803C03EE380E090E02091B200230F28
:101B50002093B30042E04093700027E023BF8895B4
:101B600026E023BF10927000A895DCCF8F9384E00D
:101B7000D1DF07C08F9382E0CDDF03C08F9381E078
:101B8000C9DF8F911F93182F106410937C00E12FF1
:101B9000E07880913301E81759F0E0933301ADDF2D
:101BA0008FE980937A0083E083BF889582E083BFCA
:101BB00020E030E0A901E0E01FC08FE980937A00C7
:101BC00083E083BF889582E083BF60917800709145
:101BD0007900260F371F411D511DE43061F48091BB
:101BE0003501803041F084E02030380720F417FDC3
:101BF00002C01068CACFEF5F80913201E817E8F2A7
:101C0000609136017091370117FF04C06091340173
:101C10007091350180E090E00E94FC3E2FEF33E0B0
:101C200040E050E00E94403FB901CA0120913201DA
:101C300030E040E050E00E94403FC9011F9108950C
:101C4000EF92FF920F931F93CF93DF93F82EE92E1D
:101C5000C5E64F9B05C0CF2DDE2D15E500E01BC06E
:101C600081E00E948A0DC150A1F7F5CF82E00E9469
:101C70008A0D110F4F9B1F5F1F731F3379F40111E2
:101C800003C0CF2DDE2D04E00F5F063988F4A89540
:101C90001C161D0644F0D7FFE9CF0AC01111F7CF7B
:101CA0000023A9F305C02A97B1F7CFEFDFEFF3CFF9
:101CB000802FCDB7DEB7E6E00C946240CF930E9450
:101CC000AC08C82F80914501882309F1813069F45F
:101CD000C33059F46FE086E00E9487088BE20E94CF
:101CE000260A6FE086E00E94870880E49FE10E9458
:101CF000200EC33051F480914501813031F460E011
:101D000086E00E9487080E948F0A0E94B508CF9142
:101D1000089583E593E00E94D140382F84E593E055
:101D20000E94D14020913A01230F30913B01381F8E
:101D300020931D0130931E0183E0283E380720F0D8
:101D4000C901885E934002C080E090E062E370E0E9
:101D50000E94183F683008F067E0EDEDF2E0E60F12
:101D6000F11DE60FF11D459155912591359162E3E5
:101D7000681B421B530B649FC001659F900D11248B
:101D8000499662E370E00E94183F620F731F7093E0
:101D900079016093780185E593E00E94D14099270D
:101DA00087FD909560913A0170913B01860F971FD6
:101DB0009093350180933401909375018093740161
:101DC0000895CF93DF9324E130E0B9010E94183FDA
:101DD000DC01EFEEF2E0E60FF71FE60FF71FC5910B
:101DE000D591459155914C1B4A9FC0011124B901D1
:101DF0000E94183F6C0F7D1FCB01DF91CF9108959A
:101E0000189518951092210110921F0110926F01E0
:101E1000109255011092200110924101109276010A
:101E2000EAE5F1E0108211821282EAE7F1E0108A1D
:101E300082E0818B10920501178616861482158226
:101E40001682178281EF838B0895A1E0B0E0EBE268
:101E5000FFE00C94484098E097B998B9E82FF0E07B
:101E6000ED5BFE4F949195B9262F281BE20FF11DD3
:101E700027FDFA95E491E92BE4B969830E94C20D2C
:101E80008C016981862F0E94C20DAC012091360120
:101E90003091370136952795B90163507109C80112
:101EA0004E966817790770F4255E3F4F02171307A7
:101EB00048F4CA014E966817790720F481E042176A
:101EC000530708F080E014B82196E4E00C946440D5
:101ED000CF9361E080E00E94250FC82F62E080E090
:101EE0000E94250FC80F62E081E00E94250F8C0F31
:101EF000CF910895AEE0B0E0E0E8FFE00C943B4005
:101F0000382E10922101807FE9F40E94680F8330FF
:101F100009F07CC20E94D90883E592E00E94EE0A93
:101F20000E9494088FE30E94260A80ED97E00E94A9
:101F3000200E8B30F0F40E94D9088CEC90E00E94C7
:101F4000EE0A64C216E900E00E94D90889EA91E02D
:101F50000E94EE0A0E94680F833021F40F5F043064
:101F600010F007C000E088E20E948A0D115061F76E
:101F700067C00E9494088CEB90E00E94EE0A60E03B
:101F80008DE293E00E94DF4060E08EE293E00E94E9
:101F9000DF4060E08CE293E00E94DF4060E082E09E
:101FA0000E9422246C019A83898361E082E00E946E
:101FB00022247C019C838B8360E081E00E942224A8
:101FC0008C019E838D8323E040E26EEFC6010E9468
:101FD000FA0C23E040E26EEFC7010E94FA0C23E006
:101FE00044E06EEFC8010E94FA0C2AE5C216D10443
:101FF00024F084E190E09A83898369818DE293E003
:102000000E94DF408AE5E816F10424F084E190E0C4
:102010009C838B836B818EE293E00E94DF400A35C4
:10202000110524F084E190E09E838D836D818CE224
:1020300093E00E94DF4082E0809345010E945E0EA3
:1020400008E70E94680F811174C00E94D90885EBCF
:1020500090E00E94EE0A23E044E06FEF80913801A7
:10206000909139010E94FA0C0E9494088EEA90E047
:102070000E94EE0A23E044E06FEF80913F019091CF
:1020800040010E94FA0C82E0809345010E945E0E9E
:10209000109221010E94D9088AEA90E00E94EE0A7B
:1020A00060E082E00E94951B809082019090830105
:1020B000A0908401B09085019C868B8661E082E0CF
:1020C0000E94951B40908201509083016090840192
:1020D000709085015E864D8660E081E00E94951BD0
:1020E000E0908201F0908301FE82ED8262E080E068
:1020F0000E94951B80918201909183019C838B8328
:1021000062E081E00E94951B8091820190918301A1
:102110009A87898761E080E00E94951B2091820167
:10212000309183013A832983132D1F70113071F48C
:1021300011C00E94C80A89E492E00E94EE0A84E677
:102140000E948A0D015009F07CCF7FCF80913E0123
:10215000823029F42E5F3F4F38872F8304C03887A1
:102160002F8310923E01C4010E943A0BC2010E94CB
:102170003A0BB701FF0C880B990B03E026E444EF00
:102180000E940A0CFE0131967F015E01FFE0AF0E56
:10219000B11CF701819191910A97853B9105E0F47B
:1021A000EA15FB05B9F74CE4C42E43E0D42EF70141
:1021B0006081F2E0EF0EF11C6E5EC6010E94DF400E
:1021C0002FEFC21AD20AEA14FB0489F70E9494087E
:1021D0008CE791E00E94EE0A82E0809345010E9424
:1021E0005E0E0E946731113029F080913E018230ED
:1021F00009F0F4C020E4F22E10E03AE0832E912C96
:10220000A12CB12C0E94020F0E94D90880E00E94EC
:10221000750A82E291E00E94EE0A82E00E94750A4D
:102220008FE190E00E94EE0A1092210160E082E0CE
:102230000E94951B00918C0160917A0170917B0145
:1022400080917C0190917D01073F44F40F5FA501CF
:1022500094010E94403FCA01B901F6CF00938C015E
:1022600060937A0170937B0180937C0190937D0150
:10227000073F09F09CC0DC01CB0180569109A10900
:10228000B10980399545A105B10508F090C060916C
:102290008E0170918F01CB018B569F4F8B329140F5
:1022A00008F085C01F5F153008F482C083E593E015
:1022B0000E94ED400E94D90888E190E00E94EE0A59
:1022C00080918E0190918F010E94250B0E94890EB2
:1022D00088E088B989E087B980E284B982E00E9409
:1022E000C20D853D9340D4F714B810923501109279
:1022F000340182E00E94C20D8C01809174019091A2
:102300007501909335018093340182E00E94C20DE3
:102310007C01EE0CFF1C109235011092340182E01A
:102320000E94C20DC0907401D0907501D092350109
:10233000C0923401800F911F8C010E191F090E9459
:10234000940881E190E00E94EE0A85E593E00E9406
:10235000D14093E0B92EB80E9601D8010E94963F65
:1023600097010F2C000C440B550B0E94623F1B2D54
:10237000120F612F85E593E00E94DF40812F012E2F
:10238000000C990B0E94250B0E94890E82E080931D
:1023900045010E945E0E10923E018CE493E00E9483
:1023A000D140682F8FE493E00E94DF4017C010E017
:1023B0000E94940860917A0170917B0180917C0168
:1023C00090917D0104E026E440918C010E940A0C6A
:1023D00088E20E948A0DFA94F11014CF89E180936B
:1023E00032010E9477340E94D9088CEC90E00E9460
:1023F000EE0A0E9494088AE392E00E94EE0A10928C
:10240000210182E0809345010E945E0E2E96E1E15B
:102410000C94574080913E0181110DC08CE493E0F3
:102420000E94D14061E0680F8FE493E00E94DF409A
:1024300081E080933E010895A1E0B0E0E2E2F2E1A4
:102440000C944540E82FF0E0EA5BFE4FE491E8B9D8
:10245000E860E7B915B8E62FF0E0ED5BFE4FE491D8
:10246000E4B988E8E82E83E1F82EDE2EDD0C862F15
:1024700069830E94B60D8C01D4B869818E159F05C1
:1024800010F47801F4CF892BF1F00E94A40882E0C7
:1024900091E00E94EE0AD80120EA36E841E050E0DF
:1024A0000E949D3F28E937EB40E050E00E94403F0A
:1024B000DA01C90122E041E467EF0E94FA0C88E0EA
:1024C00087B988B914B82196E7E00C9461400F935E
:1024D0001F93CF93DF9385E00E94C20D85E00E9499
:1024E000BE0D8C01EC01CC0FDD1FCC0FDD1F2A9639
:1024F00010923C01C43883E0D80750F480E791E0A3
:102500000E94EE0A0E948F0A81E080933C0128C05D
:102510008FE791E00E94EE0A62E0CE010E94060D74
:102520000E94790A093183E01807A0F4083E12409E
:1025300070F484EB92E00E94EE0A0E948F0A8DEC08
:102540000E948A0D5E988AEC0E948A0D09C08BEB6E
:1025500092E002C08CE791E00E94EE0A0E948F0A8E
:10256000DF91CF911F910F910895A7E1B0E0EBEBC0
:10257000F2E10C943A408E8B6F8B4983A895E62F3D
:10258000F0E0ED5BFE4F549033966490E42FF0E062
:10259000ED5BFE4F0491E82FF0E0ED5BFE4F1491F0
:1025A00033962491288728602C87362D3860398708
:1025B00005B9402F45294A8344B927B9588558B9E8
:1025C0008F890E94BE0D9B878A8754B88F890E948D
:1025D000BE0D1C0114B80E94730D15B86A8164B950
:1025E0008F890E94BE0DEA85FB858E179F0730F507
:1025F000805E9E4FE817F90708F4D1C4F985F7B952
:1026000088E088B915B9812F802B84B9E090360114
:10261000F09037018E890E94BE0D9701281B390B5F
:102620003B872A8714B9E0903601F09037018E89F4
:102630000E94BE0D1701281A390A08C02A853B8559
:10264000205E3E4F8217930708F4A9C420915501DC
:1026500080916F0190E0820F911D02974CF0213024
:1026600009F09DC49091520180916C01981397C418
:10267000402E440C4A855B854437510508F4B0C0B0
:10268000CA01880F991F44962816390608F0A8C079
:102690005C8557B9688568B9842D852984B98F8987
:1026A0000E94BA0D6C0189810E94C20D7C0145B85F
:1026B0008F890E94BA0D9601295A3D4F412A281749
:1026C0003907E0F588E088B9898587B944B845B805
:1026D00089810E94BA0D88349F4028F085E080935C
:1026E000210182E204C085E08093210184E280938D
:1026F0002001D0924B01C0924A01EC14FD0440F439
:10270000C6018E199F09909351018093500104C016
:1027100010925101109250019601A0E1B7E20E947F
:10272000873F20911B0130911C0140E050E00E9446
:10273000403F30934D0120934C0128C488E088B974
:10274000F985F7B944B845B88E890E94BA0D6C0175
:1027500089810E94C20D7C0115B98E890E94BA0D33
:10276000895A9D4F8C159D0508F019C4288528B9F4
:102770003C8537B989810E94BA0D813D934028F488
:1027800085E08093210182E304C085E080932101EC
:1027900084E380932001CE14DF0438F4EC18FD08A4
:1027A000F0926B01E0926A0104C010926B011092EA
:1027B0006A0120913601309137012C193D09A0E1C1
:1027C000B7E20E94873F209122013091230140E02F
:1027D00050E00E94403F3093670120936601B2C1F0
:1027E00088E088B9598557B915B9712E702A74B81F
:1027F0008E890E94BE0D9D838C83E0903601F090FF
:10280000370189810E94C20D4C018A30910568F51B
:1028100014B881E00E948A0D842D812B84B98E89A1
:102820000E94BE0D9D838C83E0903601F0903701AD
:10283000F701E81BF90BFF83EE8389810E94C20D2B
:102840004C01209122013091230140E050E060E8EA
:1028500071EA83E09CE10E94403FAE81BF810E940B
:102860009D3F940140E050E012C097014C815D8192
:10287000241B350B3F832E83281B390BA4E6B0E0C5
:102880000E94873F6401E12CF12CA70196010E9470
:10289000403F69017A0114B815B8588558B96C855C
:1028A00067B981E00E948A0D89EB281687E0380617
:1028B00008F075C39A8194B98F890E94BE0D8F3537
:1028C0009D4008F445C114B881E00E948A0DFA8148
:1028D000F4B981E00E948A0D242D2529298B24B981
:1028E0008F890E94BE0D5C0189810E94C20D988B68
:1028F0008F878E890E94C20D9E878D874F8558894C
:10290000413D574008F4ABC084E0809321018DE045
:102910008093200185012A143B0410F40219130945
:1029200040901B0150901C01612C712C60E871EAF1
:1029300083E09CE1A30192010E94403FD8010E94E4
:102940009D3FEF85F8898F0120E030E0A9019801D3
:102950000E94403F80916F01882369F0809160015F
:1029600090916101A0916201B09163018217930778
:10297000A407B50708F520936001309361014093E7
:102980006201509363019501A0E1B7E20E94873F85
:10299000A30192010E94403F30936701209366019A
:1029A0002D853E854F855889241B350B3093650155
:1029B0002093640181E001C080E04091600150916A
:1029C000610160916201709163014C155D056E05B6
:1029D0007F0528F5C0926001D0926101E09262010A
:1029E000F09263018C819D8188199909909365010A
:1029F000809364012E813F81A0E1B7E20E94873F6E
:102A0000209122013091230140E050E00E94403F9C
:102A1000205F384D309367012093660103C08823FF
:102A200009F485C39101A0E1B7E20E94873FA301A9
:102A300092010E94403F30936901209368012A85EA
:102A40003B85A0E1B7E20E94873FA30192010E946B
:102A5000403F30936B0120936A0181E068C351E6E7
:102A60002516310408F074C061EDA61667E0B606BD
:102A700008F46EC085E08093210182E180932001FB
:102A8000C50186509F4FED85FE858E179F0720F468
:102A900083E1809320011BC02D853E85A216B306DD
:102AA00090F4A0911B01B0911C012A193B090E94CE
:102AB000873F950140E050E00E94403F3093650120
:102AC0002093640104C01092650110926401362DB8
:102AD0003770632E8981806480937C001BE0EE2434
:102AE000E394F12CCC24CA9483E0D82EA89561E01D
:102AF000802F0E94AD1A498944B986B18621E9F335
:102B000054B880917A00806480937A0080917A0032
:102B100086FDFCCF8091780090917900F601E81B4A
:102B2000F90BEE0EFF1E115009F7C701880F991F10
:102B3000880F991F69E070E00E94183F70936B0145
:102B400060936A0180916F018F5F80936F0185CFE1
:102B5000FA81F4B905B98F890E94BE0D9B838A83DF
:102B600089810E94C20D9D838C83409136015091D2
:102B70003701481B590B4A30510558F514B881E00C
:102B80000E948A0D842D852984B945B88F890E94B9
:102B9000BE0D9B838A8389810E94C20D9D838C8395
:102BA00020911B0130911C0140E050E060E871EA87
:102BB00083E09CE10E94403FAA81BB810E949D3F2F
:102BC00020913601309137014C815D81241B350BFA
:102BD00009C02A813B81241B350BA4E6B0E00E948A
:102BE000873F9A0140E050E00E94403F49015A016E
:102BF000598557B988E088B974B875B88E890E942C
:102C0000BE0D6C0189810E94C20D9F838E838F89C6
:102C10000E94C20D9C0160E3C61661E1D60608F071
:102C2000BBC115B98E892C8B3D8B0E94BE0DAC01AA
:102C300014B98E894A8B5B8B0E94BE0D7C0115B83E
:102C400081E00E948A0D15B98E890E94BE0D2C89E3
:102C50003D894A895B89E0E4EE16E6E0FE0608F06D
:102C600056C08133914108F452C0C6018A569F4F25
:102C70004817590708F04BC086E0809321018091E6
:102C800055018F5F809355018E819F81821B930B2D
:102C900090934B0180934A01C21AD30AD0925101FA
:102CA000C092500114B815B868B881E00E948A0D2E
:102CB00014B98E890E94BE0D853F910508F048C267
:102CC00074B889810E94BE0D813D934008F440C2D2
:102CD0008E890E94C20D8D3D924008F439C214B90C
:102CE0008E890E94BE0D8D3D924008F431C215B907
:102CF00081E00E948A0D15B88E890E94BE0D853F25
:102D0000910508F025C287E08093210121C274B8A3
:102D100075B881E00E948A0D412A44B845B88E8971
:102D20000E94BE0D3C01E0903601F0903701E81A98
:102D3000F90A89810E94C20D9F838E8320913601FA
:102D400030913701F901E81BF90BFE87ED878F8978
:102D50000E94C20D6C012D853E852E3F394008F43E
:102D6000AAC084E0809321018CE080932001870138
:102D70002E143F0410F402191309409022015090C0
:102D80002301612C712C60E871EA83E09CE1A301CE
:102D900092010E94403FD8010E949D3FED85FE8533
:102DA0009F0140E050E00E94403F80915501882300
:102DB00069F08091460190914701A0914801B0913E
:102DC000490182179307A407B507F8F42093460139
:102DD0003093470140934801509349018E819F8170
:102DE0008C199D0990934B0180934A019701A0E1B2
:102DF000B7E20E94873FA30192010E94403F3093B7
:102E00004D0120934C0181E001C080E040914601DA
:102E10005091470160914801709149014815590549
:102E20006A057B0528F58092460190924701A092A1
:102E30004801B09249018C819D812A813B81821B8E
:102E4000930B90934B0180934A01A0E1B7E20E945B
:102E5000873F20911B0130911C0140E050E00E940F
:102E6000403F205F384D30934D0120934C0103C00B
:102E7000882309F46EC19101A0E1B7E20E94873F67
:102E800020911B0130911C0140E050E00E94403F26
:102E900030934F0120934E012A853B85A0E1B7E294
:102EA0000E94873FA30192010E94403F309351014D
:102EB000209350014DC131E62316310408F06CC057
:102EC00049E4E4164DE0F40608F466C085E080931A
:102ED000210182E080932001C60186509F4F861514
:102EE000970520F483E0809320011AC0C614D7040C
:102EF00098F4A0912201B091230193012C193D096E
:102F00000E94873F970140E050E00E94403F30938D
:102F10004B0120934A0104C010924B0110924A01C8
:102F200058855770C52E8981806480937C00EBE0C2
:102F3000DE2EEE24E394F12CA89560E0802F0E9411
:102F4000AD1A44B845B886B18C21E9F714B980911F
:102F50007A00806480937A0080917A0086FDFCCFAD
:102F60008091780090917900E80EF91EDA94D110E2
:102F7000E3CFC701880F991F880F991F69E070E0A0
:102F80000E94183F70935101609350018091550148
:102F90008F5F80935501DCC088E087B988B914B889
:102FA00015B888E087B967EC261661E0360608F4A4
:102FB000B1C088B968ECF62EE9848C85E82AE7B8B8
:102FC00081E00E948A0D998597B98E890E94C20D71
:102FD000429718F0FA94F110F2CF452C440C312EA0
:102FE000330C34B835B861E0802F0E94AD1A8E8959
:102FF0000E94BE0D7C0144B815B8EC85E7B9F88590
:10300000F8B960E0802F0E94AD1AA0903601B09010
:1030100037018F890E94BE0D6C0154B88E890E94C1
:10302000BE0D4C018F890E94C20D881A990A88E052
:1030300088B9298527B914B915B961E0802F0E9494
:10304000AD1A8E890E94BE0D3C018F890E94C20D6F
:10305000681A790A8614970438F434B835B88E891A
:103060000E94BE0D430118C07501EC18FD0844B85C
:1030700015B83C8537B9488548B960E0802F0E9473
:10308000AD1A00913601109137018F890E94BE0D53
:10309000F801E81BF90BCF019401275931092938B0
:1030A0003141C0F588159905A8F5C70153E09695FB
:1030B00087955A95E1F7893C910510F088EC90E0EE
:1030C0008E0D9F1D8815990528F5C40144E096953D
:1030D00087954A95E1F78E159F05E0F480912101CF
:1030E000833018F483E08093210120911F01822F07
:1030F00090E0FC01E057FE4F3E8930834F894683C4
:10310000880F991FFC01E456FE4F918280822F5F49
:1031100020931F016F898E890E94BA1888E087B9B1
:1031200088B914B815B86796E2E10C9456409091AE
:103130006F019F5F90936F01882381F359815093B2
:103140006C016F8960936D018E8980936E01E6CF6B
:1031500081E0909155019F5F909355018823F1F292
:10316000998190935201EE89E0935301FF89F09386
:103170005401D4CFA0E0B0E0E0ECF8E10C943C4086
:10318000A895E62FF0E0ED5BFE4FB4903396949156
:10319000E82FF0E0ED5BFE4FC4913396F490409140
:1031A0006F012091550130E0240F311D232B09F0D0
:1031B000CFC1862E982EA895209125013091260109
:1031C000220F331F220F331F309337012093360114
:1031D0002091740130917501220F331F220F331F8C
:1031E00030933501209334018EEB8093320188E0D7
:1031F00088B9E92FE860E7B9C4B9C5B9D8E1C12CED
:10320000D12C882D0E94BE0D782E692E892D0E940A
:10321000C20D8C018C199D0997FF03C09195819572
:10322000910903972CF0A895D150680151F72EC051
:10323000CC0F15B8C4B9892D0E94BE0D81359105FA
:1032400028F5C5B9892D0E94BE0DEC018F2D88602F
:1032500087B9F8B815B8B4B8A8E1AA2E412C512CFA
:10326000892D0E94BE0D6C01882D0E94C20D7C012B
:103270008419950997FF03C091958195910903974A
:10328000CCF0A895AA942701A110EACF809125013E
:1032900090912601909337018093360180917401BB
:1032A00090917501909335018093340189E1809369
:1032B00032014EC1BB0CB4B8882D0E94BE0D5C011A
:1032C000003C84E4180728F4C53821E0D207F0F662
:1032D00004C0C03B8DE4D807C8F694EAE91692E032
:1032E000F90608F065C028E9A216B10478F2009149
:1032F0003601109137019E01A8E9B7EB0E94873F84
:1033000098012C1B3D0B40E050E00E94403F6901BA
:103310007A0198012A193B09A8E9B7EB0E94873F77
:10332000850120E030E0A90198010E94403FC837A4
:10333000DF4050F4F2E0CC0CDD1CEE1CFF1CFA95D3
:10334000D1F7CA01B90110C098E7A9169FE0B906E4
:10335000B0F4DA01C901E2E0880F991FAA1FBB1F70
:10336000EA95D1F7BC01CD016C0D7D1D8E1D9F1D11
:1033700025E030E040E050E00E94403F0CC0DA0120
:10338000C9018C0D9D1DAE1DBF1D9C01AD01569543
:10339000479537952795A4E6B0E00E949D3F6B01C5
:1033A0007C012CEAC20E2DE0D21EE11CF11C78C07B
:1033B000272D362D0217130708F49801E701EC14A6
:1033C000FD0408F4E60159012017310708F45801FB
:1033D000A0912201B0912301C501821B930B9C0196
:1033E0000E94873F20913601309137012A193B090D
:1033F00040E050E00E94403F29013A018E01EC1666
:10340000FD0608F48701A0911B01B0911C019E01EB
:10341000201B310B0E94873F6801E12CF12CA70192
:1034200096010E94403F98E7A9169FE0B90680F4F4
:10343000D301C20162E0880F991FAA1FBB1F6A95C2
:10344000D1F7BC01CD01620F731F841F951F13C0FC
:1034500008378FE01807C0F4DA01C90132E0880F9D
:10346000991FAA1FBB1F3A95D1F7BC01CD01640D6E
:10347000751D861D971D25E030E040E050E00E945C
:10348000403F69017A010CC0DA01C901840D951D24
:10349000A61DB71D6C017D01F694E794D794C794DF
:1034A00010912101143008F0F1CE9A94890C282D46
:1034B00030E0E901C65ADE4F8881220F331F220F08
:1034C000331FF901E755FE4F8823D9F14080518021
:1034D00062807380A70196012419350946095709AE
:1034E00057FF07C050954095309521953F4F4F4F5E
:1034F0005F4FAAE0B0E00E949D3F24E6420E511CBF
:10350000611C711CA30192012C0D3D1D4E1D5F1D00
:103510000E94403F232B242B252B09F0B7CE1330DC
:1035200019F081E08093210182E088838091760107
:10353000E82FF0E0E35AFE4F80828F5F80937601A0
:10354000A5CEC082D182E282F38281E088839ECEC2
:10355000CDB7DEB7E0E10C945840CF93C82FC095AB
:1035600095B160FF02C0982B01C09C2395B994B11E
:10357000892B84B982E00E948A0D84B18C2384B99E
:1035800085B18C2385B9CF910895A0E0B0E0EBEC34
:10359000FAE10C9442401AE008E08FE3C82E99E06B
:1035A000D92E07B908B915B8C4B880E00E94BE0D7D
:1035B0007C0181E00E94C20DEC0182E00E94C20DFC
:1035C0009C0180912101893081F488E087B914B889
:1035D000F0920901E0920801D0930B01C0930A0117
:1035E00030930D0120930C015BC084E0E816F104D8
:1035F00040F4C430D10550F42430310530F399E063
:103600000BC088EEE81683E0F80610F499E001C0DC
:1036100098E0C83ED34008F49260283E334008F456
:10362000946097B9C0E0D0E0A89580E00E94B60D04
:103630005C0181E00E94C20D7C0182E00E94C20D0B
:1036400024E1A21625E0B20608F4389A24E1E21635
:1036500025E0F20608F4399A843125E0920708F44F
:103660003A9A26E0A216B10430F426E0E216F104FC
:1036700010F4069738F02196C43F81E0D807A1F6F0
:10368000D0922101E12CF12CEC16FD0631F00E94C4
:10369000780D2FEFE21AF20AF7CF115009F081CF1F
:1036A000CDB7DEB7EAE00C945E40CF92DF92EF92A6
:1036B000FF92CF9320917A0130917B0140917C0160
:1036C00050917D01C0918C018AE0C82ED12CE12C53
:1036D000F12C8C2FCF5F213A96E8390791E049070A
:1036E000510538F0CA01B901A70196010E94403F77
:1036F000F0CF80938C01A0913601B09137010E94E8
:103700009D3F28E833E140E050E00E94403F209395
:103710007A0130937B0140937C0150937D01CF91DE
:10372000FF90EF90DF90CF900895A4E0B0E0EBE938
:10373000FBE10C943F402FEF260F982F990F980F25
:10374000920F90935701E82FF0E0ED5BFE4FB4909D
:10375000262F30E0F901ED5BFE4FF490F901EA5BB2
:10376000FE4F049190912101913009F4B9C29091DA
:103770001F0146E951E020E9C22E21E0D22EFA01D4
:103780002E2F241B2917B8F42191261310C09F0156
:1037900027503109D9012C91281309C0D6011C9654
:1037A0002D913C911D972C3D354008F499C222E0A3
:1037B000C20ED11CE5CF162F782E0860109287011B
:1037C0001092860181EF80938C0110927A01109201
:1037D0007B0110927C0110927D010E94C51A88E045
:1037E00088B907B9F4B8F5B8872D0E94C20D6C01ED
:1037F000812F0E94C20DC81AD90A14B8109259011B
:10380000109258018091580190915901843F914044
:1038100008F0B0C0B5B8B4B80E94720D14B815B8AD
:103820000E94790DA895872D0E94C20D7C01EC188D
:10383000FD0880915801909159018E37910528F02B
:103840007BE4E716F1040CF495C08DE2E81681E004
:10385000F80654F480915801909159010196909383
:10386000590180935801CECFC70120915801309162
:103870005901232B09F0A5C1B5E1EB16B5E0FB0614
:103880000CF49FC10E94C51A15B88FE087B988E073
:1038900088B9FB2CFF0CF4B880E480937B0084E5AE
:1038A00080BF872D806480937C0087E180937A00BD
:1038B0000E947C0D109259011092580110928000C4
:1038C000109285001092840087E286BB81E280938B
:1038D0006F0081E080937701F5B89091210180938A
:1038E0008100953009F04CC081E090E0072C01C0C8
:1038F000880F0A94EAF780958F7087B9F89483B798
:10390000817F83BF80917701882389F083B78160AD
:1039100083BF7894889583B78E7F83BFF894A895EA
:10392000809158019091590180389C4059F77894C2
:1039300010928100E0908600F090870010926F0056
:1039400087E980937A0014B815B8872D0E94C20DBC
:1039500020913A0130913B01821B930B0C9690937E
:103960008F0180938E01809158019091590180348C
:10397000964040F088E087B988B914B815B8B0C14E
:1039800007B9BCCF8091580190915901909385015E
:1039900080938401F0928301E092820184EF80930E
:1039A0008C01809158019091590182349105C8F0A1
:1039B00060918201709183018091840190918501D1
:1039C00024E630E040E050E00E94403F2093820136
:1039D00030938301409384015093850186EF809357
:1039E0008C01A0917801B0917901209182013091F0
:1039F000830140918401509185010E949D3F20E404
:103A000036E040E050E00E94403F20938201309336
:103A10008301409384015093850120937A01309370
:103A20007B0140937C0150937D010E94551B809146
:103A30008C01843F09F070C0C0907A01D0907B0166
:103A4000E0907C01F0907D0120EAC2162FE0D206C2
:103A5000E104F104C0F4A70196012C543F4F4F4FED
:103A60005F4F60EA7FE080E090E00E94403FC20E3E
:103A7000D31EE41EF51EC0927A01D0927B01E09223
:103A80007C01F0927D01C0907A01D0907B01E090A2
:103A90007C01F0907D01C114D10471E0E706F104CE
:103AA00028F4D092BA01C092B90106C081E090E03A
:103AB0009093BA018093B9018091570190E0845BA3
:103AC0009C4F0E94D14090E0A0E0B0E08C159D0595
:103AD000AE05BF0568F4C81AD90AEA0AFB0AC09203
:103AE0007A01D0927B01E0927C01F0927D0114C0BA
:103AF00024E1C20ED11CE11CF11CC816D906EA064D
:103B0000FB0610F40E940A1210927A0110927B01B7
:103B100010927C0110927D01B4B880917A0190914D
:103B20007B01A0917C01B0917D014997A105B10570
:103B300008F420CFC12CD12C80911F01882329F0BB
:103B400080912101853009F015CF88E08093210113
:103B500080918C0190918D019817C4F089130ACF40
:103B600080907A0190907B01A0907C01B0907D01C3
:103B700040917E0150917F0160918001709181019F
:103B8000481559056A057B0508F0F4CE40917A0185
:103B900050917B0160917C0170917D0140937E0189
:103BA00050937F01609380017093810180938D0118
:103BB000D0928901C092880110938A0170928B0182
:103BC000D9CEA12CB12C20915801309159012A1540
:103BD0003B0560F00E94730D872D0E94C20D8C1969
:103BE0009D09A8952FEFA21AB20AEDCF5701A81A86
:103BF000B90A1A141B049CF479ECA716B1040CF052
:103C0000B9CE28EE33E0D5010E94963F97010F2CE4
:103C1000000C440B550B0E94403F690102C0C12CAF
:103C2000D12C80915801909159010196A0E0B0E00B
:103C30008093820190938301A0938401B0938501C6
:103C4000C7018A0D9B1D0E94BC1E209182013091EC
:103C500083014091840150918501DC010E949D3FC8
:103C60006093820170938301809384019093850116
:103C700060937A0170937B0180937C0190937D0126
:103C800087EF80938C010E94551B20917A0130911F
:103C90007B0140917C0150917D018FE293E029836B
:103CA0003A834B835C830E94D140A8EEB3E0A81B0B
:103CB000B10987FDB39529813A814B815C810E94CE
:103CC000A83F24E630E040E050E00E94403F2093CF
:103CD0007A0130937B0140937C0150937D012CCF7E
:103CE0002496EDE00C945B401F920F920FB60F925A
:103CF00011248F939F93B59904C08091770181110E
:103D000009C0B59B10C080918600909187008A3FC2
:103D1000910548F480915801909159010196909332
:103D20005901809358019F918F910F900FBE0F9072
:103D30001F9018951F920F920FB60F9211248F9318
:103D40009F9310927701B09B10C080918600909154
:103D500087008A3F910548F480915801909159015C
:103D6000019690935901809358019F918F910F90E4
:103D70000FBE0F901F9018950F9221E08C32920782
:103D800010F48CE291E08C52914069E170E00E9465
:103D9000183F99E16B3210F0982F6BE2981BE0ED21
:103DA000F2E0E60FF11DE60FF11D9F93CF010E9497
:103DB000D140482F3196CF010E94D140582F3196E3
:103DC000CF010E94D140282F3196CF010E94D140CF
:103DD000382F6F91421B530B649FC001659F900D5C
:103DE00011240C9669E170E00E94183F620F731F66
:103DF000CB010F900895A0E0B0E0E1E0FFE10C946A
:103E0000404088E893E190932601809325019093A8
:103E10003701809336018EEB80933201C8E0C8B938
:103E200088E187B90E94810DC7B984E00E94BE0D68
:103E3000AC018B5C9840833F9140A0F481E080937B
:103E400041012091360130913701AFEBB9E00E947A
:103E5000873F9A0140E050E00E94403F30932601A6
:103E6000209325018091250190912601909337019F
:103E7000809336018EE00E94C20D8EE00E94BE0D3E
:103E800090933B0180933A010E94890E0E94C51ACB
:103E900088E0F82EF8B8C9E0C7B985E185B9DD2416
:103EA000D394D4B880E00E94BE0D8C01DAE0D7B97B
:103EB00094E0892E84B881E00E94BE0D080F191F7E
:103EC0002CE0E22EE7B830E1932E94B882E00E9415
:103ED000BE0D080F191F15B8C8B9C7B9D4B8C0901E
:103EE0003601D090370180E00E94BE0D5C01D8B948
:103EF000D7B984B88091360190913701E601C80F97
:103F0000D91F81E00E94BE0D6C01E8B8E7B894B8F3
:103F10002091360130913701C20FD31FCA19DB0936
:103F200082E00E94BE0DCC19DD09C81BD90BF7B881
:103F3000F8B814B840913601509137016A01CC0CA1
:103F4000DD1CC40ED51EC01AD10ACC1ADD0AE12C24
:103F5000F12C9801A0E9BAE10E94873FA7019601E0
:103F60000E94403F49015A013093400120933F0194
:103F70009E01A0E9BAE10E94873FA70196010E9435
:103F8000403F30933901209338012057354E30930C
:103F900023012093220180E7881A85EE980A9092E7
:103FA0001C0180921B0189E180933201CDB7DEB7FD
:103FB000ECE00C945C400F931F93CF93DF93C82FDA
:103FC000162FD42F0E94750A8FED90E00E94EE0A02
:103FD0000E94E021612F8C2F0E94ED32C1E0809180
:103FE000BD019091BE01A091BF01B091C001892B8C
:103FF0008A2B8B2B09F0C0E08091050187FD02C060
:10400000C11104C08BED90E00E94EE0A812F0E9446
:10401000750AC11132C00E94790A80915D010E9427
:104020009C0BDD2309F47CC0809142018D3028F483
:1040300090E0805B9C4F0E94EE0A80E00E94BC0AE8
:10404000C11120C06091BD017091BE018091BF017E
:104050009091C00103E028E447EF0E940A0C8EEE25
:1040600090E00E94EE0A81E693E00E94D94023E0AE
:1040700046E464EF0E94FA0C1FC0D111D5CF80E056
:104080000E94BC0A80915D010E949C0B80910501F9
:104090008E3F94F486E091E00E94EE0A60910E015A
:1040A00070910F01809110019091110103E028E4BB
:1040B000409105010E940A0C8091B5019091B601D2
:1040C000A091B701B091B801892B8A2B8B2BF1F00D
:1040D00080E00E94BC0A6091B5017091B6018091A8
:1040E000B7019091B80104E028E440E00E940A0C76
:1040F00089EE90E00E94EE0A23E040E26FEF8091AB
:10410000BB019091BC010E94FA0C07C080E00E94A4
:10411000960A80914501811107C00E948F0A04C050
:1041200080E00E94BC0A8ECFDF91CF911F910F914A
:104130000895EF92FF920F93CF93DF93D82F0E94B1
:10414000D00880918A010E94750A82E291E00E9463
:10415000EE0A0E94D22560918A0180918B010E9413
:1041600022249093870180938601C1E08A3F9F4F6C
:1041700008F0C0E0E0908801F0908901CC2321F0A4
:1041800080EE90E00E94EE0A80918B010E94750AF9
:10419000DD2359F0909142018DE0891B0E947D0A38
:1041A00084E790E00E94EE0A02C00E948F0A0E94FB
:1041B000940860917E0170917F01809180019091BF
:1041C000810104E026E440918D010E940A0CCC2379
:1041D00069F081E191E00E94EE0A22E044E06EEF96
:1041E00080918601909187010E94FA0C0E948F0AAB
:1041F0000E949C08EF2869F08AE091E00E94EE0A94
:1042000022E045E26FEF80918801909189010E9440
:10421000FA0C0E948F0ADF91CF910F91FF90EF90DF
:1042200008958F7021F40E94A4080E9467120895D7
:104230008F3021F490913C01913011F08F5F0895FF
:1042400080E00895CF938FE790E00E94A82CC0E013
:104250000E94020F60E082E00E94BA1862E080E0F3
:104260000E94BA180E94D00880917601882331F00C
:1042700041E062E080E00E94DB1F12C08FE790E027
:104280000E94EE0A8AE593E00E94EE0A0E949408DA
:104290008FE30E94260A80E00E94960A0E948F0AFD
:1042A0008C2F0E94112188EE93E00E94200E811134
:1042B00006C08C2F0E941821C82F8A3F48F20E9406
:1042C000D908CF9108950F931F93CF93DF93C0E048
:1042D000D8E012EF0DE00E94020F60E082E00E9441
:1042E000951BD093210180918C01843FE1F4809152
:1042F0007A0190917B01A0917C01B0917D0184367F
:104300009105A105B10578F440E060E082E00E94EB
:104310007F3060937A0170937B0180937C0190934E
:104320007D0110938C0180918C01823FB4F08093C9
:104330008D0180917A0190917B01A0917C01B091D7
:104340007D0180937E0190937F01A0938001B093C3
:10435000810181E00E9499201CC00E94D00888E75A
:1043600090E00E94EE0A80914201902F981B892FC5
:104370000E947D0A84E790E00E94EE0A0E94940861
:104380008FE30E94260A0E948F0A0E949C080E94C6
:104390008F0A8C2F0E94112188EE93E00E94200E3C
:1043A000811107C08C2F0E941821C82F8A3F08F462
:1043B00092CF0E94D908DF91CF911F910F9108955C
:1043C000A8E1B0E0E6EEF1E20C943A4082E080939E
:1043D000050180912101813009F030C28091760180
:1043E000813009F02BC220915D01298B34E0239F9D
:1043F000F0011124E755FE4F4080518062807380A8
:1044000049E0441642E554066104710408F016C2FE
:104410005B8A4A8A10E08989123028F40E94920B44
:10442000B82EA92E03C00E94920B5C01EA2DF0E089
:10443000EA5BFE4F24918B2D90E0FC01ED5BFE4F7B
:10444000E49115B858E058B930EF431651046104AF
:104450007104B8F410FD15C020901B0130901C01B0
:1044600040E9241A4AE1340A41E050E00B2C02C032
:10447000440F551F0A94E2F7CA018860822B87B95E
:1044800008C0E4B9822F886087B920901B01309062
:104490001C0104E18B2D288F0E94BA0D4C018A2D3E
:1044A0000E94C20D288D54E08516910410F40497E3
:1044B00010F0015079F780E480937B0094E590BF81
:1044C0008B2D806480937C0087E180937A00E12CBF
:1044D000F12C10928000109285001092840087E2E7
:1044E00086BB288F0E947C0D012F0170288D10FD46
:1044F00005C081E88093810028B908C028B90E94CE
:10450000850D80E286BB81E88093810086B385FDBE
:104510000CC080FFFBCF21E026BBA89597012F5F41
:104520003F4F7901203A310589F738E038B91092C8
:10453000810090E296BB209186003091870069014E
:1045400040918400509185002417350738F480FF8E
:1045500005C041E046BB5FEFE51AF50A87E98093A5
:104560007A0024E18B2D288F0E94BA0D4C018A2DF0
:104570000E94C20D288D34E08316910410F4049734
:1045800010F0215079F780903F01909040014A89C6
:104590005B89840E951E820C931C20911D01309125
:1045A0001E0150E925165AE13506B0F481EEC81611
:1045B000D104E104F10438F4C60165E070E00E9422
:1045C000183F645101C069E128523109261B3109A5
:1045D00067FD339586E009C0C40168E57BE10E9470
:1045E000183F87E0860F285D3F4F90E0A0E0B0E0E5
:1045F0008C159D05AE05BF0528F4C81AD90AEA0A2C
:10460000FB0A03C0C12CD12C7601002329F09AE3C8
:10461000C90ED11CE11CF11C40EAE416F10418F0AB
:10462000C12CD12C76015BE0C516D104E104F10464
:1046300028F081E0C81AD108E108F108409136015C
:1046400050913701A12CB12CA8EEB3E00E94873F16
:104650006C8B7D8B8E8B9F8B9101DA010E94873F43
:10466000A50194010E94403F442755276C897D890C
:104670008E899F890E94403FC9010E94E10EFC0182
:10468000A5019401C701B6010E94FC3E4B015C01EB
:10469000CF01A0E0B0E074E0880F991FAA1FBB1FF4
:1046A0007A95D1F7BC01CD016B5F7F4F8F4F9F4F44
:1046B0002AE030E040E050E00E94403F4427552788
:1046C000C501B4010E94403FE12FF0E0A1E0B0E05D
:1046D000AC0FBD1F94E0199FA00DB11D11242D93A7
:1046E0003D934D935C931397011116C084E1C81656
:1046F000D104E104F10480F03196EE0FFF1FEE0FBC
:10470000FF1F81E090E08C0F9D1FE80FF91F2083B1
:104710003183428353831F5FA8951F5F143008F4D1
:104720007ACE88E088B984E00E948A0D91E00D81FC
:104730001E812F81388549815A816B817C81401788
:1047400051076207730708F090E00D851E852F85DD
:10475000388949855A856B857C85401751076207E2
:10476000730710F483E001C082E0E92FF0E0EE0F60
:10477000FF1FEE0FFF1F21E030E02C0F3D1FE20F67
:10478000F31FD90134E0839FA00DB11D11240D91B9
:104790001D912D913C91408151816281738104175B
:1047A00015072607370708F0892FE1E0F0E0EC0F46
:1047B000FD1F44E0849FE00DF11D112440815181D3
:1047C0006281738140930E0150930F016093100139
:1047D0007093110180FD0AC080EF481651046104F6
:1047E000710420F48BEF8093050117C08CEF809348
:1047F0000501CB01BA016B5F7F4F8F4F9F4F2AE0BE
:1048000030E040E050E00E94403F20930E013093A2
:104810000F01409310015093110180910E0190916E
:104820000F01A0911001B0911101892B8A2B8B2BC4
:1048300011F41092050188E087B914B86896E2E196
:104840000C945640AEE1B0E0E8E2F4E20C943A4059
:10485000662EB82E860F898320912101283059F5C4
:1048600020917E0130917F01409180015091810122
:1048700057FD15C010918D0109C0CA01B9012AE088
:10488000312D412D512D0E94403F1F5F173FACF34A
:1048900091F42A3560E036074105510518F48FEF91
:1048A0009FEF7CC1173F39F480E028178DE7380768
:1048B0004105410510F020E03DE72C8B3D8B27EDB5
:1048C000A22E02C095EDA92EE6E4F1E0E60DF11D61
:1048D000859188608E87E6E4F1E0EB0DF11D85910E
:1048E00088608F87E3E4F1E0E60DF11D7590E3E465
:1048F000F1E0EB0DF11DC59090EC692AB92A81E039
:10490000E82EF12C012D112D8E831F821886198619
:104910001A861B861C861D86188E198E1B8E1A8E73
:104920000E94C51A88E088B960927C000E947D0DC3
:104930003F8537B975B874B80E94840D14B815B89E
:10494000DD24B5ED9B2EA7ED8A2E3E8537B975B8CF
:1049500074B860927C00A895A0927A0080917A0049
:1049600086FDFCCFA0927A0080917A0086FDFCCF74
:104970002090780030907900B0927C00A0927A006C
:1049800080917A0086FDFCCF80927A000E94820D91
:104990000E94830DC5B8C4B80E94830D0E94850D86
:1049A000A89514B815B880917A0086FDFCCF2091A7
:1049B000780030917900288B398B3F8537B9C5B89D
:1049C000C4B8A895B0927C00A0927A0080917A0039
:1049D00086FDFCCFA0927A0080917A0086FDFCCF04
:1049E000609178007091790060927C00A0927A00CA
:1049F00080917A0086FDFCCF80927A000E94820D21
:104A00000E94830D75B874B80E94830D0E94850DB5
:104A1000A89514B815B880917A0086FDFCCF409116
:104A200078005091790014B8CB01820D931DE80EE7
:104A3000F91E011D111DEA82FB820C831D838889EA
:104A40009989840F951F2E813F8168857985280F6C
:104A5000391F611D711D2E833F836887798722E38B
:104A60002417150650F075B874B80E94870D14B855
:104A700015B8888D8395888F07C0483E73E0570727
:104A800018F08A8D83958A8F888999892817190645
:104A900060F03E8537B9C5B8C4B80E94870D14B818
:104AA00015B8898D8395898F07C0883E73E0970775
:104AB00018F08B8D83958B8FD3945D2D5F3F09F01C
:104AC00044CF40903F0150904001440C551C92014E
:104AD000E4E0240D351DEA95E1F72901570168014D
:104AE0006E807F8088849984209121012830C1F4D0
:104AF0006C897D89812D912D685370408040904054
:104B00009B01AC010E94FC3E9B01AC016FEF71EC7C
:104B10008EE390E00E94403F621A730A840A950A6D
:104B2000A614B704C804D90428F46A187B088C08B2
:104B30009D0803C0662477244301B20180E090E021
:104B40009301A4010E94FC3E9501A6010E94403FF2
:104B50008BE293E07981870F911D0E94D14090E014
:104B6000682EC90160E170E00E94183F260F371FD0
:104B7000C9016816190618F4861991090FC08C5ED0
:104B80009F4F8615910540F48C899D89843981E178
:104B9000980710F00E940A12812D912D6E96E2E185
:104BA0000C9456408F929F92AF92BF92EF92FF92D9
:104BB0000F931F93CF93DF9300D000D0CDB7DEB714
:104BC0008091880190918901892B09F0B9C0E09109
:104BD0008A01F0E0EA5BFE4F14911860E0918B01CE
:104BE000F0E0ED5BFE4FF4900E94C51A88E088B9B2
:104BF00015B817B9F4B880918B010E94C20D8C01D1
:104C000020918D018CE0820F843008F099C0809152
:104C10007E0190917F01A0918001B09181013FE0E0
:104C2000E32EE20E4AE0842E912CA12CB12CBC0183
:104C3000CD016B5F7F4F8F4F9F4FA50194010E9465
:104C4000403FDA01C901E39467E0E612F0CF29386A
:104C500063E136074105510508F072C02530310582
:104C600008F46EC0F5B8F4B8E12CF12CE216F306A6
:104C700070F429833A834B835C830E94830D82E026
:104C8000E80EF11C5C814B813A812981EFCF14B889
:104C900015B8A89585E08093320180918B01298316
:104CA0003A834B835C830E94C20D29813A814B81F8
:104CB0005C810817190720F47C01E01AF10A02C090
:104CC000E12CF12CA12CB12CA216B30670F429838F
:104CD0003A834B835C830E94830D6FEFA61AB60A5A
:104CE0005C814B813A812981EFCF80918B010E94B9
:104CF000C20D29E120933201A8950817190718F46D
:104D0000801B910B02C080E090E08E159F0588F417
:104D10009701281B390B69F0A4EFB1E00E94873F8F
:104D2000970140E050E00E94403F3093890120937A
:104D300088010E94C51A88E087B988B914B815B8E7
:104D40000F900F900F900F90DF91CF911F910F91C7
:104D5000FF90EF90BF90AF909F908F900895A5E047
:104D6000B0E0E5EBF6E20C943A4085E192E00E9477
:104D7000A82C20EF2B8354980E94780D14BC16BCED
:104D8000109215011092160110921701109218013D
:104D900031E035BB30936E001092800085E294EFD5
:104DA00090938B0080938A00E1E0F0E0F09389001B
:104DB000E0938800109285001092840083B5816092
:104DC00083BDF6E0F6BBF0936F00789424E0209367
:104DD000810012E31A820E94710DA8954F9902C0BA
:104DE00031E03A8385B5811127C015BC86B5809323
:104DF00015010E949C080E948F0A0E94A4080E942C
:104E00008F0A0E94C80A86E60E94260A0E94CF0ADC
:104E10006091150170911601809117019091180110
:104E200047E00E94110D549880918100882339F049
:104E30008FE30E94260A03C0115069F6D6CF109264
:104E4000810010926F002091150130911601409160
:104E5000170150911801DA01C9010197A109B1099F
:104E6000893D9146A105B10508F0FCC0AAE0B0E07B
:104E70000E949D3FDC01CB014096A11DB11D24E0A5
:104E8000B695A795979587952A95D1F7BC01660F9A
:104E9000771F709371016093700154980E94780D90
:104EA00016BC109215011092160110921701109263
:104EB000180181E085BB80936E00109273011092FF
:104EC000720194E09BBB80916800846080936800CD
:104ED000789480916D00806180936D0019820E94AA
:104EE000710DA8954F9902C0E1E0EA8380916D00B1
:104EF00084FF05C0F981FF5FF983FA3F81F715BC94
:104F000080916D008F7E80936D00809168008B7F13
:104F10008093680086B5809315010E949C0884E503
:104F20000E94260A0E94CF0A609115017091160115
:104F300080911701909118012091700130917101B9
:104F40003D832C8324ED30E340E050E00E94B03FED
:104F5000EC81FD815F01C12CD12CE12CF12C00E012
:104F600010E00E94DD3F49013A011B012C012C8118
:104F70003D812038310530F007E023E745EFB401EB
:104F8000C30116C084E6A82EB12CC12CD12CE12C73
:104F9000F12C00E010E09401C2010E94DD3FF22FED
:104FA000E42F07E023E747EF6F2F732F8E2F952F06
:104FB0000E940A0C39813A3F21F48FE30E94260AAD
:104FC00051C09401A301B101C2012C393E4C4340B0
:104FD0005105610571058105910509F008F442C08C
:104FE0000E94A40886E60E94260A0E94CF0A940125
:104FF000A301B101C20154016301710182012115B4
:105000003A4C4A495B43610571058105910589F078
:1050100080F020E030E04AE85DE568E775E483E68B
:1050200091E00E94DD3FF22FE42F07E028E44AEFF1
:105030000FC020E030E846EC54EA6EE77DE883E0FC
:1050400090E00E94DD3FF22FE42F07E028E44CEFD0
:105050006F2F732F8E2F952F0E940A0C8AE70E94C4
:10506000260A549810926E0080ED97E00E94200E60
:105070002A81820F29F43B8131503B8331117BCE51
:105080002596E2E10C9456401F920F920FB60F92B4
:1050900011248F939F93AF93BF93789480911501C0
:1050A00090911601A0911701B09118019F5FAF4F29
:1050B000BF4F8093150190931601A0931701B093F1
:1050C0001801BF91AF919F918F910F900FBE0F90DC
:1050D0001F9018951F920F920FB60F9211248F9365
:1050E00086E085BD8F910F900FBE0F901F90189591
:1050F0001F920F920FB60F921124A8951092810063
:1051000015BC0F900FBE0F901F9018951F920F9215
:105110000FB60F9211242F933F938F939F938091FB
:10512000720190917301892B11F481E085BD20916A
:105130007201309173018091700190917101281773
:10514000390730F015BC80916D008F7E80936D0023
:1051500080917201909173010196909373018093F5
:1051600072019F918F913F912F910F900FBE0F90E1
:105170001F9018958C3008F08C50811103C080E28C
:1051800092E036C0813019F485E192E031C082307E
:1051900019F488EE91E02CC0833019F48DED91E084
:1051A00027C0843019F48AE890E022C0853019F4D1
:1051B0008FE790E01DC0863019F488E790E018C0B2
:1051C000873019F48EEC91E013C0883019F485EB28
:1051D00091E00EC0893019F48BE991E009C08A3062
:1051E00019F48DEF91E004C08B3021F484EF91E04D
:1051F0000E94EE0A0E948F0A08950F93CF938AE8C7
:1052000090E00E94A82CC0E01092210160E082E0B2
:105210000E94C42C809121018830C9F50E94940815
:1052200083E40E94260A0E94CF0A60917E01709159
:105230007F01809180019091810103E026E44091FB
:105240008D010E940A0C0E948F0A60918A01809150
:105250008B010E94222490938701809386010E94F3
:105260009C0882E191E00E94EE0A80918601909173
:1052700087018A3F2FEF920730F422E044E06EEF7F
:105280000E94FA0C08C08FE30E94260A04C00E9404
:10529000C80A0E949C080E948F0A8C2F0E9411212C
:1052A00088EE93E00E94200E811107C08C2F0E948F
:1052B0001821C82F8A3F08F4A7CFCF910F910895E6
:1052C0000895A5E0B0E0E7E6F9E20C943A4088EEF4
:1052D00091E00E94A82C80E18093800010926F00E2
:1052E00081E090E0909389008093880010928B0079
:1052F00010928A0083E086BB1092820088E080933F
:10530000810015B891E194B988B989E087B9229AEA
:1053100080938100312C1B82FAE02F2E21E02C8318
:10532000812C912C5401839431E13D83832D90E0B5
:105330000A966EE170E00E942C3F162F062F4B81DB
:10534000641789F00E94D00888EE91E00E94EE0A6E
:10535000712C701628F48EE20E94260A7394F9CFFD
:105360000E948F0A1B835D815231B8F0C701B601DC
:10537000A50194010E94403F6B017C018C81622D4C
:105380000E940C3FA92FB0E0A50194010E949D3F0F
:10539000C60ED71EE81EF91E0CC08C81622D0E941D
:1053A0000C3FA92FB0E0A50194010E949D3F6B0125
:1053B0007C010E9494088C81821103C09D819231EE
:1053C00038F4ED811A821982E63140F082E507C097
:1053D00021E030E03A8329838CE301C08EE30E9410
:1053E000260A0E94790A4D81C701B6010E94110D5B
:1053F000C701B6017C5D8B409F4FA7019601220F2C
:10540000331F441F551F0E94403FCA014F3F5105A3
:1054100039F030F08DE08093810080E094E01FC08F
:105420004034510530F08CE08093810080E091E0C1
:1054300016C04830510530F08BE08093810080E445
:1054400090E00DC0892B31F09AE09093810088E0C4
:1054500090E005C0E9E0E093810081E090E02C015C
:10546000612C712CCA01B901A30192010E94403F35
:105470002150310930938900209388008091880061
:1054800090918900892B31F421E030E0309389003C
:10549000209388000E948F0A0E949C0886E60E9442
:1054A000260A0E94790A009188001091890060E024
:1054B00072E18AE790E0A30192010E94403FA4E6D6
:1054C000B0E00E949D3F98012F5F3F4F40E050E0C9
:1054D0000E94403F29013A01A4E6B0E0A7019601ED
:1054E0000E949D3FA3019201261B370B480B590BCD
:1054F000CA01B90105E228E44EEF0E940A0C8AE7CE
:105500000E94260A0E948F0A8CED95E00E94200ED0
:10551000882309F44AC0863960F010928100109205
:10552000800088E087B914B822982596E2E10C94AF
:1055300056408135A0F149815A81452BE9F05D81C2
:1055400051505D83C501B4012AE030E040E050E0F5
:105550000E94403F49015A01C701B6010E94403FE5
:10556000CA01B9012AE030E040E050E00E94403F2B
:105570006C833AE0232E36C08D81863148F58F5FEB
:105580008D83863111F425E1222EAAE0B0E0A50139
:1055900094010E949D3F4B015C011C8223C08B3013
:1055A00018F09C819F5F9C83312CEC818E2F90E0C2
:1055B000622D70E06F5F7F4F0E942C3F8C83832DA4
:1055C0000E941821382EFFEEF81708F0AFCEA5CFB5
:1055D0008AE0282E21E02C83812C912C5401839485
:1055E00031E13D83312CA2CEA4E0B0E0EAEFFAE253
:1055F0000C943F408DED91E00E94A82C83E28093B3
:10560000800010926F008FEF90E090938B0080935A
:105610008A0083E086BB1092820015B881E184B9CC
:1056200088E088B989E087B9229A21E030E0309398
:105630008900209388008093810010E0712C92E310
:1056400000E024E6C22ED12CE12CF12C88248A948F
:1056500033E0932EA12CB12C9715E9F1943620F06C
:105660008CE9782E790E01C0792E272D30E0AFEF2E
:10567000B3E00E94873F6E5C7F4F8F4F9F4FA70123
:1056800096010E94403F30938B0020938A0029832B
:105690003A834B835C830E949408A8EEB3E029818F
:1056A0003A814B815C810E949D3F61507E4F8F4FBC
:1056B0009F4FA50194010E94403FDA01C90125E0F6
:1056C00045E26FEF0E94FA0C0E948F0A093218F02F
:1056D0008CE30E948A0D80E496E00E94200E082F41
:1056E000833860F088E087B91092810010928000C2
:1056F00014B822982496EDE00C945B40833310F0AC
:105700009AE003C0882321F091E0970D10E001C0DA
:10571000972D812F99830E941821182F9981803FFE
:1057200008F49ACFDFCFCF93DF938BE991E00E940B
:10573000A82C8AE293E00E94D140C82FD0E081E8F3
:105740000E94BD088C2F0E94BD080E94940824E08E
:1057500040E260E08C2F90E00E94FA0C0E948F0AD9
:1057600080E496E00E94200E882331F0823850F4C5
:10577000893280F0CF5FD0E08D2F0E941821D82F82
:10578000803FE8F26C2F8AE293E00E94DF40DF91D5
:10579000CF910895C150EFCF0F931F93CF93DF9315
:1057A0008EEC91E00E94A82C8FE293E00E94D14001
:1057B000C82FD0E00E9494080C2F0C2E000C110B67
:1057C000C7FF0BC08DE20E94260A23E045E26FEF7F
:1057D00088279927801B910B04C023E045E26FEFD7
:1057E000C8010E94FA0C0E948F0A80E496E00E9491
:1057F000200E882331F0823888F48932C8F0CF5FD8
:10580000D0E0C13514F0C55603C0CC3E0CF4CB59E2
:105810008D2F0E941821D82F803F60F26C2F8FE2CD
:1058200093E00E94DF40DF91CF911F910F91089587
:10583000C150E6CF813021F480E00E94AF26089568
:10584000823019F40E9461290895833019F40E946E
:10585000F42A0895843019F40E94FD2808958530B3
:1058600019F40E9422210895863029F40E94D90853
:105870000E9463210895873019F40E94CC2B08956B
:10588000883021F481E10E947A0F0895893019F45B
:105890000E94932B08958A3019F40E94062E0895D1
:1058A0008B3029F45E9880E090E00E94200E0895ED
:1058B000FF920F931F93CF93DF9380E392E00E94B8
:1058C000A82CD0E0C0E01BE01C0F00E0FF24F39404
:1058D000F00E60E08F2D880F0E948708013021F4C0
:1058E0008EE30E94260A02C00E94790A1C3018F03A
:1058F00084EF810F01C0812F0E94BA280F2D1F5FF6
:10590000033021F780E49FE10E94200E8111D0E056
:1059100090913C01913009F4D0E0823350F0CC23D7
:1059200089F08C2F0E941A2C80E392E00E94A82C10
:1059300002C08111CF5FDF5FD83720F4CC3018F27E
:10594000CC50C1CF80E0CDB7DEB7E5E00C9463402A
:10595000A2E0B0E0EEEAFCE20C94494089839A832D
:105960000E94D90889819A810E94EE0A14E682E099
:105970000E948A0D4F9902C01150C9F70E949408E5
:105980002296E3E00C946540A4E0B0E0EAECFCE28F
:105990000C944140182F062F262F30E0F901EA5BC6
:1059A000FE4FE491E860FE2EE82FF0E0ED5BFE4F45
:1059B000A490F901ED5BFE4FE490109287011092E4
:1059C000860110927A0110927B0110927C01109254
:1059D0007D0187EF80938C010E94C51A88E088B909
:1059E000F7B8E4B8E5B8812F0E94C20D7C01802F82
:1059F0000E94C20DE81AF90A14B8109259011092C7
:105A0000580120E030E09CE2C92EDD24D3944AE026
:105A1000942E54E6B52E8091580190915901843D01
:105A2000904308F071C0A5B8809158019091590138
:105A3000892B89F0F601E21BF30B609158017091FC
:105A40005901929EC001939E900D11240E94183F0F
:105A5000E617F70750F4A4B80E947C0D14B88091A3
:105A6000580190915901019628C080915801909158
:105A700059010B97C8F06091580170915901B29E7D
:105A8000C001B39E900D11240E94183F6E177F072E
:105A900058F4A4B80E94710D14B8809158019091E7
:105AA00059018C599F4F09C0A4B80E94770D14B8B2
:105AB00080915801909159010A96909359018093D1
:105AC000580115B80E947E0DA895812F0E94C20D25
:105AD0009C012E193F0980915801909159018B31F9
