:10000000F4C700000C9407080C9407080C94070828
:10001000FEC700000C944227FAC700000C94470E5C
:10002000F6C70000F4C700000C947D1D0C94262731
:100030000C9434270C94571DEAC70000E8C7000051
:100040000C940027E4C70000E2C70000E0C70000EE
:10005000DEC700000C94480EDAC70000D8C70000C5
:10006000D6C70000D4C70000DE09E009E409EE09A4
:10007000EC09E809E809EA09F409F409C200BB003F
:10008000B4001008407E01013E01013E01013E0125
:10009000017E404018000720080808F800000020F2
:1000A00060A03FA06020020202FF020202101010B6
:1000B0001F000000050842818989760508C2A191C8
:1000C00089860508000402FF0010100508F878383A
:1000D0005888091003081C3E7F0D080710FF818116
:1000E00081F1E1C1FF4040404743410D080110FF4D
:1000F000FF11080310F1E1C14743410E0008202120
:1001000021122060E0E0E0FEFE0402010001037F16
:100110007F21C2C4C4C04094840007030102040EBE
:10012000080210FEFE7F7F00000000110005202065
:1001300060E0E0E00201000103C2C4C4C040070364
:10014000010204010410090A0C4E6F742063616CF3
:10015000696272617465642120466F72FF63616C2D
:100160006962726174696F6E20636C616D70207476
:1001700068652033FF70696E7320746F67657468FB
:10018000657220616E642073746172742077697483
:100190006820746865FF6B65792E2041636B6E6F14
:1001A000776C65646765207468652073656C662D7F
:1001B00074657374207769746820746865206B6552
:1001C000792077697468696EFF32732E20446973F1
:1001D000636F6E6E6563742070696E732061667400
:1001E000657220746865FF6D6573736167652022B1
:1001F00069736F6C617465FF50726F6265212220B4
:1002000069732073686F776E2E20536F6674776101
:10021000726520616E6420646F63756D656E7461D4
:1002200074696F6E2069732061742073766E3A2F43
:100230002F206D696B726F636F6E74726F6C6C657B
:10024000722E206E65742F7472616E736973746F91
:1002500072207465737465722000B90387035803B4
:100260002E030703E402C302A40288020000140064
:1002700029003E005300690080009700AE00C600D0
:10028000DF00F80012012D01490165018201A00182
:10029000BE01DE01FF012102440268028E02B502A6
:1002A000DE020903350364039403C803FE03370425
:1002B0007304B404F90443059305EA054906B3063B
:1002C0002907AE074808FF08DE090000000000000B
:1002D000000000000000000000001E21212112008B
:1002E000807F0000007E4A4A4A340000000000007F
:1002F000FC4020100804020100000001010101017E
:1003000001010101010101017F0488D0E0F0F80042
:1003100000000000000000000000000000000000DD
:1003200000FC94948400000102FC00000000000026
:100330000000000000001E21212112E0C0804020AA
:10034000100F000000C020202040000000FC000032
:100350009E9E0403030303020000002020232425A3
:1003600025232020203F00007B7B2142840480C085
:100370000000000000000000000000000000FC94ED
:10038000948400040607070708F00000000000003E
:1003900000000000000000803F2121120C0000003E
:1003A00000FF000000F0084848C80000FE0000E719
:1003B000818181C1E1F18181810100202020212101
:1003C000212020203F0000F340404041434740406F
:1003D0007FC00000000000000000000000000000DE
:1003E000489494946400000000FF000000000000A6
:1003F000000000000000000000003F2121120C005E
:1004000000FF000000F0084848D000000000000095
:10041000FEFE040404040404040700080808090993
:100420000908087F3E1C08087F7F2020202020200C
:1004300020E00000000000000000000000000000BC
:10044000000048949494640000FF00000000000045
:100450000000000000FF003C0A090A3C002231298C
:100460002926000082868E9EBEFEFEBEDEEFF6FAD4
:10047000FEFEFAF2E2C282000000080808040279D7
:1004800084A4A46800FF0000000000000000000039
:1004900000000000000000000000000000FF00005D
:1004A000F0282428F0001008FC00000000000000E4
:1004B00000000000003C0A090A3C00FF00000000A8
:1004C0000000000000000000000000000000040C1C
:1004D0001C3C7CFF7C3C1C0C040000000000009EC7
:1004E000A1A9A99A804323130B0703FF0303030366
:1004F0000303000000000000000000000078848476
:10050000844800FF000000000000000000F0080424
:10051000E2110909090909090909091121C2040897
:1005200010E0000000010204040700000000008049
:10053000402010884423100804030000000000003D
:100540000000000000FE0100FC02010000000000AD
:100550000000000000000000000000000079494990
:1005600079000000000000000000C0F030303030A2
:10057000F0C00003030303030300FCF8F0E0C0FC39
:10058000FCC00F070301000F0F00C0FCFCC0E0F02F
:10059000F8FC000F0F000103070FC0FCFC0000FC7B
:1005A000FCC0000F0F00000F0F00E0F0381838F00B
:1005B000E000191B1F001F1B190000F8F80000E0E5
:1005C000E000607F3F0C180F1F1818181818181833
:1005D000F8C00606060606060700C0F81818181820
:1005E00018180007060606060606C0C0C0C0C0C030
:1005F000C0C00000000000000000C000008000003B
:100600008000070C0C070C0C070C00800000800019
:1006100000C00C070C0C070C0C07000000000000C9
:1006200000000000000000000000000000000000CA
:1006300000000000000000000000000000000000BA
:1006400000000000000000000000000000000000AA
:10065000000000000000000000000000000000009A
:100660000000000000000000000000F0F81C0EFE7A
:10067000FE00787F1F18181F7F78FEFE0000FEFE28
:1006800000001F1F18181F7F7800FEFE00FE00FEEE
:10069000FE001F1F181F181F7F7800C0E03018F8D9
:1006A000F800787F1F18181F7F78C0E030F8F83006
:1006B000E0C0070F187F7F180F07F8F80000F8F860
:1006C00000001F1F18181F7F7000F8F800E000F8E6
:1006D000F8001F1F181F181F7F780000000000007F
:1006E000000000000000000000000000000000000A
:1006F00000000000000000000000000000000000FA
:1007000000000000000000000000000000000000E9
:1007100000000000000000000000000000000000D9
:1007200000000000000000000000000000000000C9
:1007300000000000000000000000000000000000B9
:1007400000000000000000000000000000000000A9
:100750000000000000000000000000000000000099
:100760000000000000000000000000000000000089
:10077000000000000000000000000000FCFEFEFC85
:1007800000000000006F6F0000000B0F07000B0F50
:100790000700000000000000000018FCFC18FCFC32
:1007A0001800030707030707030000387CE7C79C0E
:1007B000180000060E38390F0700182CA4D8E07076
:1007C00038000E07030D121A0C0018BCE6B61E8C7A
:1007D0008000070F18191B160D0800001B0F0700DB
:1007E000000000000000000000000000F0FC0E0609
:1007F00000000000030F1C1800000000060EFCF0B3
:1008000000000000181C0F03000090A0C0F8C0A05A
:1008100090000402010F0102040000C0C0F0F0C00B
:10082000C000000000030300000000000000000002
:1008300000000000587838000000C0C0C0C0C0C030
:10084000C0000000000000000000000000000000E8
:1008500000000000383838000000000080C0E07060
:1008600038000E07030100000000F8FC0E060EFC25
:10087000F800070F1C181C0F070000180CFEFE00E4
:1008800000000000181F1F180000181C0E86CEFC68
:1008900078001C1E1F1B1918180006066666F69EB7
:1008A0000E00060E1C181C0F0700C0FE3E00FCFCCC
:1008B0000000030303031F1F03007E7E6666E6C677
:1008C00086000C1C18181C0F0700F8FCCE66E6C04A
:1008D0008000070F1C181C0F030006060686E67E24
:1008E0001E0000001E1F0100000018BCEE46EEBCFA
:1008F0001800070F1C181C0F070078FCCE86CEFCD2
:10090000F800000019191C0F07000000707070003B
:10091000000000001C1C1C00000000007070700033
:10092000000000406C3C1C00000080C0E070381CDF
:100930000E00000103070E1C38000060606060605C
:10094000600000030303030303000E1C3870E0C0C3
:100950008000381C0E0703010000181C0E86CEFC18
:1009600078000000676701000000F008A4A4C40834
:10097000F00007081312110A0900F0F81C0E1CF809
:10098000F0001F1F0606061F1F00FEFEC6C6C6FE9D
:100990003C001F1F1818181F0F00F8FC0E060E1C35
:1009A0001800070F1C181C0E0600FEFE020206FCB3
:1009B000F8001F1F1010180F0700FEFEC6C6C6065F
:1009C00006001F1F181818181800FEFEC6C6C60617
:1009D00006001F1F000000000000F8FC0E068E9CA1
:1009E0009800070F1C180D1F1F00FEFEC0C0C0FEA0
:1009F000FE001F1F0000001F1F00000000FEFE0081
:100A000000000000001F1F000000000606FEFE00A0
:100A100000000C1C181F0F000000FEFEE0F03C0E52
:100A200006001F1F0003071E1C00FEFE0000000042
:100A300000001F1F181818181800FEFC70E070FC4A
:100A4000FE001F1F0003001F1F00FEFC78E080FE59
:100A5000FE001F1F0001070F1F00F8FC0E060EFC12
:100A6000F800070F1C181C0F0700FEFE8686CEFC40
:100A700078001F1F010101000000F8FC0E060EFCAB
:100A8000F800070F1C181B160D18FEFE868686FC44
:100A900078001F1F0101071E1800387CEEC6CE9C8F
:100AA0001800060E1C181D0F0700000606FEFE06A5
:100AB00006000000001F1F000000FEFE000000FEF8
:100AC000FE00070F1C181C0F0700FEFE000000FEB2
:100AD000FE0001030F1C0F030100FEFE00FE00FEDE
:100AE000FE00031F1E071E1F03000E1EF8E0F81E67
:100AF0000E001C1F0300031F1C0000FEFE8080FE72
:100B0000FE000000011F1F010000060686C6E67EEB
:100B10003E001E1F1B191818180000FFFF030303D7
:100B20000000003F3F30303000001C3870E0C080D3
:100B30000000000000000103070000030303FFFFA3
:100B40000000003030303F3F0000080C0603060C68
:100B5000080000000000000000000000000000008D
:100B6000000060606060606060000000070F1B00B4
:100B7000000000000000000000000098D8D8D8F065
:100B8000E000070F1D180C1F1F00FEFE301838F084
:100B9000E0001F1F0C181C0F0700E0F03818387019
:100BA0006000070F1C181C0E0600E0F0381830FE1D
:100BB000FE00070F1C180C1F1F00E0F0B898B8F0DB
:100BC000E000070F1D1919190100C0F8FCCEC61C62
:100BD0001800001F1F0000000000E0F0381830F877
:100BE000F80003076E6C663F1F00FEFE301838F0F9
:100BF000C0001F1F0000001F1F00003030F6F6006D
:100C000000000000181F1F180000003030F6F6002A
:100C100000003070607F3F000000FEFE80C0F038B2
:100C200018001F1F01070E1C1800000006FEFE0022
:100C300000000000001F1F000000F8F818F018F076
:100C4000E0001F1F001F001F1F00F8F8301838F0C9
:100C5000E0001F1F0000001F1F00E0F0381838F0F0
:100C6000E000070F1C181C0F0700F8F8301838F0C8
:100C7000E0007F7F0C181C0F0700E0F0381830F8F8
:100C8000F800070F1C180C7F7F00F8F86030187808
:100C900070001F1F00000000000060F0989898305E
:100CA0002000040C1919190F06006060FCFE60603A
:100CB000000000000F1F181C0C00F8F8000000F8DE
:100CC000F8000F1F18180C1F1F00F8F8000000F89C
:100CD000F80003070E1C0E070300F8F800E000F808
:100CE000F800031F1C0F1C1F03001838E0C0E03879
:100CF00018001C1F0301031F1C00F8F8000000F877
:100D0000F800070F6C6C663F1F0018181898D87809
:100D100038001C1E1B191818180000C0FE3F0303E2
:100D2000000000001F3F30300000000000FFFF0007
:100D300000000000003F3F0000000003033FFEC032
:100D400000000030303F1F000000E0E0FCF8F0E061
:100D50004000000007030100000040E0F0F8FCE064
:100D6000E0000000010307000000FEFEC6C6C686C4
:100D700000001F1F18181D0F0700FEFE06060606BE
:100D800000001F1F000000000000FBFB98989B1B49
:100D900000001F1F19191918180006BEF0FEF0BE3A
:100DA00006001C1F001F001F1C00181C0EC6EEFCB6
:100DB0003800060E1C181D0F0700FEFE80E078FEAE
:100DC000FE001F0F0701001F1F00FCFD03C6E3FD0F
:100DD000FC001F0F0703001F1F0000F0FC0E06FEA3
:100DE000FE00181F0F00001F1F00FEFE060606FE75
:100DF000FE001F1F0000001F1F00FEFE800080FE7F
:100E0000FE0000011B1B191F0F00F8FC06FFFF0668
:100E1000FCF80001031F1F030100FEFE800080FE9E
:100E2000FE0000010303011F1F00FEFE00FE00FE86
:100E3000FE001F1F181F181F1F000EFEFE3018F89F
:100E4000F000001F1F18181F0F00FEFE3018F00ED4
:100E5000FE001F1F18180F101F00181C06C6CEFC1E
:100E6000F800060E18181C0F0700FEFEE0FC06FE38
:100E7000FC001F1F000F181F0F0078FC868686FEDF
:100E8000FE00181E0701011F1F00F0F8CC6C66C69B
:100E90008000070F1818180F0700F8F8989898F0B6
:100EA00060001F1F1919190F0600F8F818181818F4
:100EB00000001F1F000000000000E0F3BB98BBF320
:100EC000E000070F1D19191901001878C0F8C07843
:100ED00018001C1F011F011F1C0060701898B8F03B
:100EE0006000060E18191D0F0600F8F800C0F0F893
:100EF000F8001F1F0F03001F1F00F8F903C6F3F9C6
:100F0000F8001F1F0F03001F1F00F8F880C0F03803
:100F100018001F1F01070E1C180000E0F03818F819
:100F2000F800181F0F00001F1F00F8F0E0C0E0F0ED
:100F3000F8001F1F0003001F1F00F8F8808080F8D2
:100F4000F8001F1F0101011F1F00F8F8181818F8FA
:100F5000F8001F1F0000001F1F00001818F8F818E5
:100F600018000000001F1F000000F8F8000080F8C3
:100F7000F80001030303011F1F00F8F800E000F868
:100F8000F8001F1F181F181F1F0038F8F880C0C076
:100F90008000001F1F19181F0F00F8F880C080780C
:100FA000F8001F1F19180F101F00F8F880C0C0C0EC
:100FB00080001F1F1918181F0F0060701898B8F0D4
:100FC000E000060E18191D0F0700F8F8C0F018F819
:100FD000F0001F1F010F181F0F00E0F0381818F85D
:100FE000F800111B1F06031F1F0011241FBECFEFA7
:100FF000D8E0DEBFCDBF21E0A0E0B1E001C01D928E
:10100000A53CB207E1F70E94FB360C94253F0C94F7
:1010100000005D98559A80FD599A80FF5998519A21
:10102000539A5A9867FD5B9A67FF5B985A9A5A9849
:1010300066FD5B9A66FF5B985A9A5A9865FD5B9AC3
:1010400065FF5B985A9A5A9864FD5B9A64FF5B98B7
:101050005A9A5A9863FD5B9A63FF5B985A9A5A981A
:1010600062FD5B9A62FF5B985A9A5A9861FD5B9A9F
:1010700061FF5B985A9A5A9860FD5B9A60FF5B9893
:101080005A9A5D9A5A985B980895609342018093AA
:10109000070186958093A801660F660F660F60931F
:1010A0001201089580E24ED460E082E0EECF089510
:1010B00080E248D460E084E0E8CF089580E242D442
:1010C00060E086E0E2CF08958091420180930401C0
:1010D0008091A80180930601089580910601609196
:1010E0000401880FD2CF0895682F80E092CF089531
:1010F0008EEAFADF85EAF8CF08958DE023D48AE0FE
:1011000021C40895FADF1092A80160E080E0BDCF0D
:101110000895CF93DF93C0E080E1E6DF80E0E4DF75
:101120008C2F806BE1DFD4E860E081E072DFD1508A
:10113000D9F7CF5FC83081F7E5DFDF91CF91089510
:1011400058985A985B985D98509A529A539A559A23
:101150002AD45D9A559A5998519A84E12CD4589A78
:1011600084E129D48EEAC0DF82EEBEDF82EABCDFF2
:1011700080EABADF80ECB8DF85EDB6DF80E8B4DF67
:101180008DE8B2DF84E1B0DF81E8AEDF8FE093E08D
:101190000E94F73EA9DF80E4A7DF84EAA5DF86EAA4
:1011A000A3DFB7DF8FEAA0DF60E080E06ECF0895B5
:1011B0000895582F28E030E090E841E080E0652F66
:1011C000642309F0892B440F969521503109B9F712
:1011D0000895A0E0B0E0EFEEF8E00C94653EEC017D
:1011E000302FC02ED12CC601860F911D813891055C
:1011F0000CF06DC0F12CE40EF11C81E4E816F10452
:101200000CF065C0742E769476947694E1E0EE1A34
:10121000F10883E0F594E7948A95E1F7F22FF270F4
:101220004F2E21FF0DC0C7019927871991098C9D69
:10123000A0018D9D500D9C9D500D1124C40FD51FF4
:101240001E2D183008F017E000E8031B061B802F46
:1012500082958F708061382E87E0682E67180F7036
:101260002170522E171568F1862D806B3DDF832D7E
:101270003BDF802F39DF5E01AC0CBD1CC5014E0188
:10128000C817D907A9F09C012150310979015110E3
:1012900002C0F90101C0F4018491411001C089DF4D
:1012A000682F81E0B6DEC701FFEF8F1A9F0AE8CFF3
:1012B000442019F05E01AC18BD0873946A94E501EE
:1012C000D1CF9091070187E0891B806B0DDFCDB7EF
:1012D000DEB7E1E10C94813EEF920F93482F282F67
:1012E0002F7080E6289F90011124C90186539D4FDD
:1012F000242F207344FF02C038E001C038E430934B
:101300001301203218F01092030108C020E220934C
:101310000301209113012D5E2093130120E2E22EA0
:1013200008E120E0409103016091130152DF0F9129
:10133000EF900895EF920F93262FFC016491319660
:101340004491319604913196E49030910301430F1A
:1013500030911301630F04963CDF0F91EF900895D5
:1013600060E0E8CF0895EF920F93CF93C82F80915C
:1013700042018F5F8093420140910701440F440F67
:10138000440F20E1C29FC001112420E1E22E08E0B9
:1013900020E06091120186599A4F1BDF8091120163
:1013A000885F809312018C2F90E0FC013197EA3026
:1013B000F105E0F4EC5CFF4F0C94B43D8EE305C006
:1013C0008CE7C0D28CE313C08CE7BCD28CE70FC093
:1013D00082E50DC08DE20BC085E709C08FE4B2D273
:1013E00088E6B0D28DE603C08CE401C08C2FAAD26F
:1013F000CF910F91EF9008958F5CB5CF089580E263
:10140000B2CF0895CF93C82F1C161CF4F8DFC1503B
:10141000FBCFCF9108959091420180E1891BF2CFDB
:101420000895CF93C82FF7DF80E28CD28091A80176
:101430008F5F8093A801843038F083E08093A80107
:1014400081E08093450102C0109245018091A8017E
:101450006C2F880F1ADECF910895E3DF7EC30895C5
:1014600051DED9DF4FCE08951DDED5DF1BCE0895A6
:101470008DE379CF0895CF93DF93EC018991882391
:1014800011F071DFFBCFDF91CF910895CF93DF9300
:10149000EC01FE018491982F9F7719F064DF21966B
:1014A000F8CFDF91CF910895CF93DF93EC01CE0178
:1014B0000E94F73E982F9F7719F055DF2196F7CFBE
:1014C000DF91CF910895EF920F93FC010491319633
:1014D000E49002967EDE0F91EF9008950F9387E5DA
:1014E00091E0E2DF40918C014D3F64F460917A011C
:1014F00070917B0180917C0190917D0103E026E455
:10150000E8D002C08FE32FDF0F91089597FF09C045
:101510008F939F938DE227DF9F918F919095819577
:101520009F4F68E271E04AE050E00E94C43EA3CFC2
:101530000895ECDF01C0EADF62CF0895EF92FF92D9
:101540000F931F93182F062FF42E89E391E0ACDF41
:10155000EE24E0914301F09144018685E81611F4F0
:10156000812F09C08485E81611F4802F04C0858579
:10157000E81611F48F2DF7DEE3948E2D833049F7B2
:101580001F910F91FF90EF900895EF92FF920F93AC
:101590001F93182F062FF42E80E05FDF8FE391E07A
:1015A00083DFEE248E2D28DF63DFE0914301F0918D
:1015B00044018685E81611F4812F09C08485E81658
:1015C00011F4802F04C08585E81611F48F2DCBDE31
:1015D00016DFE3948E2D833029F71F910F91FF9032
:1015E000EF900895682F80E092E0662309F491E07F
:1015F000623009F481E008950F93082FE9EAF1E0E1
:10160000880F880FE80FF11D6081718182819381BD
:10161000643671058105910570F42091050127FD5F
:101620000AC0802FDFDF692F0E94F9226EEF23E0CE
:1016300044E039D104C04FEF04E024E04AD0DFDEBB
:101640000F910895863058F4ECE9F1E0E80FF11DB0
:10165000E80FF11D8081918163E030D1D0CE0895F3
:101660001F93182F80917601882319F0C8DE80E03F
:101670007ADE18DD80E391E017DF812F82958F708D
:10168000E1DF812F8F70DEDF1F910895CF93DF930D
:101690008091140182958F70C0E9D1E0C80FD11DEF
:1016A0008881AADE8EEF90E0FFDE8E81A5DE8EEFD0
:1016B00090E0FADEC0E9D1E0809114018370C80F98
:1016C000D11D8E8199DE80911401CADFDF91CF9107
:1016D0000895AEE0B0E0EFE6FBE00C94643E142F1A
:1016E000622E702E6B017C010F7080E389838A83E8
:1016F0008B838C838D838E83F7FE0BC08DE233DE6C
:10170000F094E094D094C094C11CD11CE11CF11C55
:1017100004C075FE02C08BE226DE033071F0043097
:1017200099F00530C1F00630F1F0073021F174E690
:10173000872E912CA12CB12C25C068EE862E63E05B
:10174000962EA12CB12C1EC050E1852E57E2952E6D
:10175000A12CB12C17C040EA842E46E8942EAA246E
:10176000A394B12C0FC030E4832E32E4932E3FE0DB
:10177000A32EB12C07C020E8822E26E9922E28E95C
:10178000A22EB12C9AE0292E312C412C512CC814B8
:10179000D904EA04FB0470F0C701B6016B5F7F4F08
:1017A0008F4F9F4FA20191010E94763D69017A01FE
:1017B0001F5FEDCF81E1810F9BEA899F812D11246D
:1017C000A82EA69486E0811B899F112D11241695C1
:1017D000912F990F190F811B182F4E0187E0880E4A
:1017E000911C2AE0A401C701B6010E94A33EF401A6
:1017F00001900020E9F731977F01E818F9089E2C45
:101800006701DD24812F90E004968C159D0514F46A
:10181000A3941D5F8A2D90E0895D9F4F0E94F73E43
:10182000A82E74FE04C0901610F40E1901C000E03A
:101830008E2C811A800E181424F08EE294DD012F74
:101840000E19111102C088EF882E912C10E0C00EE5
:10185000D11EE82C082C000CFF08892D90E08C1577
:101860009D05ACF4FC013696E01BF10B81E090E0A5
:101870008C0F9D1FE80FF91F808175DD9394892DD2
:1018800090E08E159F0549F78EE26DDDE6CFAA2028
:1018900011F08A2D68DD662011F0862D64DD2E960C
:1018A000E2E10C94803E0F93362FBC0180E090E083
:1018B000022F242F432F0DDF0F9108950F93062F32
:1018C000BC0180E090E026E54DEF03DF0F91089525
:1018D0000F93042F28E440E0FCDE8AE744DD0F91FB
:1018E0000895E82FF0E0EE0FFF1FE458FF4FA59199
:1018F000B49190910301490F90911301690F20E079
:10190000CD01E1CD0895CF93DF93C82FD62FE0917D
:101910004301F091440148E16EE18685E2DFE09108
:101920004301F09144014D2F6C2F8485DADFE09163
:101930004301F091440140E06EE18585D2DFDF9103
:10194000CF9108958F932F932AE080953B9A089426
:1019500010F4439802C0439A000020D027D0869507
:101960002A95B1F72F918F91089503D002D001D01D
:1019700000D000D003D002D001D000D000D003D0DE
:1019800002D001D000D000D0A89503D002D001D061
:1019900000D000D003D002D001D000D000D003D0BE
:1019A00002D001D000D000D003D002D001D000D0AE
:1019B00000D00000089590E0893C28F0885C48EC55
:1019C000849FC0011124009709F40895209181009B
:1019D000277019F0D9DF0197F6CF8130910519F002
:1019E00002973CE803C03EE380E090E02091B20023
:1019F000230F2093B30042E04093700027E023BF01
:101A0000889526E023BF10927000A895DCCF8F93B5
:101A100084E0D1DF07C08F9382E0CDDF03C08F93D6
:101A200081E0C9DF8F911F93182F106410937C0001
:101A3000E12FE07880913301E81759F0E09333010A
:101A4000ADDF8FE980937A0083E083BF889582E0E1
:101A500083BF20E030E0A901E0E01FC08FE9809360
:101A60007A0083E083BF889582E083BF609178002D
:101A700070917900260F371F411D511DE43061F42C
:101A800080913501803041F084E02030380720F427
:101A900017FD02C01068CACFEF5F80913201E817CE
:101AA000E8F2609136017091370117FF04C0609130
:101AB00034017091350180E090E00E94343D2FEFB9
:101AC00033E040E050E00E94763DB901CA01209128
:101AD000320130E040E050E00E94763DC9011F91A4
:101AE0000895EF92FF920F931F93CF93DF93F82EF9
:101AF000E92EC5E64F9B05C0CF2DDE2D15E500E094
:101B000019C081E058DFC150A9F7F6CF82E053DF5A
:101B1000110F4F9B1F5F1F731F3379F4011103C017
:101B2000CF2DDE2D04E00F5F063988F4A8951C1632
:101B30001D0644F0D7FFEACF0AC01111F7CF0023EA
:101B4000A9F305C02A97B1F7CFEFDFEFF3CF802FCE
:101B5000CDB7DEB7E6E00C948C3ECF93B5DAC82F54
:101B6000809145018823D1F0813051F4C33041F494
:101B70006FE086E08ADA8BE2F6DB6FE086E085DAFA
:101B800080E49FE1AEDFC33041F4809145018130B4
:101B900021F460E086E079DA3EDC9FDACF910895A7
:101BA00088E393E00E94F73E382F89E393E00E9498
:101BB000F73E20913A01230F30913B01381F2093CB
:101BC0001D0130931E0183E0283E380720F0C90133
:101BD000885E934002C080E090E062E370E00E9483
:101BE0004F3D683008F067E0EAE5F2E0E60FF11DEE
:101BF000E60FF11D459155912591359162E3681BE2
:101C0000421B530B649FC001659F900D11244996A0
:101C100062E370E00E944F3D620F731F7093790181
:101C2000609378018AE393E00E94F73E992787FD4D
:101C3000909560913A0170913B01860F971F9093A8
:101C40003501809334019093750180937401089558
:101C5000CF93DF9324E130E0B9010E944F3DDC01D6
:101C6000ECE6F2E0E60FF71FE60FF71FC591D591FE
:101C7000459155914C1B4A9FC0011124B9010E9406
:101C80004F3D6C0F7D1FCB01DF91CF9108951895CB
:101C900018951092210110921F0110926F0110925D
:101CA0005501109220011092410110927601EAE54F
:101CB000F1E0108211821282EAE7F1E0108A82E0FC
:101CC000818B109205011786168614821582168262
:101CD000178281EF838B08951F93CF93DF93162F85
:101CE00098E097B998B9E82FF0E0ED5BFE4F94913A
:101CF00095B9262F281BE20FF11D27FDFA95E491D7
:101D0000E92BE4B990DEEC01812F8DDEAC0120914E
:101D100036013091370136952795C9010397BE01E9
:101D2000625E7F4F8617970778F4255E3F4FC21794
:101D3000D30750F4BA01625E7F4F8617970720F4ED
:101D400081E04217530708F080E014B8DF91CF918B
:101D50001F910895CF9361E080E0BEDFC82F62E05D
:101D600080E0BADFC80F62E081E0B6DF8C0FCF9170
:101D700008954F925F926F927F928F929F92AF924F
:101D8000BF92EF92FF920F931F93CF93DF93CDB744
:101D9000DEB72E970FB6F894DEBF0FBECDBF182F5B
:101DA00010922101807FA9F4D5DF833009F03FC272
:101DB000B0D983E492E078DB75D98FE3D4DA80ED93
:101DC00097E08FDE8B30D0F4A4D98CEC90E06CDB04
:101DD0002EC246E9F42E00E09CD988EA91E064DB4B
:101DE000B9DF833021F40F5F043010F007C000E04A
:101DF00088E2E1DDFA94F110EFCF62C053D98CEBA9
:101E000090E052DB60E082E193E00E94043F60E0FA
:101E100083E193E00E94043F60E081E193E00E944F
:101E2000043F60E082E00E94F9224C019A8389839A
:101E300061E082E00E94F9225C019C838B8360E078
:101E400081E00E94F9227C019E838D8323E040E2A1
:101E50006EEFC40128DD23E040E26EEFC50123DD13
:101E600023E044E06EEFC7011EDD2AE582169104EF
:101E700024F084E190E09A838983698182E193E090
:101E80000E94043F8AE5A816B10424F084E190E0A2
:101E90009C838B836B8183E193E00E94043F9AE5EE
:101EA000E916F10424F084E190E09E838D836D8136
:101EB00081E193E00E94043F82E0809345014DDE82
:101EC00008E748DF81116AC024D985EB90E0ECDA9D
:101ED00023E044E06FEF8091380190913901E3DC19
:101EE000E1D88EEA90E0E0DA23E044E06FEF809101
:101EF0003F0190914001D7DC82E0809345012DDEC7
:101F00001092210106D98AEA90E0CEDA60E082E000
:101F10000E948F1A4090820150908301609084014A
:101F2000709085015C864B8661E082E00E948F1A8A
:101F30008090820190908301A0908401B0908501EF
:101F40009E868D8660E081E00E948F1AE09082017B
:101F5000F0908301FE82ED8262E080E00E948F1AA1
:101F600080918201909183019C838B8362E081E068
:101F70000E948F1A80918201909183019A878987AC
:101F800061E080E00E948F1A80918201909183012C
:101F90009A8389831F70113059F40EC065DA83E388
:101FA00092E082DA84E607DD015009F08ACF8CCF17
:101FB00020913E01223021F4029698878F8304C03D
:101FC00098878F8310923E01C201B5DAC401B3DA5B
:101FD000B701FF0C880B990B03E026E444EF79DB93
:101FE000FE0131967F014E01FFE08F0E911CF7013B
:101FF000819191910A97853B9105D0F48E169F06A9
:10200000B9F731E3A32E33E0B32EF7016081F2E09C
:10201000EF0EF11C6E5EC5010E94043F2FEFA21A65
:10202000B20AE814F90489F73DD88CE791E03CDA6C
:1020300082E08093450191DD0E94D12F113029F07B
:1020400080913E01823009F0DDC090E4F92E10E06D
:102050002AE0822E912CA12CB12C1BDE5AD880E0D4
:10206000CBD982E291E020DA82E0C6D98FE190E01C
:102070001BDA1092210160E082E00E948F1A009129
:102080008C0120917A0130917B0140917C0150912B
:102090007D01073F44F40F5FCA01B901A501940116
:1020A0000E94763DF6CF00938C0120937A01309305
:1020B0007B0140937C0150937D01073F09F08DC067
:1020C000DA01C90180569109A109B1098039954504
:1020D000A105B10508F081C060918E0170918F015A
:1020E000CB018B569F4F8B32914008F076C01F5F1B
:1020F000153008F473C088E393E00E94123F09D8BA
:1021000088E190E0D1D980918E0190918F01FED924
:1021100047DD88E088B989E087B980E284B982E048
:1021200082DC853D9340DCF714B8109235011092A3
:10213000340182E078DC8C0180917401909175010A
:10214000909335018093340182E06DDC7C01EE0CCC
:10215000FF1C109235011092340182E064DC809003
:102160007401909075019092350180923401800F36
:10217000911F8C010E191F090E94520881E190E005
:1021800093D98AE393E00E94F73EB82E9401D801D8
:102190000E94C93D9701FF0C440B550B0E94983DCE
:1021A00013E01B0D120F612F8AE393E00E94043F9E
:1021B000812F110F990BAAD9F3DC82E0809345019E
:1021C000CCDC10923E0181E393E00E94F73E682F41
:1021D00084E393E00E94043F15C010E00E9452087F
:1021E00060917A0170917B0180917C0190917D01D9
:1021F00004E026E440918C016CDA88E2DCDBFA949E
:10220000F1102BCF89E1809332010E94DD320E94D0
:1022100089088CEC90E048D90E9452088AE292E04A
:1022200043D91092210182E08093450196DC2E96DD
:102230000FB6F894DEBF0FBECDBFDF91CF911F91D7
:102240000F91FF90EF90BF90AF909F908F907F90F5
:102250006F905F904F90089580913E0181110DC065
:1022600081E393E00E94F73E61E0680F84E393E02E
:102270000E94043F81E080933E010895EF92FF9217
:102280000F931F93CF93DF93D62FE82FF0E0EA5BF5
:10229000FE4FE491E8B9E860E7B915B8E62FF0E041
:1022A000ED5BFE4FE491E4B988E8E82E83E1F82E77
:1022B000CE2FCC0F8D2FABDB8C01C4B98E159F05B3
:1022C00010F47801F7CF892BE1F00E945E0882E0DC
:1022D00091E0EAD8D80120EA36E841E050E00E94D7
:1022E000CF3D28E937EB40E050E00E94763DDA012F
:1022F000C90122E041E467EFD6DA88E087B988B9FE
:1023000014B8CDB7DEB7E6E00C948C3E0F931F9364
:10231000CF93DF9385E087DB85E081DB8C01EC01E7
:10232000CC0FDD1FCC0FDD1F2A9610923C01C43864
:1023300083E0D80740F480E791E0B6D86CD881E01C
:1023400080933C011FC08FE791E0AED862E0CE01E0
:10235000B5DA55D8093183E0180780F4083E1240F9
:1023600050F48EE992E0A0D856D88DEC24DB5E982C
:102370008AEC21DB07C085EA92E002C08CE791E09D
:1023800093D849D8DF91CF911F910F910895A5E17E
:10239000B0E0EDECF1E10C94643E8C8B562E742E83
:1023A000A895E62FF0E0ED5BFE4FE4903396249184
:1023B0002E87E42FF0E0ED5BFE4F34913D8BE82F4C
:1023C000F0E0ED5BFE4FF490339644914983486012
:1023D0004D872860422E35B9D32EDE28D4B847B9B0
:1023E000598158B9862F1BDB9C878B87E4B8852DD4
:1023F00016DB9C838B8314B8C7DA15B8D4B8852D47
:102400000EDBEB85FC858E179F0728F5805E9E4FBF
:10241000E817F90708F4BFC447B888E088B9F5B8E9
:102420008D898F2984B900913601109137018C89EB
:10243000F6DA9801281B390B3C872B87F4B80091FA
:102440003601109137018C89EADAA801481B590B33
:102450005C834B8308C02B853C85205E3E4F8217F2
:10246000930708F498C42091550130916F01822F91
:1024700090E0830F911D02974CF0213009F08BC43E
:102480009091520180916C01981385C46D88660CFF
:102490008B859C858437910508F4A7C0880F991F08
:1024A0004496EB81FC81E817F90708F09EC0FD8592
:1024B000F7B9298128B98E2D862984B9852DABDA03
:1024C0006C01872DB0DA8C0165B8852DA4DA9601F0
:1024D000295A3D4F6F2828173907D0F588E088B969
:1024E00047B864B865B8872D96DA88349F4028F0DD
:1024F00085E08093210182E204C085E08093210180
:1025000084E280932001D0924B01C0924A010C15C5
:102510001D0540F4C601801B910B909351018093DF
:10252000500104C010925101109250019601A0E197
:10253000B7E20E94BA3D20911B0130911C0140E09E
:1025400050E00E94763D30934D0120934C011AC417
:1025500088E088B947B864B865B88C895CDA8C01C2
:10256000872D61DA6C01F5B88C8955DA895A9D4F4F
:102570008017910708F00FC4498148B95D8557B9A4
:10258000872D49DA813D934028F485E0809321012D
:1025900082E304C085E08093210184E380932001DD
:1025A0000C151D0538F4C01AD10AD0926B01C092E7
:1025B0006A0104C010926B0110926A0120913601E9
:1025C00030913701201B310BA0E1B7E20E94BA3DE8
:1025D000209122013091230140E050E00E94763D9D
:1025E0003093670120936601AEC188E088B947B88F
:1025F000F5B8CD88CF28C4B88C8911DA98878F8335
:102600000091360110913701872D0DDA9E838D835D
:102610000A9768F514B881E0CED9862D8F2984B940
:102620008C89FDD998878F830091360110913701ED
:102630009801281B390B3A872987872DF4D99E8367
:102640008D83209122013091230140E050E060E829
:1026500071EA83E09CE10E94763DA985BA850E94DB
:10266000CF3DED81FE819F0140E050E016C0980112
:102670004F815885241B350B3A8729878D819E8190
:10268000281B390BA4E6B0E00E94BA3DED81FE8123
:102690008F0120E030E0A90198010E94763D4901B8
:1026A0005A0114B815B8F981F8B92D8527B981E018
:1026B00082D94B815C81493B574008F06CC3D4B848
:1026C000852DADD98F359D4008F443C114B881E004
:1026D00072D9D4B881E06FD9FE2DF629FA8BF4B9FE
:1026E000852D9DD91C01872D9ED9998B888B8C892E
:1026F0009AD98C0128893989213D374008F4B3C023
:1027000084E0809321018DE0809320018B819C8166
:102710008215930530F4F101E81BF90BFA83E98384
:1027200002C03A822982C0901B01D0901C01E12C8A
:10273000F12C60E871EA83E09CE1A70196010E9418
:10274000763DA981BA810E94CF3DE889F9899F0130
:1027500040E050E00E94763D80916F01882369F04F
:102760008091600190916101A0916201B09163013B
:1027700082179307A407B50700F5209360013093F3
:10278000610140936201509363019101A0E1B7E2BE
:102790000E94BA3DA70196010E94763D30936701E1
:1027A00020936601D80128893989A21BB30BB09305
:1027B0006501A093640181E001C080E04091600167
:1027C0005091610160916201709163014815590552
:1027D0006A057B0538F58092600190926101A092B4
:1027E0006201B09263018F8198854D815E81841B67
:1027F000950B909365018093640129853A85A0E14A
:10280000B7E20E94BA3D209122013091230140E0BD
:1028100050E00E94763D205F384D30936701209351
:10282000660103C0882309F473C32B813C81A0E1B6
:10283000B7E20E94BA3DA70196010E94763D30930F
:102840006901209368012B853C85A0E1B7E20E94D5
:10285000BA3DA70196010E94763D30936B0120930B
:102860006A0181E055C38B819C818136910508F016
:1028700070C091ED291697E0390608F46AC085E02A
:102880008093210182E180932001C10186509F4FF6
:102890008017910720F483E1809320011AC020164D
:1028A000310698F420911B0130911C01D801A21926
:1028B000B3090E94BA3D910140E050E00E94763D8C
:1028C000309365012093640104C010926501109259
:1028D0006401EE85E770FE2E872D806480937C0076
:1028E0000BE0AA24A394B12CCC24CA94A3E0DA2E42
:1028F000A89561E08D892BD5FA89F4B986B18F212D
:10290000E9F3E4B880917A00806480937A00809142
:102910007A0086FDFCCF8091780090917900960135
:10292000281B390BA20EB31E015011F7C501880FE9
:10293000991F880F991F69E070E00E944F3D7093C6
:102940006B0160936A0180916F018F5F80936F01CB
:1029500088CFD4B83D8935B9852D61D89E838D83C4
:10296000872D61D898878F83409136015091370128
:10297000481B590B4A30510540F514B881E01BD86B
:102980008E2D862984B965B8852D49D89E838D837F
:10299000872D49D898878F8320911B0130911C0186
:1029A00040E050E060E871EA83E09CE10E94763DFF
:1029B000AD81BE810E94CF3D20913601309137011B
:1029C0004F815885241B350B09C02D813E81241B66
:1029D000350BA4E6B0E00E94BA3D9A0140E050E019
:1029E0000E94763D49015A0147B888E088B9C4B8C9
:1029F000C5B88C8914D81C01872D15D89A8789876A
:102A0000852D11D88C0150E3251651E1350608F0CB
:102A1000BFC1F5B88C8903D8998B888BF4B88C89A1
:102A20000E940F0D9B8B8A8B15B881E00E94DB0CF6
:102A3000F5B88C890E940F0DEA89FB89E034F640D5
:102A400008F059C08133914108F455C0C1018A563C
:102A50009F4F488959894817590708F04CC086E0AC
:102A600080932101809155018F5F80935501898565
:102A70009A85801B910B90934B0180934A01201AF9
:102A8000310A309251012092500114B815B85E8578
:102A900058B981E00E94DB0CF4B88C890E940F0DBC
:102AA000853F910508F043C2C4B8872D0E940F0DE1
:102AB000813D934008F43BC28C890E94130D8D3DEB
:102AC000924008F434C2F4B88C890E940F0D8D3DF9
:102AD000924008F42CC2F5B881E00E94DB0C15B8D6
:102AE0008C890E940F0D853F910508F020C287E078
:102AF000809321011CC2C4B8C5B881E00E94DB0CE0
:102B00006F2864B865B88C890E940F0D6C01009124
:102B1000360110913701081B190B872D0E94130DE8
:102B20009A8789872091360130913701A901481B86
:102B3000590B5F874E87852D0E94130D1C018E85D2
:102B40009F858E3F994008F4B4C084E080932101B2
:102B50008CE0809320012B813C812017310730F4D9
:102B6000A801421B530B5A83498302C01A8309836D
:102B700080912201909123016C01E12CF12C60E8FD
:102B800071EA83E09CE1A70196010E94763DA9814C
:102B9000BA810E94CF3DEE85FF859F0140E050E065
:102BA0000E94763D80915501882369F0809146010D
:102BB00090914701A0914801B09149018217930774
:102BC000A407B507F8F420934601309347014093DA
:102BD00048015093490189859A85821993099093F8
:102BE0004B0180934A019801A0E1B7E20E94BA3DEF
:102BF000A70196010E94763D30934D0120934C0130
:102C000081E001C080E04091460150914701609110
:102C1000480170914901481559056A057B0528F559
:102C20008092460190924701A0924801B0924901DA
:102C30008F8198852D813E81821B930B90934B0150
:102C400080934A01A0E1B7E20E94BA3D20911B01A6
:102C500030911C0140E050E00E94763D205F384DED
:102C600030934D0120934C0103C0882309F460C1C7
:102C70002B813C81A0E1B7E20E94BA3D20911B016B
:102C800030911C0140E050E00E94763D30934F01AE
:102C900020934E012B853C85A0E1B7E20E94BA3D0E
:102CA000A70196010E94763D309351012093500177
:102CB0003EC14B815C814136510508F069C0093441
:102CC0005DE0150708F464C085E08093210182E08F
:102CD00080932001C10186509F4F8C159D0520F4E3
:102CE00083E0809320011AC02C143D0498F42091B5
:102CF000220130912301D601A219B3090E94BA3DE5
:102D0000980140E050E00E94763D30934B012093C3
:102D10004A0104C010924B0110924A0189818770C8
:102D2000D82E872D806480937C007BE0E72E01E025
:102D300010E0A89560E08D890AD364B865B886B1C3
:102D40008D21E9F7F4B880917A00806480937A004D
:102D500080917A0086FDFCCF809178009091790077
:102D6000080F191FEA94E110E4CFC801880F991FDA
:102D7000880F991F69E070E00E944F3D70935101E8
:102D800060935001809155018F5F80935501CFC0B2
:102D900088E087B988B914B815B888E087B9EB819D
:102DA000FC81E73CF14008F4A7C088B918EC0D8518
:102DB000042907B981E00E94DB0C47B88C890E9486
:102DC000130D429710F01150A1F76E2C660C7F2C5A
:102DD000770C74B875B861E08D89B9D28C890E947E
:102DE0000F0D8C0164B815B83D8537B9498148B9D4
:102DF00060E08D89ACD2A0903601B0903701852D6E
:102E00000E940F0D6C01E4B88C890E940F0D4C01DB
:102E1000852D0E94130D881A990A88E088B947B851
:102E2000F4B8F5B861E08D8992D28C890E940F0DBB
:102E30007C01852D0E94130DE81AF90A8E149F0457
:102E400038F474B875B88C890E940F0D470117C00B
:102E500085010C191D0964B815B85D8557B98981BC
:102E600088B960E08D8973D2E0903601F090370127
:102E7000852D0E940F0DF701E81BF90BCF0194017E
:102E80002759310929383141B8F588159905A0F538
:102E9000C80153E0969587955A95E1F7893C9105CD
:102EA00010F088EC90E0800F911F8815990520F5AF
:102EB000C40144E0969587954A95E1F780179107FC
:102EC000D8F480912101833018F483E080932101AC
:102ED00020911F01822F90E0FC01E057FE4F3C89BA
:102EE00030835682880F991FFC01E456FE4F918271
:102EF00080822F5F20931F01652D8C8928D088E068
:102F000087B988B914B815B86596E2E10C94803E8B
:102F100090916F019F5F90936F01882381F370926E
:102F20006C0150926D014C8940936E01E8CF81E0B5
:102F3000909155019F5F90935501882301F3709202
:102F400052015C895093530150925401D8CFA0E0B4
:102F5000B0E0EDEAF7E10C94663EA895E62FF0E0CC
:102F6000ED5BFE4F549033969491E82FF0E0ED5BCB
:102F7000FE4FC4903396D49040916F01209155013B
:102F800030E0240F311D232B09F0DCC1D62FC82FD0
:102F9000A8952091250130912601220F331F220F81
:102FA000331F309337012093360120917401309103
:102FB0007501220F331F220F331F309335012093E9
:102FC00034018EEB8093320188E088B9E92FE86004
:102FD000E7B9C4B8C5B808E1B02EE12CF12C8D2FAB
:102FE0000E940F0D782E692E8C2F0E94130D8C01DC
:102FF0008E199F0997FF03C09195819591090397B9
:1030000034F0A895BA947801B110E9CF30C0FC2C07
:10301000FF0C15B8F4B88C2F0E940F0D8135910567
:1030200030F5F5B88C2F0E940F0D7C018D2D886036
:1030300087B9D8B815B854B8A8E14A2EC12CD12CFC
:103040008C2F0E940F0D982E892E8D2F0E94130D0C
:103050005C018C199D0997FF03C091958195910999
:103060000397CCF0A8954A9465014110E9CF80916F
:10307000250190912601909337018093360180912C
:10308000740190917501909335018093340189E129
:103090008093320157C1550C54B88D2F0E940F0DEB
:1030A0006C01003C84E4180730F425E8E21621E0C6
:1030B000F206E8F605C080EBE8168DE4F806B8F6EF
:1030C00024EAA21622E0B20608F06DC088E9C8160C
:1030D000D10468F200913601109137019701A8E9F7
:1030E000B7EB0E94BA3D98012E193F0940E050E02D
:1030F0000E94763D49015A0198012C193D09A8E921
:10310000B7EB0E94BA3D860120E030E0A9019801AA
:103110000E94763D88E7E8168FE0F80680F4D50136
:10312000C401F2E0880F991FAA1FBB1FFA95D1F7BF
:10313000BC01CD01620F731F841F951F14C088E767
:10314000C8168FE0D806B0F4DA01C901E2E0880FB2
:10315000991FAA1FBB1FEA95D1F7BC01CD01680DCD
:10316000791D8A1D9B1D25E030E040E050E00E9463
:10317000763D0CC0D501C401820F931FA41FB51F5B
:103180009C01AD015695479537952795A4E6B0E08B
:103190000E94CF3D6B017C012CEAC20E2DE0D21EB5
:1031A000E11CF11C76C0872D962D0817190708F42D
:1031B000C801E92CF82CEA14FB0408F4750108177F
:1031C000190708F48C012091220130912301D801C4
:1031D000A81BB90B0E94BA3D2091360130913701EE
:1031E000201B310B40E050E00E94763D29013A015E
:1031F000EA14FB0408F4570120911B0130911C01D3
:10320000D701AA19BB090E94BA3D6501E12CF12C36
:10321000A70196010E94763D08378FE0180780F4D9
:10322000D301C20162E0880F991FAA1FBB1F6A95D4
:10323000D1F7BC01CD01620F731F841F951F14C00D
:1032400088E7A8168FE0B806C0F4DA01C90132E0B9
:10325000880F991FAA1FBB1F3A95D1F7BC01CD015A
:10326000640D751D861D971D25E030E040E050E09F
:103270000E94763D69017A010CC0D301C201820F20
:10328000931FA41FB51F6C017D01F694E794D7949A
:10329000C79410912101143008F0E9CEC1500C2FD1
:1032A0000D0F202F30E0E901C65ADE4F8881220F32
:1032B000331F220F331FF901E755FE4F8823D9F141
:1032C00080809180A280B380A701960128193909D6
:1032D0004A095B0957FF07C05095409530952195E5
:1032E0003F4F4F4F5F4FAAE0B0E00E94CF3D24E632
:1032F000820E911CA11CB11CA50194012C0D3D1D39
:103300004E1D5F1D0E94763D232B242B252B09F09B
:10331000AECE133019F081E08093210182E08883E2
:1033200080917601E82FF0E0E35AFE4F00838F5F33
:10333000809376019CCEC082D182E282F38281E0CA
:10334000888395CECDB7DEB7E0E10C94823ECF9373
:10335000C82FC09595B160FF02C0982B01C09C2377
:1033600095B994B1892B84B982E00E94DB0C84B1B9
:103370008C2384B985B1C823C5B9CF910895A0E045
:10338000B0E0E5ECF9E10C946C3E1AE008E08FE364
:10339000C82E99E0D92E07B908B915B8C4B880E08D
:1033A0000E940F0D7C0181E00E94130DEC0182E070
:1033B0000E94130D9C0180912101893081F488E0E5
:1033C00087B914B8F0920901E0920801D0930B017B
:1033D000C0930A0130930D0120930C015BC084E07F
:1033E000E816F10440F4C430D10560F4243031050E
:1033F00030F399E00BC088EEE81683E0F80610F091
:1034000098E001C099E0C83ED34008F49260283E9D
:10341000334008F4946097B9C0E0D0E0A89580E00C
:103420000E94070D5C0181E00E94130D7C0182E087
:103430000E94130D24E1A21625E0B20608F4389A82
:1034400024E1E21625E0F20608F4399A843125E0F9
:10345000920708F43A9A26E0A216B10430F426E066
:10346000E216F10410F4069738F02196C43F81E08B
:10347000D807A1F6D0922101E12CF12CEC16FD0623
:1034800031F00E94C90C2FEFE21AF20AF7CF115067
:1034900009F081CFCDB7DEB7EAE00C94883ECF9239
:1034A000DF92EF92FF92CF9320917A0130917B01CE
:1034B00040917C0150917D01C0918C018AE0C82E21
:1034C000D12CE12CF12C8C2FCF5F213A96E83907D3
:1034D00091E04907510538F0CA01B901A7019601E9
:1034E0000E94763DF0CF80938C01A0913601B0917F
:1034F00037010E94CF3D28E833E140E050E00E94D0
:10350000763D20937A0130937B0140937C01509368
:103510007D01CF91FF90EF90DF90CF900895A0E0D4
:10352000B0E0E5E9FAE10C946A3E982F990F980F04
:103530002FEF260F920F90935701E82FF0E0ED5BED
:10354000FE4F1491262F30E0F901ED5BFE4FF49011
:10355000F901EA5BFE4FD49190912101913009F479
:10356000A1C220911F01A0E9B1E0FD0190E09217F6
:1035700091F0368163130BC03081831308C01C9611
:103580004D915C911D974C3D554008F48BC29F5F57
:1035900031961296ECCF062FC82FD8601092870173
:1035A0001092860181EF80938C0110927A01109223
:1035B0007B0110927C0110927D01E1DE88E088B9E8
:1035C000D7B9F4B8F5B88C2F0E94130D5C01802F89
:1035D0000E94130DA81AB90A14B81092590110923A
:1035E00058018091580190915901843F914008F011
:1035F000AAC015B914B90E94C30C14B815B80E941A
:10360000CA0CA8958C2F0E94130D7C01EA18FB08A8
:1036100080915801909159018E37910528F08BE4E3
:10362000E816F1040CF48FC0809158019091590173
:103630002DE2E21621E0F20634F40196909359014E
:1036400080935801CECF892B09F0A4C185E1E816FB
:1036500085E0F8060CF49EC192DE15B88FE087B9BC
:1036600088E088B9F12EFF0CF4B880E480937B00E9
:1036700084E580BF8C2F806480937C0087E18093F9
:103680007A000E94CD0C10925901109258011092AC
:103690008000109285001092840087E286BB81E250
:1036A00080936F0081E080937701F5B890912101BC
:1036B00080938100953009F04CC081E090E00C2EA1
:1036C00001C0880F0A94EAF780958F7087B9F89443
:1036D00083B7817F83BF80917701882389F083B787
:1036E000816083BF7894889583B78E7F83BFF89479
:1036F000A895809158019091590180389C4059F7C4
:10370000789410928100E0908600F09087001092EB
:103710006F0087E980937A0014B815B88C2F0E9447
:10372000130D20913A0130913B01821B930B0C96B3
:1037300090938F0180938E0180915801909159014F
:103740008034964040F088E087B988B914B815B83D
:10375000A9C1D7B9BCCF80915801909159019093DC
:10376000850180938401F0928301E092820184EFCD
:1037700080938C0180915801909159018234910578
:10378000C8F06091820170918301809184019091D1
:10379000850124E630E040E050E00E94763D209331
:1037A000820130938301409384015093850186EF19
:1037B00080938C01A0917801B091790120918201D0
:1037C0003091830140918401509185010E94CF3D49
:1037D00020E436E040E050E00E94763D20938201F4
:1037E00030938301409384015093850120937A01A3
:1037F00030937B0140937C0150937D0150DE80919A
:103800008C01843F09F071C0C0907A01D0907B0197
:10381000E0907C01F0907D0180EAC8168FE0D80628
:10382000E104F104C0F4A70196012C543F4F4F4F1F
:103830005F4F60EA7FE080E090E00E94763DC20E3C
:10384000D31EE41EF51EC0927A01D0927B01E09255
:103850007C01F0927D01C0907A01D0907B01E090D4
:103860007C01F0907D01C114D10421E0E206F10455
:1038700028F4D092BA01C092B90106C081E090E06C
:103880009093BA018093B9018091570190E08F5CC9
:103890009C4F0E94F73E90E0A0E0B0E0B701A60187
:1038A0008C159D05AE05BF0568F4481B590B6A0BC6
:1038B0007B0B40937A0150937B0160937C01709362
:1038C0007D0113C04C5E5F4F6F4F7F4F4817590704
:1038D0006A077B0710F40E942C1110927A01109253
:1038E0007B0110927C0110927D0114B980917A01C4
:1038F00090917B01A0917C01B0917D014997A10538
:10390000B10508F420CFC12CD12C80911F01882350
:1039100029F080912101853009F015CF88E080934E
:10392000210180918C0190918D019817C4F0891329
:103930000ACF80907A0190907B01A0907C01B0909A
:103940007D0140917E0150917F01609180017091D5
:103950008101481559056A057B0508F0F4CE4091B0
:103960007A0150917B0160917C0170917D014093BF
:103970007E0150937F016093800170938101809359
:103980008D01D0928901C092880100938A01C09371
:103990008B01D9CEC701C12CD12C20915801309177
:1039A00059012C153D0560F00E94C40C8C2F0E941B
:1039B000130D8A199B09A8952FEFC21AD20AEDCFD1
:1039C0005701A81AB90A1A141B049CF439ECA3165F
:1039D000B1040CF0B8CE28EE33E0D5010E94C93D09
:1039E00097010F2C000C440B550B0E94763D69018A
:1039F00002C0C12CD12C809158019091590101969F
:103A0000A0E0B0E08093820190938301A0938401B1
:103A1000B0938501C7018A0D9B1D91D02091820131
:103A2000309183014091840150918501DC010E9415
:103A3000CF3D6093820170938301809384019093C2
:103A4000850160937A0170937B0180937C01909350
:103A50007D0187EF80938C0122DD80907A01909028
:103A60007B01A0907C01B0907D0184E193E00E94F5
:103A7000F73EA8EEB3E0A81BB10987FDB395A501F9
:103A800094010E94D93D24E630E040E050E00E94DD
:103A9000763D20937A0130937B0140937C015093D3
:103AA0007D0133CFCDB7DEB7ECE00C94863E1F929C
:103AB0000F920FB60F9211248F939F93B59904C064
:103AC00080917701811109C0B59B10C0809186005B
:103AD000909187008A3F910548F480915801909118
:103AE0005901019690935901809358019F918F91AC
:103AF0000F900FBE0F901F9018951F920F920FB648
:103B00000F9211248F939F9310927701B09B10C056
:103B100080918600909187008A3F910548F48091BA
:103B20005801909159010196909359018093580141
:103B30009F918F910F900FBE0F901F9018950F922D
:103B400021E08C32920710F48CE291E08C5291408B
:103B500069E170E00E944F3D99E16B3210F0982FBF
:103B60006BE2981BE5EBF2E0E60FF11DE60FF11DAD
:103B70009F93CF010E94F73E482F3196CF010E94BC
:103B8000F73E582F3196CF010E94F73E282F3196ED
:103B9000CF010E94F73E382F6F91421B530B649F59
:103BA000C001659F900D11240C9669E170E00E94A0
:103BB0004F3D620F731FCB010F900895A0E0B0E05E
:103BC000E4EEFDE10C946A3E88E893E190932601CF
:103BD0008093250190933701809336018EEB80937B
:103BE0003201C8E0C8B988E187B90E94D20CC7B9D0
:103BF00084E00E940F0DAC018B5C9840833F9140A4
:103C0000A0F481E080934101209136013091370189
:103C1000AFEBB9E00E94BA3D9A0140E050E00E944B
:103C2000763D3093260120932501809125019091C6
:103C3000260190933701809336018EE00E94130D88
:103C40008EE00E940F0D90933B0180933A010E94F9
:103C5000D00D95DB88E0F82EF8B8C9E0C7B985E14A
:103C600085B9DD24D394D4B880E00E940F0D8C0177
:103C7000DAE0D7B994E0892E84B881E00E940F0D74
:103C8000080F191F2CE0E22EE7B830E1932E94B80C
:103C900082E00E940F0D080F191F15B8C8B9C7B9E7
:103CA000D4B8C0903601D090370180E00E940F0D4B
:103CB0005C01D8B9D7B984B8C0913601D091370129
:103CC000CC0DDD1D81E00E940F0D6C01E8B8E7B856
:103CD00094B88091360190913701C80FD91FCA1945
:103CE000DB0982E00E940F0DCC19DD09C81BD90B3E
:103CF000F7B8F8B814B8209136013091370169014E
:103D0000CC0CDD1CC20ED31EC01AD10ACC1ADD0A9F
:103D1000E12CF12C9801A0E9BAE10E94BA3DA7017B
:103D200096010E94763D49015A013093400120934B
:103D30003F019E01A0E9BAE10E94BA3DA7019601A8
:103D40000E94763D30933901209338012057354E3B
:103D5000309323012093220180E7881A85EE980A88
:103D600090921C0180921B0189E180933201CDB7B2
:103D7000DEB7ECE00C94863ECF92DF92EF92FF929A
:103D80000F93CF93DF93F82ED62FC42F0E94FC09F8
:103D90008FED90E00E94540AF2D16D2F8F2D0E947A
:103DA0005731C090BD01D090BE01E090BF01F090AE
:103DB000C0018091050187FD05C0C114D104E10453
:103DC000F10421F08BED90E00E94540A8D2F0E94A7
:103DD000FC09C114D104E104F104A1F10E94FF091E
:103DE00080915D010E94FC0ACC2309F47EC0809181
:103DF00042018D3028F490E08B5C9C4F0E94540A65
:103E000080E00E942D0ACD28CE28CF2801F16091B4
:103E1000BD017091BE018091BF019091C00103E08E
:103E200028E447EF0E94690B8EEE90E00E94540A4E
:103E300086E493E00E94FF3E23E046E464EF0E94A4
:103E4000530C1FC0C111D3CF80E00E942D0A809176
:103E50005D010E94FC0A809105018E3F94F486E08A
:103E600091E00E94540A60910E0170910F018091BF
:103E700010019091110103E028E4409105010E9496
:103E8000690B8091B5019091B601A091B701B091F5
:103E9000B801892B8A2B8B2BF1F080E00E942D0A30
:103EA0006091B5017091B6018091B7019091B80110
:103EB00004E028E440E00E94690B89EE90E00E9453
:103EC000540A23E040E26FEF8091BB019091BC0166
:103ED0000E94530C07C080E00E94110A80914501A6
:103EE000811107C00E940B0A04C080E00E942D0AC5
:103EF0008ECFDF91CF910F91FF90EF90DF90CF9019
:103F00000895EF92FF920F931F93CF93DF93182F93
:103F10000E94820880918A010E94FC0982E291E05D
:103F20000E94540A16D560918A0180918B0161D359
:103F3000EC019093870180938601E0908801F090D6
:103F40008901CA3F8FEFD80720F480EE90E00E94ED
:103F5000540A80918B010E94FC09112359F0909121
:103F600042018DE0891B0E94020A84E790E00E94D2
:103F7000540A02C00E940B0A0E94520860917E01FE
:103F800070917F01809180019091810104E026E48D
:103F900040918D010E94690BCA3FDF4F68F481E1B7
:103FA00091E00E94540A22E044E06EEF8091860185
:103FB000909187010E94530C0E940B0A0E9458089E
:103FC000E114F10469F08AE091E00E94540A22E0D1
:103FD00045E26FEF80918801909189010E94530C16
:103FE0000E940B0ACDB7DEB7E6E00C948C3E8F70D2
:103FF00021F40E945E080C94861108958F3021F4FC
:1040000090913C01913011F08F5F089580E0089508
:10401000CF938FE790E00E944B2BC0E00E94490EA7
:1040200060E082E00E94A71762E080E00E94A7178C
:104030000E94820880917601882329F041E062E0A5
:1040400080E09ADE12C08FE790E00E94540A8FE36E
:1040500093E00E94540A0E9452088FE30E94B30921
:1040600080E00E94110A0E940B0A8C2FC0DF88EEAC
:1040700093E00E94710D811105C08C2FBFDFC82F06
:104080008A3F60F20E948908CF9108950F931F9391
:10409000CF93DF93C0E0D8E012EF0DE00E94490E0D
:1040A00060E082E03CDAD093210180918C01843F72
:1040B000E1F480917A0190917B01A0917C01B09113
:1040C0007D0184369105A105B10578F440E060E0FA
:1040D00082E00E94162F60937A0170937B01809397
:1040E0007C0190937D0110938C0180918C01823F23
:1040F000ACF080938D0180917A0190917B01A09129
:104100007C01B0917D0180937E0190937F01A0930B
:104110008001B093810181E0F4DE1CC00E9482081E
:1041200088E790E00E94540A80914201902F981BEA
:10413000892F0E94020A84E790E00E94540A0E949C
:1041400052088FE30E94B3090E940B0A0E9458088C
:104150000E940B0A8C2F4BDF88EE93E00E94710DBA
:10416000811106C08C2F4ADFC82F8A3F08F496CFF2
:104170000E948908DF91CF911F910F910895A4E1CA
:10418000B0E0E5ECF0E20C94643E82E0809305013F
:1041900080912101813009F028C28091760181301F
:1041A00009F023C200915D0124E0029FF001112477
:1041B000E755FE4F80819181A281B381893032E53C
:1041C0009307A105B10508F010C24C0110E0802F43
:1041D000123028F40E94F20A582E492E03C00E9481
:1041E000F20A2C01E42DF0E0EA5BFE4F2490852DCD
:1041F00090E0FC01ED5BFE4FE49115B828E028B992
:1042000030EF83169104B8F410FD15C0A0901B0187
:10421000B0901C0120E9A21A2AE1B20A21E030E0A4
:10422000052C02C0220F331F0A94E2F7C9018860EF
:10423000822987B908C0E4B9822D886087B9A09027
:104240001B01B0901C01F4E13F2E852D0E940B0D47
:104250003C01842D0E94130D34E06316710410F4A8
:10426000049718F03A943110F0CF80E480937B00EB
:1042700094E590BF852D806480937C0027E1209396
:104280007A00E12CF12C109280001092850010929F
:10429000840087E286BB0E94CD0C312F3170332E13
:1042A00010FD05C081E88093810028B808C028B8B7
:1042B0000E94D60C80E286BB81E88093810086B3A1
:1042C00085FF13C098E098B91092810020E226BBC8
:1042D00020918600309187006901409184005091BF
:1042E00085002417350770F014C080FFE8CF31E057
:1042F00036BBA89597012F5F3F4F7901203A3105D2
:10430000F1F6E0CF80FF05C081E086BB9FEFE91AA0
:10431000F90A87E980937A00E4E12E2E852D0E9428
:104320000B0D3C01842D0E94130D24E062167104D4
:1043300010F4049718F02A942110F0CF40903F0118
:1043400050904001480C591C4A0C5B1C20911D01E7
:1043500030911E0180E9A8168AE1B806B0F491EE0A
:10436000C916D104E104F10438F4C60165E070E037
:104370000E944F3D645101C069E128523109261B5A
:10438000310967FD339586E009C0C20168E57BE12C
:104390000E944F3D87E0860F285D3F4F90E0A0E0F0
:1043A000B0E08C159D05AE05BF0528F4C81AD90AE2
:1043B000EA0AFB0A03C0C12CD12C7601332029F074
:1043C0008AE3C80ED11CE11CF11C90EAE916F10445
:1043D00018F0C12CD12C76018BE0C816D104E10471
:1043E000F10428F091E0C91AD108E108F1084091E0
:1043F000360150913701612C712CA8EEB3E00E9478
:10440000BA3D698B7A8B8B8B9C8B9501DA010E946C
:10441000BA3DA30192010E94763D44275527698940
:104420007A898B899C890E94763DC9010E94280E59
:10443000FC01A3019201C701B6010E94343D2B018A
:104440003C01CF01A0E0B0E074E0880F991FAA1FE3
:10445000BB1F7A95D1F7BC01CD016B5F7F4F8F4FAA
:104460009F4F2AE030E040E050E00E94763D442734
:104470005527C301B2010E94763DE12FF0E0A1E093
:10448000B0E0AC0FBD1F84E0189FA00DB11D11243A
:104490002D933D934D935C931397311016C094E187
:1044A000C916D104E104F10480F03196EE0FFF1F2C
:1044B000EE0FFF1F81E090E08C0F9D1FE80FF91FAA
:1044C00020833183428353831F5FA8951F5F14307D
:1044D00008F47DCE88E088B984E00E94DB0C91E08E
:1044E0000D811E812F81388549815A816B817C81A4
:1044F000401751076207730708F090E00D851E858D
:104500002F85388949855A856B857C8540175107E9
:104510006207730710F483E001C082E0E92FF0E046
:10452000EE0FFF1FEE0FFF1F21E030E02C0F3D1FAD
:10453000E20FF31FD90134E0839FA00DB11D1124B8
:104540000D911D912D913C9140815181628173812A
:10455000041715072607370708F0892FE1E0F0E078
:10456000EC0FFD1F94E0899FE00DF11D11244081A7
:1045700051816281738140930E0150930F016093CA
:1045800010017093110180FD08C020EF8216910484
:1045900020F48BEF8093050117C08CEF8093050109
:1045A000CB01BA016B5F7F4F8F4F9F4F2AE030E006
:1045B00040E050E00E94763D20930E0130930F01C1
:1045C000409310015093110180910E0190910F01C1
:1045D000A0911001B0911101892B8A2B8B2B11F422
:1045E0001092050188E087B914B86496E2E10C9452
:1045F000803EAEE1B0E0EFEFF2E20C94643E662E56
:10460000B82E860F898320912101283059F52091F9
:104610007E0130917F01409180015091810157FDD1
:1046200015C010918D0109C0CA01B9012AE0312DD0
:10463000412D512D0E94763D1F5F173FACF391F441
:104640002A3560E036074105510518F48FEF9FEFDA
:104650007CC1173F39F480E028178DE73807410502
:10466000410510F020E03DE72C8B3D8B27EDA22E7D
:1046700002C095EDA92EE6E4F1E0E60DF11D85916D
:1046800088608E87E6E4F1E0EB0DF11D859188608E
:104690008F87E3E4F1E0E60DF11D7590E3E4F1E0CE
:1046A000EB0DF11DC59090EC692AB92A81E0E82E46
:1046B000F12C012D112D8E831F82188619861A86E2
:1046C0001B861C861D86188E198E1B8E1A8E0E94C4
:1046D000BF1988E088B960927C000E94CE0C3F85AB
:1046E00037B975B874B80E94D50C14B815B8DD2464
:1046F000B5ED9B2EA7ED8A2E3E8537B975B874B8F7
:1047000060927C00A895A0927A0080917A0086FD44
:10471000FCCFA0927A0080917A0086FDFCCF209099
:10472000780030907900B0927C00A0927A0080915D
:104730007A0086FDFCCF80927A000E94D30C0E9402
:10474000D40CC5B8C4B80E94D40C0E94D60CA8954D
:1047500014B815B880917A0086FDFCCF20917800BE
:1047600030917900288B398B3F8537B9C5B8C4B8EB
:10477000A895B0927C00A0927A0080917A0086FD84
:10478000FCCFA0927A0080917A0086FDFCCF6091E8
:1047900078007091790060927C00A0927A008091FC
:1047A0007A0086FDFCCF80927A000E94D30C0E9492
:1047B000D40C75B874B80E94D40C0E94D60CA8957D
:1047C00014B815B880917A0086FDFCCF409178002E
:1047D0005091790014B8CB01820D931DE80EF91E9B
:1047E000011D111DEA82FB820C831D838889998932
:1047F000840F951F2E813F8168857985280F391F89
:10480000611D711D2E833F836887798722E32417FA
:10481000150650F075B874B80E94D80C14B815B8C5
:10482000888D8395888F07C0483E73E0570718F03E
:104830008A8D83958A8F888999892817190660F04F
:104840003E8537B9C5B8C4B80E94D80C14B815B89D
:10485000898D8395898F07C0883E73E0970718F08C
:104860008B8D83958B8FD3945D2D5F3F09F044CF63
:1048700040903F0150904001440C551C9201E4E0EF
:10488000240D351DEA95E1F72901570168016E8075
:104890007F8088849984209121012830C1F46C891B
:1048A0007D89812D912D68537040804090409B01FF
:1048B000AC010E94343D9B01AC016FEF71EC8EE3C3
:1048C00090E00E94763D621A730A840A950AA61443
:1048D000B704C804D90428F46A187B088C089D081A
:1048E00003C0662477244301B20180E090E0930185
:1048F000A4010E94343D9501A6010E94763D80E10D
:1049000093E07981870F911D0E94F73E90E0682E19
:10491000C90160E170E00E944F3D260F371FC901B9
:104920006816190618F4861991090FC08C5E9F4FFE
:104930008615910540F48C899D89843981E1980719
:1049400010F00E942C11812D912D6E96E2E10C94B5
:10495000803EA0E0B0E0EFEAF4E20C946A3E809181
:10496000880190918901892B09F09EC0E0918A010C
:10497000F0E0EA5BFE4FD491D860E0918B01F0E06B
:10498000ED5BFE4FC4910E94BF1988E088B915B84D
:10499000D7B9C4B980918B010E94130D8C01D091BD
:1049A0008D018CE08D0F843008F07EC080917E01F7
:1049B00090917F01A0918001B0918101D15F2AE0A7
:1049C000822E912CA12CB12CBC01CD016B5F7F4FAD
:1049D0008F4F9F4FA50194010E94763D69017A0196
:1049E000DA01C901DF5FD73079F729E8C21623E180
:1049F000D206E104F10408F057C0059708F454C04A
:104A0000C5B9C4B9C0E0D0E0CC15DD0520F40E94E2
:104A1000D40C2296F9CF14B815B8A89585E08093E8
:104A2000320180918B010E94130D0817190720F4A1
:104A3000EC01C01BD10B02C0C0E0D0E0A12CB12C16
:104A4000AC14BD0430F40E94D40C8FEFA81AB80A3D
:104A5000F7CF80918B010E94130D29E12093320141
:104A6000A8950817190718F4801B910B02C080E065
:104A700090E08C179D0788F49E01281B390B69F084
:104A8000A4EFB1E00E94BA3D9E0140E050E00E94D8
:104A9000763D30938901209388010E94BF1988E0F8
:104AA00087B988B914B815B8CDB7DEB7ECE00C9467
:104AB000863EA7E0B0E0EFE5F5E20C94643E8AE0C4
:104AC00092E0E9D520EF2B8354980E94C90C14BCC6
:104AD00016BC109215011092160110921701109237
:104AE000180131E035BB30936E001092800085E2F2
:104AF00094EF90938B0080938A00E1E0F0E0F093D4
:104B00008900E0938800109285001092840083B59C
:104B1000816083BDF6E0F6BBF0936F00789424E0EB
:104B20002093810032E339831A820E94C20CA89537
:104B30004F9902C061E06A8385B5811127C015BC19
:104B400086B5809315010E9458080E940B0A0E94A6
:104B50005E080E940B0A0E94340A86E60E94B3098E
:104B60000E94380A60911501709116018091170119
:104B70009091180147E00E94680C54988091810040
:104B8000882351F08FE30E94B30906C089818150C8
:104B900089838111CACFD3CF1092810010926F0008
:104BA0002091150130911601409117015091180183
:104BB000DA01C9010197A109B109893D9146A10511
:104BC000B10508F00BC1AAE0B0E00E94CF3DDC01C6
:104BD000CB014096A11DB11D24E0B695A7959795F0
:104BE00087952A95D1F7BC01660F771F70937101E5
:104BF0006093700154980E94C90C16BC1092150164
:104C0000109216011092170110921801F1E0F5BBF5
:104C1000F0936E00109273011092720124E02BBB8E
:104C200080916800846080936800789480916D0022
:104C3000806180936D0019820E94C20CA8954F99E3
:104C400002C031E03A8380916D0084FF05C0698124
:104C50006F5F69836A3F81F715BC80916D008F7E1D
:104C600080936D00809168008B7F8093680086B58B
:104C7000809315010E94580884E50E94B3090E94A0
:104C8000380A609115017091160180911701909179
:104C90001801E0917001F0917101FD83EC8324ED26
:104CA00030E340E050E00E94DF3DEC81FD81612C6B
:104CB000712C43015F01C12CD12CE12CF12C00E0BF
:104CC00010E00E94083E49014F835E831B012C01C6
:104CD0002C813D812038310530F007E023E745EF96
:104CE000B4018F8117C084E6A82EB12CC12CD12C21
:104CF000E12CF12C00E010E094014F815E81C201B3
:104D00000E94083EF22FE42F07E023E747EF6F2FC2
:104D1000732F8E2F952F0E94690B39813A3F21F412
:104D20008FE30E94B3095AC094014F815E81B101A3
:104D3000C2012C393E4C4340510561057105810586
:104D4000910509F008F44AC00E945E0886E60E94B8
:104D5000B3090E94380A94014F815E81B101C201FA
:104D600054012115FAEC3F07FAE94F07FBE35F070F
:104D70006105710581059105A1F098F06A01710145
:104D8000820120E030E04AE85DE568E775E483E60B
:104D900091E00E94083EF22FE42F07E028E44AEF5A
:104DA00013C0CF80DE807101820120E030E846EC44
:104DB00054EA6EE77DE883E090E00E94083EF22F1F
:104DC000E42F07E028E44CEF6F2F732F8E2F952FE1
:104DD0000E94690B8AE70E94B309549810926E00F2
:104DE00080ED97E00E94710D2A81820F29F43B81AA
:104DF00031503B83311168CE2796E2E10C94803E1E
:104E00001F920F920FB60F9211248F939F93AF931F
:104E1000BF9378948091150190911601A09117018C
:104E2000B09118019F5FAF4FBF4F809315019093D2
:104E30001601A0931701B0931801BF91AF919F91F4
:104E40008F910F900FBE0F901F9018951F920F9289
:104E50000FB60F9211248F9386E085BD8F910F902E
:104E60000FBE0F901F9018951F920F920FB60F92C2
:104E70001124A8951092810015BC0F900FBE0F90C1
:104E80001F9018951F920F920FB60F9211242F9317
:104E90003F938F939F938091720190917301892B1F
:104EA00011F481E085BD20917201309173018091F0
:104EB0007001909171012817390730F015BC80916D
:104EC0006D008F7E80936D008091720190917301CF
:104ED000019690937301809372019F918F913F91FE
:104EE0002F910F900FBE0F901F9018958C3008F0E7
:104EF0008C50811103C084E192E036C0813019F4F6
:104F00008AE092E031C0823019F481EE91E02CC049
:104F1000833019F486ED91E027C0843019F48AE8D3
:104F200090E022C0853019F48FE790E01DC08630F4
:104F300019F488E790E018C0873019F485EC91E007
:104F400013C0883019F486EB91E00EC0893019F453
:104F50008FE991E009C08A3019F488EF91E004C02C
:104F60008B3021F48DEE91E00E94540A0C940B0AD0
:104F700008950F93CF938AE890E08DD3C0E010920C
:104F8000210160E082E09CD3809121018830C1F54D
:104F90000E94520883E40E94B3090E94380A60917B
:104FA0007E0170917F01809180019091810103E0E9
:104FB00026E440918D010E94690B0E940B0A6091CA
:104FC0008A0180918B0115DB909387018093860184
:104FD0000E94580882E191E00E94540A8091860163
:104FE000909187018A3F2FEF920730F422E044E04E
:104FF0006EEF0E94530C08C08FE30E94B30904C0F7
:105000000E94340A0E9458080E940B0A8C2F0E94AA
:10501000F71F88EE93E00E94710D811107C08C2F5D
:105020000E94FE1FC82F8A3F08F4A9CFCF910F918D
:1050300008950895A4E0B0E0E0E2F8E20C94643E44
:1050400081EE91E028D380E18093800010926F0080
:1050500081E090E0909389008093880010928B000B
:1050600010928A0083E086BB1092820088E08093D1
:10507000810015B891E194B988B989E087B9229A7D
:1050800080938100312C20E0FAE02F2E31E03B8329
:10509000812C912C5401839441E14C83832D90E029
:1050A0000A966EE170E00E94633D6A83062F6217E4
:1050B00081F00E94820881EE91E00E94540A10E083
:1050C000101728F48EE20E94B3091F5FF9CF0E94E7
:1050D0000B0A5C815231B8F0C701B601A5019401F9
:1050E0000E94763D6B017C018B81622D0E94433DC5
:1050F000A92FB0E0A50194010E94CF3DC60ED71E96
:10510000E81EF91E0CC08B81622D0E94433DA92F21
:10511000B0E0A50194010E94CF3D6B017C010E948B
:1051200052088B81821109C081E09C81923108F480
:1051300080E08983811107C001C019822C8126314A
:1051400020F082E503C08CE301C08EE30E94B30926
:105150000E94FF094C81C701B6010E94680CC7017B
:10516000B6017C5D8B409F4FA7019601220F331F34
:10517000441F551F0E94763DCA014F3F510539F02B
:1051800030F08DE08093810080E094E01FC04034D7
:10519000510530F08CE08093810080E091E016C0F2
:1051A0004830510530F08BE08093810080E490E03E
:1051B0000DC0892B31F09AE09093810088E090E057
:1051C00005C089E08093810081E090E02C01612C92
:1051D000712CCA01B901A30192010E94763D2150B0
:1051E0003109309389002093880080918800909144
:1051F0008900892B31F421E030E03093890020933D
:1052000088000E940B0A0E94580886E60E94B30993
:105210000E94FF09009188001091890060E072E10E
:105220008AE790E0A30192010E94763DA4E6B0E0F7
:105230000E94CF3D98012F5F3F4F40E050E00E9419
:10524000763D29013A01A4E6B0E0A70196010E944B
:10525000CF3DA3019201261B370B480B590BCA0106
:10526000B90105E228E44EEF0E94690B8AE70E942B
:10527000B3090E940B0A8CED95E00E94710D882302
:1052800009F449C0863960F01092810010928000C4
:1052900088E087B914B822982496E2E10C94803E05
:1052A000813598F139813323E9F04C8141504C83A9
:1052B000C501B4012AE030E040E050E00E94763DB4
:1052C00049015A01C701B6010E94763DCA01B901E0
:1052D0002AE030E040E050E00E94763D6B833AE007
:1052E000232E37C05C81563150F55F5F5C835631A9
:1052F00011F425E1222EAAE0B0E0A50194010E945C
:10530000CF3D4B015C011B8224C08B3018F08B8198
:105310008F5F8B83312C2B81822F90E0622D70E088
:105320006F5F7F4F0E94633D8B83832D0E94FE1F22
:10533000382E3FEE381708F4A7CF2A81AFCE8AE087
:10534000282E41E04B83812C912C5401839451E110
:105350005C83312CF2CFA0E0B0E0E1EBF9E20C94F9
:10536000663E86ED91E097D183E2809380001092B3
:105370006F008FEF90E090938B0080938A0083E022
:1053800086BB1092820015B881E184B988E088B9A3
:1053900089E087B9229A21E030E030938900209398
:1053A00088008093810010E0C0E0D2E300E084E652
:1053B000C82ED12CE12CF12C88248A9493E0992ECC
:1053C000A12CB12CDC17C1F1D43618F0CCE9CD0FEB
:1053D00001C0CD2F2C2F30E0AFEFB3E00E94BA3DDB
:1053E0006E5C7F4F8F4F9F4FA70196010E94763DC5
:1053F00029013A0130938B0020938A000E945208C1
:10540000A8EEB3E0A30192010E94CF3D61507E4F10
:105410008F4F9F4FA50194010E94763DDA01C9018B
:1054200025E045E26FEF0E94530C0E940B0A0932FF
:1054300018F08CE30E94DB0C80E496E00E94710D72
:10544000082F833868F088E087B9109281001092A5
:10545000800014B82298CDB7DEB7E0E10C94823E0C
:10546000833310F0DAE003C0882321F0D1E0DC0FB1
:1054700010E001C0DC2F812F0E94FE1F182F803FFB
:1054800008F4A0CFE0CFCF93DF938FE991E003D171
:105490008FE093E00E94F73EC82FD0E081E80E94A1
:1054A00074088C2F0E9474080E94520824E040E285
:1054B00060E08C2F90E00E94530C0E940B0A80E465
:1054C00096E00E94710D882331F0823850F48932C1
:1054D00080F0CF5FD0E08D2F0E94FE1FD82F803F3D
:1054E000E8F26C2F8FE093E00E94043FDF91CF91B0
:1054F0000895C150EFCF0F931F93CF93DF9385ECA7
:1055000091E0C9D084E193E00E94F73EC82FD0E03B
:105510000E9452080C2F0C2E000C110BC7FF0BC061
:105520008DE20E94B30923E045E26FEF88279927B7
:10553000801B910B04C023E045E26FEFC8010E947D
:10554000530C0E940B0A80E496E00E94710D8823A0
:1055500031F0823888F48932C8F0CF5FD0E0C135AD
:1055600014F0C55603C0CC3E0CF4CB598D2F0E94CD
:10557000FE1FD82F803F60F26C2F84E193E00E94E1
:10558000043FDF91CF911F910F910895C150E6CF55
:10559000813019F480E08DCA0895823011F44ACD2B
:1055A0000895833011F4D7CE0895843011F4E1CCFE
:1055B0000895853019F40C9408200895863029F454
:1055C0000E9489080C9446200895873011F493CFE7
:1055D0000895883021F481E10C94B90E0895893042
:1055E00011F451CF08958A3011F4A6C108958B307B
:1055F00029F45E9880E090E00C94710D0895FF927C
:105600000F931F93CF93DF938FE192E044D0D0E0CC
:10561000C0E01BE01C0F00E0FF24F394F00E60E0FC
:105620008F2D880F0E944508013021F48EE30E94DF
:10563000B30902C00E94FF091C3018F084EF810FEB
:1056400001C0812F53DC0F2D1F5F033029F780E449
:105650009FE10E94710D8111D0E090913C01913049
:1056600009F4D0E0823340F0CC2379F08C2F90DF26
:105670008FE192E010D002C08111CF5FDF5FD83799
:1056800020F4CC3030F2CC50C4CF80E0CDB7DEB7C0
:10569000E5E00C948D3ECF93DF93EC010E948908E6
:1056A000CE010E94540AC4E682E00E94DB0C4F99AE
:1056B00002C0C150C9F70E945208DF91CF910895EE
:1056C000A0E0B0E0E6E6FBE20C946D3E182F062F5A
:1056D000862F90E0FC01EA5BFE4FE491E860FE2E2D
:1056E000E12FF0E0ED5BFE4FC491FC01ED5BFE4F5E
:1056F000D491109287011092860110927A01109233
:105700007B0110927C0110927D0187EF80938C01C8
:105710000E94BF1988E088B9F7B8D4B9D5B9812FEC
:105720000E94130D7C01802F0E94130DE81AF90AC4
:1057300014B8109259011092580120E030E05CE258
:10574000C52EDD24D394DAE064E6B62E80915801AC
:1057500090915901843D904308F071C0C5B9809182
:10576000580190915901892B89F0F601E21BF30B46
:105770006091580170915901D29FC001D39F900D43
:1057800011240E944F3DE617F70750F4C4B90E9458
:10579000CD0C14B88091580190915901019628C000
:1057A00080915801909159010B97C8F06091580170
:1057B00070915901B29EC001B39E900D11240E94B8
:1057C0004F3D6E177F0758F4C4B90E94C20C14B83D
:1057D00080915801909159018C599F4F09C0C4B9CB
:1057E0000E94C80C14B880915801909159010A96F2
:1057F000909359018093580115B80E94CF0CA89539
:10580000812F0E94130D9C012E193F098091580190
:10581000909159018B31964018F0253231057CF07A
:105820002D3281E038070CF491CF8091580190918E
:105830005901019771F4253185E0380754F088E06B
:1058400087B988B914B815B8CDB7DEB7E9E00C94BC
:10585000893E8091580190915901880F991FA0E0CD
:10586000B0E08093820190938301A0938401B09370
:105870008501C90168E270E00E94633DCB01820F9F
:10588000931F0E949F1D20918201309183014091BE
:10589000840150918501DC010E94CF3D609382011B
:1058A00070938301809384019093850160937A01C2
:1058B00070937B0180937C0190937D010E944F1A2D
:1058C000C0907A01D0907B01E0907C01F0907D0146
:1058D00084E193E00E94F73EA8EEB3E0A81BB10973
:1058E00087FDB395A70196010E94D93D20E137E2DB
:1058F00040E050E00E94763D20937A0130937B0196
:1059000040937C0150937D0188E080932101209396
:105910007E0130937F0140938001509381018091FB
:105920008C0180938D01109289011092880100935F
:105930008A0110938B0183CFCF92DF92FF920F9356
:105940001F93CF93DF930E9489088CEC90E00E9414
:10595000540A0E9452088CEB90E00E94540A82E1A3
:1059600093E00E94F73E23E040E26EEF90E00E9459
:10597000530C83E193E00E94F73E23E040E26EEF98
:1059800090E00E94530C81E193E00E94F73E23E0F7
:1059900044E06EEF90E00E94530C0E94580885EBA3
:1059A00090E00E94540A23E044E06FEF80913801B8
:1059B000909139010E94530C0E945E088EEA90E09B
:1059C0000E94540A23E044E06FEF80913F019091E0
:1059D00040010E94530C88E99AE30E94710D0E94D5
:1059E00089088AEA90E00E94540A86E393E00E94C4
:1059F000F73E90E042970E949B0A87E393E00E9463
:105A0000F73E90E042970E949B0A83E393E00E9456
:105A1000F73E90E023E046E464EF42970E94530C87
:105A20000E94520883E00E94020A82E393E00E94EF
:105A3000F73E90E042970E949B0A85E393E00E9424
:105A4000F73E90E042970E949B0A81E393E00E9418
:105A5000F73E90E023E046E464EF42970E94530C47
:105A60000E94580888E190E00E94540A88E393E07D
:105A70000E94FF3E0E94860A0E945E0881E190E03B
:105A80000E94540A8AE393E00E94F73E082E000C1D
:105A9000990B0E94860A60E086E00E944508C0E0FB
:105AA000FC2EFF0CFC0ED0E0FA94CD17D9F10F2D8F
:105AB0000D0F10E0000F111FC8018D5D9C4F0E945B
:105AC000FF3E6C01C8018B5E9C4F0E94FF3E8C0123
:105AD0008091A801833038F088E99AE30E94710D23
